:100000006019002065C7000053380000EF39000078
:1000100000000000000000000000000000000000E0
:100020000000000000000000000000004F3B000046
:1000300000000000000000009F4D0000C34D0000C4
:100040007F50000029BF0000F9AC00001D900000A7
:100050000B510000000000009DC300000F51000084
:10006000EFC3000019C4000053C40000DB8400008B
:10007000939B000097A400001BC8000027C8000045
:10008000899000004DC800004FC8000051C8000012
:1000900053C8000055C8000057C8000059C80000E8
:1000A0005BC800005DC80000000000000000000008
:1000B0000000000000000000000000000000000040
:1000C000E022520080180268914203D34368D2189C
:1000D000914202D380680028F5D170471948016821
:1000E00000290ED180214902816009094160002167
:1000F000C943C160016104214161134A1160134980
:1001000001600120704730B4030007240800083064
:10011000204201D1002404E0082508000830281AF4
:1001200004400819111B9861D96001220A434260FA
:1001300028224018426003480069D86130BC7047EB
:1001400000000000BC3B0020003900206859883CBA
:10015000F0B587B00700072408000830204201D11D
:10016000029106E0082508000830281A20400818E7
:10017000029010000830204205D0082110000830FD
:10018000081A0440121914000298C018039005467A
:100190000298201AC01A0190032633430298436044
:1001A000A54201D301F0D2FA2079C00701D401F0B1
:1001B000CDFA0198102801D201F0C8FAB86984423A
:1001C00008D1F86801994018F860BD610121014328
:1001D00069606EE17869844209D1B8680199401874
:1001E000B8607D61012101436960285061E1606868
:1001F0000640012E00D0BBE0072188430590C008CF
:1002000020283ED2A1680091E6680490B44201D152
:1002100001F09CFA0098844201D101F097FA6068DD
:10022000072188430499C900884201D001F08EFA61
:100230000498C0003918009A08002830824208D07B
:1002400010463A69904200D28AE0C068A04200D0CD
:1002500086E00098864206D138680121049A9140D0
:10026000884338607EE028318E4205D03869864266
:1002700076D3B068A04273D10098C6600098B06091
:1002800070E0A0690090E668A6420CD0A0683969C9
:10029000884225D3C168A14222D1B168A1421FD1B1
:1002A000C660B0601EE0210014310E68002E07D138
:1002B000210010310E68002E14D001E001000E68FC
:1002C000300014300268002AF8D130001030026883
:1002D000002AF3D13869814202D30020086001E08E
:1002E00001F034FA009800283CD0E069800038180A
:1002F00098214900401801688C4209D10660002EFF
:1003000014D178680121E26991408843786029E03E
:1003100000983969884207D30069A042009801D14A
:10032000066103E0466101E001F010FA002E19D0E9
:100330003869864214D30099B1612169002906D039
:10034000814202D331618E6101E001F0FFF9606901
:10035000002807D03969884202D37061866101E0C4
:1003600001F0F4F9059824180198059940180190B6
:1003700060680121884360600198014369600198C9
:1003800028500198C008202822D20090C0003C18B4
:10039000283426000198102801D201F0D7F93868D6
:1003A00000990200CA40D10705D40121009A91406A
:1003B0000143396007E0A0683969884201D306002B
:1003C00001E001F0C3F9A560F560AE60EC6070E09B
:1003D0000198000A01D1002225E0802149028842CB
:1003E00001D31F221FE0FF21C9434118090C082235
:1003F00011408840314A8218120C04231A40904060
:100400002F4BC3181B0C022423400E24611A891A97
:10041000C91A9840C00B08184100019AC01DC2407B
:10042000D007C00F0A1890003818982149004118C9
:10043000EA610020686128617B681C00D440E40701
:1004400005D401209040184378600D601DE00968D4
:100450001F2A01D1002302E0192352089B1A019A96
:100460009A4000E019004B680724A343019CA34273
:1004700010D0D30F9B00CC18103452002368002BEF
:10048000F0D13869844212D32560A961ED600398E8
:10049000A8600EE08A683B69994208D39A4206D365
:1004A000D560039B8B60AA60E960A86101E001F060
:1004B0004DF90298083007B0F0BD000000F0FFFFD2
:1004C00000C0FFFFF2B586B0040091480068002824
:1004D00001D1FFF703FE8E488168069840182F303F
:1004E000491E88430699814200D3D9E1D8214900A9
:1004F00061188968002909D0D8225200A258101822
:10050000824200D3CCE1814200D2C9E101F028F956
:10051000002800D1C4E10700006800900020C0431B
:10052000874200D1BCE1D8204000205800994018F3
:10053000D8214900605061184968814200D2010009
:10054000D820400020184160A069002838D12069D7
:10055000002801D0874200D22761D820400020180F
:1005600007610098D8214900611848610020D8210E
:1005700049006118C8616648006860620020C04395
:100580002062002021002831C9600A000832116071
:10059000D2609260801C10312028F5D3C24884427A
:1005A00003D1009A283A390028E0201F006807216B
:1005B00088432118083900983818421A283A1DE053
:1005C000E0204000201800E0806800281AD0016870
:1005D000426889188F42F7D1017B090712D4A169BB
:1005E000026891420ED34368D21891420AD2009910
:1005F00059184160E06800994218A1692000FFF78E
:1006000082FD3AE12069874200D22761E020400064
:1006100020180099791800E08068002810D002683E
:100620008A42F9D1017B09070AD407604168009B1F
:10063000C9184160069B39002000FFF789FD30E1B1
:10064000A0690290054629002000FFF739FD0168E6
:1006500040680818059001462F3908000830400707
:1006600001D1002005E0082208000830101A4007D8
:10067000400F091828001030814201D2019500E096
:100680000191019808300490019E183600200390D3
:100690000099283938000830400701D1002205E0D0
:1006A000082238000830101A4207520FB818891A69
:1006B000A061E16001220A434260282240184260A2
:1006C00013480069E0610498400701D001F03EF84A
:1006D0001B20019948600498E0214900611810220C
:1006E00001F068F8D8204000201807610098D82150
:1006F0004900611848610020D82149006118C8618B
:100700000498D821490061188861059803E000BF6A
:10071000BC3B00200E00311D07227260039A521C60
:1007200003920A1D8242F5D30398022801DA01F0F0
:100730000DF80198A84200D19FE0401B29184A6893
:1007400001239A434A60012202436A600860C1089B
:10075000202921D20091C9006618283637001028B8
:1007600001D200F0F3FF206800990200CA40D107CF
:1007700005D40121009A91400143216007E0B0684F
:100780002169884201D3070001E000F0DFFFB56076
:10079000FD60AF60EE6070E0010A01D1002226E04A
:1007A0001A04914201D31F2221E0FF22D2438A186A
:1007B000120C08231A40009291403C4A8A18120CED
:1007C00004231A4091403A4BCB181B0C02263340AD
:1007D0000E26009FF61BB21AD21A9940C90B511867
:1007E0004A00C91D0300CB40D907C90F5218910018
:1007F000611898235B00C918EA6100236B612B61C3
:1008000063681E00D640F60705D4012090401843C7
:1008100060600D601CE009681F2A01D1002302E01E
:10082000192352089B1A02009A4000E019004B68F5
:100830000726B343834210D0D30F9B00CE18103647
:1008400052003368002BF1D12069864213D3356002
:10085000A961ED600298A8600FE088682269914262
:1008600009D3904207D3C560029A8A60A860E96004
:100870000020A86101E000F069FFE068069981426C
:100880000ED2411AE160A069069A8218A261012382
:100890000B435360069903220A434260083000E08C
:1008A000002007B0F0BD00004437002000F0FFFF3B
:1008B00000C0FFFFF2B584B007000020009004984C
:1008C0004442000A25D080214902884201D31F20DA
:1008D0001FE0FF21C9434118090C0822114088403C
:1008E000B64A8218120C04231A4090400E4BC318CB
:1008F0001B0C02252B400E25691A891AC91A98402B
:10090000C00B08184100049AC01DC240D007C00F98
:10091000081881007918982252008A58002A29D094
:100920001F2803D1002304E000C0FFFF1921430862
:10093000CB1A04999940002300E049005568072626
:10094000B543049EAD1BA54202D200922C000CD0F0
:100950005569CE0FB60092191269002D02D095424A
:1009600000D02B00002AE8D11A00002A3FD10099BC
:1009700000293ED10121012282405000434203431D
:100980007A681A4000D17FE150421040401E020BAD
:1009900010231A40D040430908252B400293D84029
:1009A000830804252B40D840450802263540019590
:1009B000E84045082940029D5219D218019BD218DF
:1009C0005218C84010188000381898214900425821
:1009D0000DE002005068072188430499401AA042A4
:1009E00001D20400009210690028F2D15269002A55
:1009F000F0D10098002800D146E1B8680499401A67
:100A0000844200D340E1009E3869864200D239E139
:100A100070180390054604982018029000984068CA
:100A2000072188430299884201D000F08FFEAE4230
:100A300000D327E10098806901900098C66886423B
:100A40000ED0009880683969884226D3C168009A20
:100A5000914222D1B16891421FD1C660B0601EE0C0
:100A6000009914310E68002E07D1009910310E68DC
:100A7000002E14D001E001000E683000143002682E
:100A8000002AF8D1300010300268002AF3D138690A
:100A9000814202D30020086001E000F057FE019877
:100AA000002843D00098C069800038189821490078
:100AB00040180099026891420AD10660002E16D1B2
:100AC00078680121009AD2699140884378602DE0CE
:100AD00001983969884208D30069009988420198D1
:100AE00001D1066103E0466101E000F02FFE002E17
:100AF0001CD03869864217D30198B061009800690C
:100B0000002807D03969884202D33061866101E04C
:100B100000F01CFE00984069002807D0396988421F
:100B200002D37061866101E000F010FE0320012114
:100B3000102C0AD2029A1043009A50600098029A30
:100B4000801842681143416099E0049A1043009A6A
:100B500050600120204368602C51E008202819D201
:100B6000C200BC18283426003A681300C3400B406A
:100B700003D181401143396007E0A0683969884298
:100B800001D3060001E000F0E1FDA560F560AE6074
:100B9000EC6074E0200A01D100222BE00A049042AC
:100BA00001D31F2226E0FF22D2438218120C082311
:100BB0001A4001929040014A02E000BF00F0FFFF9E
:100BC0008218120C04231A409040314BC3181B0C9E
:100BD0000226334002930E23019E9B1B9A1A029B0E
:100BE000D21A9840C00B10184200C01D2300C34009
:100BF0000B40D2189000381898235B00C018EA61A7
:100C000000236B612B617B681E00D6400E4004D12F
:100C100091401943796005601CE000681F2A01D1EA
:100C2000002202E0192152088A1A2100914000E0B6
:100C30001000426807239A43A24210D0CA0F9200C4
:100C40008318103349001A68002AF1D139698B42A0
:100C500013D31D60A861ED600398A8600FE0816860
:100C60003A69904209D3914207D3CD60039A8260DA
:100C7000A960E8600020A86101E000F067FD00982D
:100C8000083002E000F062FD002005B0F0BD000079
:100C900000C0FFFFF2B586B004006168484208401A
:100CA000401E010B10221140C840420908231A407F
:100CB000D040830804252B40D84045080226354003
:100CC000E8408607F60F8918C91849198919F040B4
:100CD00008188000201898214900405805004168F4
:100CE00007229143069A8F1A09E0080041680722FB
:100CF0009143069A891AB94201D20F000500016991
:100D00000029F2D140690028F0D12069854200D243
:100D1000D2E0A81803900698381801906868072157
:100D200088430199884201D000F010FD0398854264
:100D300000D3C1E0A8690090EE68AE420CD0A8686C
:100D40002169884225D3C168A94222D1B168A9424C
:100D50001FD1C660B0601EE0290014310E68002E5D
:100D600007D1290010310E68002E14D001E00100D7
:100D70000E68300014300268002AF8D130001030BC
:100D80000268002AF3D12069814202D30020086062
:100D900001E000F0DBFC009800283DD0E86980000D
:100DA000201898214900401801688D4209D1066039
:100DB000002E14D160680121EA6991408843606087
:100DC0002AE000982169884207D30069A842009868
:100DD00001D1066103E0466101E000F0B7FC002E9E
:100DE0001AD02069864215D30098B061286900287E
:100DF00007D02169884202D33061866101E000F0AA
:100E0000A5FC6869002807D02169884202D3706177
:100E1000866101E000F09AFC0320102F09D20199AD
:100E20000843686001982818416801220A4342601B
:100E30003FE0069908436860012038430399486001
:100E40000398C751A0680090C608202E01D300F077
:100E50007DFC0098002829D0606902900196F0007E
:100E60002618283604960098102801D200F06EFC4F
:100E7000206801990200CA40D10705D40121019AD6
:100E800091400143216007E0B0682169884201D3A5
:100E9000049001E000F05AFC0298B06002980499B6
:100EA000C8600498029988600298C660A760039899
:100EB00060610835280002E000F048FC002007B01F
:100EC000F0BDF0B587B00400C046C046BB4DF52C60
:100ED00000D328E10B2C01D2102402E00B340720B0
:100EE0008443E008019028680199C84003273842EC
:100EF00050D001260122824388180190C0002C188E
:100F00002834A06800900198C000039000984068C1
:100F1000072188430399884201D000F017FC00980C
:100F2000806802900098A04201D100F00FFC009868
:100F30000299884201D100F009FC0098406807211D
:100F400088430399884201D000F000FC0298844253
:100F500006D12968019A01209040814329600DE063
:100F60002969884208D3C0680099884204D1029850
:100F7000A0600298C46001E000F0E8FB039807431A
:100F80000098476000980399401841680E434660F6
:100F9000009E06E1A968A14200D3D7E0002800D155
:100FA000B7E00126019901228A405100019A904040
:100FB0004A420A43024051421140491E080B102286
:100FC0001040C1404A0908231A400092D1408A08C3
:100FD00004231A400192D1404A0802231A40029287
:100FE000D1404A083240009BC018019BC018029BA8
:100FF000C0188018D14040180390C000281828302D
:101000000090806804900398C000029004984068A3
:10101000072188430299884201D000F097FB049889
:101020008068019004980099884201D100F08EFBFD
:1010300004980199884201D100F088FB0498406827
:10104000072188430299884201D000F07FFB009875
:101050000199884206D12968039A01209040814372
:10106000296010E00846296988420AD3C0680499BB
:10107000884206D101980099886000980199C8605B
:1010800001E000F063FB0298001B039027430498E3
:10109000476004980019059003983043059948600B
:1010A000039805990850A8680190C408202C01D322
:1010B00000F04CFB0198002825D06869029000944C
:1010C000E0002C18283427000198102801D200F0E5
:1010D0003DFB286800990200CA40324003D18E408F
:1010E00006432E6007E0A0682969884201D3070003
:1010F00001E000F02BFB0298A0600298F8600298D3
:1011000087600298C4600398A86005986861049E8F
:1011100047E06868002836D021002800FFF7BAFDB4
:10112000060013D044E03F20C043844202D3002491
:10113000E4430BE00B34072084436868002805D0A3
:1011400021002800FFF7B6FB060031D1A968A142B3
:1011500019D30A1B686901260327102A08D301192D
:101160006961AA6016434E608A502743476008E0D1
:101170000022AA606A610F43476041184A6816431B
:101180004E6006000DE0E86884420CD2001BE86067
:10119000AE693119A961012202434A60032020434C
:1011A0007060083604E021002800FFF78BF9060084
:1011B000C046C046300007B0F0BD000044370020F4
:1011C000002800D17047F0B585B008380500C0464A
:1011D000C046474C21698D4200D2ADE268680322C7
:1011E00003230340012B00D1A6E2C308DB000293D6
:1011F000EB1800930126304240D12B68104000D1FB
:101200009CE20298C0180290ED1A8D4200D293E23F
:101210006069854200D1F0E0D808202800D37CE046
:10122000A9680191EF680390BD4201D100F08EFAE8
:101230000198854201D100F089FA68680721884346
:101240000399C900884201D000F080FA0398C000D9
:101250002118019A08002830824206D010462269DF
:10126000904257D3C068A84254D10198874243D1D5
:101270002168039A012090408143216000988542B3
:1012800000D359E24068304200D155E2810700D5D1
:10129000A6E10099A269914200D0C0E0E0680299FD
:1012A0004118E160A5610E436E606069854202D11C
:1012B00000206061A060E069884200D33EE20D48F2
:1012C0000068002801D1FEF709FFA169002900D1BB
:1012D00034E2E068292802D32000FEF7F1FEE0693D
:1012E000E168884200D329E20020C043E06125E2A2
:1012F00044370020BC3B002028318F4205D02069B4
:10130000874207D3B868A84204D10198C760019802
:10131000B860B3E700F01AFAB0E7A8690190EF6887
:10132000AF420BD0A868884224D3C168A94221D11A
:10133000B968A9421ED1C760B8601DE02A00143206
:101340001768002F07D12A0010321768002F13D01A
:1013500001E002001768380014300368002BF8D150
:10136000380010300368002BF3D18A4202D30020EA
:10137000106001E000F0EAF90198002800D17DE753
:10138000E8698000201898214900401801688D42C2
:1013900009D10760002F14D16168EA6901209040EB
:1013A000814361606AE701982169884207D3006937
:1013B000A842019801D1076103E0476101E000F014
:1013C000C5F9002F00D159E720698742A2D30199BE
:1013D000B9612969002906D0814202D339618F6140
:1013E00001E000F0B3F96869002800D146E72169FF
:1013F00088428FD37861876140E700984068024057
:10140000032A00D03AE70298A06000984068B043F1
:1014100000994860029806436E60029809E062698C
:10142000914208D1A06802994018A0606561064306
:101430006E60285082E107218843029909180291C1
:10144000C008202846D20099896803910099CF6886
:1014500001900098B84201D100F078F90098039902
:10146000884201D100F072F9009840680721884352
:101470000199C900884201D000F068F90198C000C4
:101480002118039A08002830824209D010462269A8
:10149000904200D297E0C068009A904200D092E05B
:1014A0000398874206D12168019A01209040814328
:1014B00021608AE028318F4207D02069874200D21C
:1014C00081E0B868009988427DD10398C76003988D
:1014D000B8607AE00098806901900098C7688742F8
:1014E0000ED0009880682169884226D3C168009A8E
:1014F000914222D1B96891421FD1C760B8601EE005
:10150000009914310F68002F07D1009910310F682E
:10151000002F14D001E001000F6838001430026879
:10152000002AF8D1380010300268002AF3D120696F
:10153000814202D30020086001E000F007F9019821
:10154000002842D00098C0698000201898214900E6
:1015500040180099026891420AD10760002F16D105
:1015600061680098C26901209040814361602CE06D
:1015700001982169884208D300690099884201983E
:1015800001D1076103E0476101E000F0DFF8002FBF
:101590001BD02069874216D30199B9610099096966
:1015A000002906D0814202D339618F6101E000F049
:1015B000CDF800984069002807D02169884202D3FD
:1015C0007861876101E000F0C1F8029830436860FB
:1015D00002982850606985420AD10298A060ADE067
:1015E000B0430099486002983043686002982850E0
:1015F0000298C008202822D20090C000271828375F
:1016000001970298102801D200F0A0F820680099F4
:101610000200CA40324003D18E400643266007E0F4
:10162000B8682169884201D3019001E000F08EF88A
:10163000BD600198C5600198A860EF607EE00298E7
:10164000000A01D1002225E03104884201D31F2283
:1016500020E0FF21C9434118090C082211400091E4
:10166000884038494118090C042211408840364A04
:101670008218120C02231A400E23009FDB1B591AFA
:10168000891A9040C00B08184100029AC01DC24040
:1016900032408A1890002018982149004118EA61C8
:1016A00000206861286163681F00D740374004D17B
:1016B00096401E4366600D601DE009681F2A01D137
:1016C000002302E0192352089B1A029A9A4000E074
:1016D00019004B680726B343029EB3420FD0D30FC5
:1016E0009B00CE18103652003368002BF0D12069D1
:1016F000864210D33560A961ED60AD600DE08A6867
:101700002369994207D39A4205D3D5608D60AA60B8
:10171000E960A86101E000F019F8206A401E20622B
:101720000CD1E4204000205800E080680028FCD163
:101730000020C043206201E000F008F8C046C04627
:1017400005B0F0BD00F0FFFF00C0FFFF80B5012035
:1017500000F04AF801BD0268531C03601170704725
:1017600007490868002801D0002070470548072273
:101770009043086004499143091A0160704700BF13
:101780003C3C00206719002060210020124207D055
:101790008B0706D00B78491C0370401C521EF7D8EB
:1017A0007047830706D00B78491C0370401C521EFB
:1017B000F9D1704770B4103A03D378C9103A78C0A1
:1017C000FBD2530701D318C918C001D508C908C0F6
:1017D000D20704D30B880380891C801C002A01D502
:1017E0000B78037070BC704780B5C046C046024A93
:1017F00011001820ABBEFBE7260002008A480068F3
:10180000704770B5040001F073F9451C2800864943
:1018100049688847060001D1002070BD2A002100D8
:10182000FFF7B4FF300070BDF8B504008027BF009B
:101830007D08002C1FE02668E068284004D1A068DD
:10184000002801D0FFF7F0FFE068284005D12069AB
:10185000002802D0C34989688847E068384005D12C
:10186000206A002802D0BF49896888472000BD4906
:10187000896888473400DED1F1BDF1B586B00C002F
:1018800000220023002600270020AF4904AD03C535
:1018900068460CC000250120029020782D2804D134
:1018A0000020AA4904AA03C2641C2078302800D171
:1018B000641C20783138092816D20020AB49320048
:1018C0003B0001F01DF906000F002078303801F0D0
:1018D000D9F932003B0001F0EFF906000F00641C5B
:1018E000207830380A28E8D320782E2823D1607851
:1018F00030380A281FD2641C00209C4932003B006B
:1019000001F0FEF806000F002078303801F0BAF937
:1019100032003B0001F0D0F906000F00641C68465D
:1019200003C80022894B01F0C7F96A4603C2207838
:1019300030380A28E0D32078652801D0452814D112
:10194000641C20782B280AD02D2809D10020C04300
:10195000029004E0A900491949000D18303D641CAB
:101960002078010030390A29F4D304A803C83200D2
:101970003B0001F0C5F806000F000298454328001F
:1019800001F080F96A460CCA01F096F902000B00DA
:101990000020764901F0D8FC32003B0001F0B0F89D
:1019A000069A183203C201F0E7FE06994861032047
:1019B0000699C860200007B0F0BDF8B5040002D059
:1019C0002068002801D10020F2BDA2688918636850
:1019D0008B4201DB8018F2BD491E4810084381107C
:1019E000014308110843011201430F140F437F1CE8
:1019F0005C4D3800696888470600206805D1A968F1
:101A00008847002060602060F2BD626801003000FD
:101A1000FFF7BCFE2068A968884767602660A06859
:101A20003018F2BD0000000014010020F8B50500D8
:101A30000C001830C0C80020002132003B0001F02B
:101A4000C4FE12D1002C04D002212000FFF7B5FF04
:101A500003E00220434949688847040071D03CA054
:101A600001782170417861706BE0686901F00AF9D2
:101A700032003B0001F083F94900490801223A4B4A
:101A800001F0B5FE1DD23000390032A20CCA01F0BF
:101A9000AEFE16D20022314B01F0C2FE11D8002C4E
:101AA00004D015212000FFF788FF03E015202D4901
:101AB00049688847040044D06A6929A101F0CAFE38
:101AC0003FE0002C04D040212000FFF776FF03E028
:101AD0004020244949688847040032D0300039004A
:101AE00001F0D4FE32003B0001F049F949004908F9
:101AF00001221D4B01F07BFE0CD230007900490819
:101B00009EA20CCA01F073FE04D232003B0000BF5B
:101B100017A113E03000790049089AA20CCA01F01D
:101B200066FE04D30122994B01F07AFE03D83200FD
:101B30003B0097A102E032003B0097A1200001F09A
:101B400089FE2000F2BD00000000F03F0000F0BF61
:101B5000300000000100C0FFFFFFDF410000E0C1D6
:101B600025640000140100200000B03C0000244067
:101B7000252E30660000000010B401000878020035
:101B80001300303B0A2B01D2303809E01300413BEF
:101B9000062B01D2373803E0613A062A3ED2573885
:101BA00000014A7813001C00303C0A2C01D2303A64
:101BB00009E01C00413C062C01D2373A03E0613BAE
:101BC000062B2BD2573A801800018A7813001C008C
:101BD000303C0A2C01D2303A09E01C00413C062C72
:101BE00001D2373A03E0613B062B17D2573A8018EF
:101BF0000001C9780A001300303B0A2B03D23039A8
:101C0000401810BC70471300413B062B01D23739F6
:101C1000F6E7613A062A01D25739F1E70020F0E7EA
:101C2000F1B50C00651C00202178222908D0594804
:101C3000046012E029006D1C09785C2900D16D1C3C
:101C40002978222903D0002901D0401CF2D1401C60
:101C5000504949688847070001D10020F2BD651C42
:101C60003C0002E020706D1C641C2878222877D08C
:101C7000002875D05C28F5D16D1C287862280AD020
:101C800066280AD06E280AD072280AD074280AD092
:101C900075280AD060E008205EE00C205CE00A2095
:101CA0005AE00D2058E0092056E0681CFFF764FF59
:101CB00006002D1D924830188021C90088424DD35E
:101CC000002E4BD0B3483018884216D268785C2872
:101CD00044D1A878752841D1E81CFFF74DFFAD1D10
:101CE000874941188022D200914237D2B105090BB1
:101CF0008005800D0843910146180420802E02D2F1
:101D00000120641C20E080214202964202D202207F
:101D1000A41C13E08203964207D3E41CBF22324086
:101D2000802313432370B60901E00320E41C641EE2
:101D3000BF223240802313432370B609641EBF23A1
:101D4000334019432170B609641E00BF13A1095C1A
:101D500031432170241801E02070641C6D1C84E75D
:101D6000002020702878222800D16D1C009807617F
:101D700004200099C8602800F2BD000044F3C2E4CA
:101D8000E4E9634C8DEDB5A0F7C6B03E65CDCD411D
:101D90002565000014010020256600000000C0E059
:101DA000F0F8FC00F1B50F0000250020009C04E0D5
:101DB0000022030010001843641C2278002A07D078
:101DC000202A03DB222A01D05C2AF1D10122F0E78C
:101DD0000028009819D1251AE81C002F04D0010012
:101DE0003800FFF7EAFD02E07249496888470600BB
:101DF00042D022273770741C0099200001F072FD38
:101E0000675500206119487078E0002813D1002F31
:101E100004D003213800FFF7D0FD03E0032065491B
:101E200049688847060001D10020F2BD032262A163
:101E3000FFF7ACFC62E0044603E0202E00DA6D1DE3
:101E4000641C2678002E0AD06D1C08D0310000BF1B
:101E50002CA001F04FFD0028EFD06D1CF0E7E91C2D
:101E6000002F03D03800FFF7A8FD03E00800514918
:101E700049688847060001D10020F2BD009C222756
:101E80003770751C02E02870641C6D1C20780028D7
:101E900032D0202803DB222801D05C28F3D15C203B
:101EA00028706D1C2278641C082A0FD0092A19D0CA
:101EB0000A2A11D00C2A0CD00D2A10D0222A03D0C5
:101EC0005C2A12D12870E0E72F70DEE762202870CC
:101ED000DBE766202870D8E76E202870D5E77220EF
:101EE0002870D2E774202870CFE700BF07A1280030
:101EF00001F0B0FC6D1DC9E72F7068703000F2BDB5
:101F00000024FFFF225C080C0A0D090075253034FF
:101F100078000000F2B50600150028202549496820
:101F2000884704000027002C02D12248076028E0DF
:101F3000282101F017FD1F480760310000E0491C0F
:101F4000002904D00878002801D02128F7DB2000E0
:101F500000F034F8060003D12000FFF765FC10E024
:101F6000002D10D03078002803D0212801DA761C0B
:101F7000F8D13078002806D02000FFF755FC0D4836
:101F800006600020F2BD0098002800D00660200006
:101F9000F2BD00000028FFFF80B500220021FFF7FE
:101FA000B9FF02BD80B500230022002100F0B2F885
:101FB00002BD00001401002022220000F8B5050037
:101FC0000C0000D19BE004224E49200001F0CEFC21
:101FD000002802D10220E86013E005224A492000CF
:101FE00001F0C4FC002802D1E860601DF2BD0422AB
:101FF0004649200001F0BAFC002804D10120E86025
:102000006861201DF2BD20780100222904D1210041
:102010002800FFF705FEF2BD2D2902D030380A282E
:1020200004D221002800FFF728FCF2BD5B295DD116
:1020300063D10520E860641C04D02078002801D01A
:102040002128F8DB20785D284ED0282030494968C7
:10205000884707003E0002D0282101F083FCAE60D3
:10206000002F4CD0210000E0491C002904D0087842
:10207000002801D02128F7DB3000FFF79FFF00E0A8
:10208000401C002804D00178002901D02129F7DB69
:10209000040034D020782C2824D128201C494968F9
:1020A000884705002BD0282101F05CFC35606E606C
:1020B0002E00611C00E0491C002904D0087800288B
:1020C00001D02128F7DB3000FFF778FF00E0401C4B
:1020D000002804D00178002901D02129F7DB040071
:1020E000D8D10CE05D2808D1601CF2BD7B2904D159
:1020F0002100280000F0C4F9F2BD0548046000206A
:10210000F2BD0000E4210000EC210000F4210000F9
:102110001401002070B50024002861D0C568002B90
:1021200036D0EDB2062D5AD801A6765DB74400BF71
:102130001C300848505AA80005211800FFF73DFC44
:1021400004004CD0052200BF26A112E00621180091
:10215000FFF733FC040042D0062200BF23A108E0B1
:1021600005211800FFF729FC040038D0052200BF24
:1021700020A1FFF70BFB32E01900FFF757FC2DE021
:1021800019000069FFF70EFE28E000F037F825E09F
:10219000EDB2062D23D801A35B5D9F440E16061EEB
:1021A000263038000FA0FFF72CFB17E00FA0FFF739
:1021B00028FB13E00FA0FFF724FB0FE00021FFF73F
:1021C00035FC0BE000210069FFF7ECFD06E0002381
:1021D00000F014F802E0002300F0FEF904002000F3
:1021E00070BD00006E756C6C0000000066616C7361
:1021F000650000007472756500000000F7B588B0D6
:102200001F00052000900898856800200290069025
:1022100002E0401C02902D68002D0298F9D10028A0
:1022200012D1002F04D003213800FFF7C6FB03E0D2
:102230000320914949688847050000D107E103223E
:102240008EA1FFF7A3FA02E1002F00D186E0B86863
:10225000049001213800FFF7B0FB040000D109E130
:102260005B202070B868401CB860089885680998A1
:10227000401C05901EE07A68FFF788FA3868B1685C
:1022800088477C60019838600198B9684418002C30
:1022900000D1EFE02C202070641C0A98002802D0A6
:1022A00020202070641C00202070B868009940181D
:1022B000B8602D68002D42D03B000A9A059928008D
:1022C000FFF728FF3C68002C05D0BE68A01900F07D
:1022D0000FFC301800E00020B86028680028E8D023
:1022E0000A98002803D002200090032002E0012079
:1022F00000900220002C00D1BCE0B96840187A6838
:10230000824201DB6418C2E7401E4110014388107D
:102310000843011101430812084304140443641CD8
:10232000554E200071688847019039680028A2D175
:102330000800B16888470020786038609AE0022180
:102340003800FFF73AFB040000D193E05D202070D5
:102350000020607038680499451878E08400464E83
:102360002000716888470390002800D182E0210096
:1023700001F0F8FA08988568039C0998401C0590BC
:1023800003E0012006902D68241D002D18D006982A
:10239000002815D100230A9A05992800FFF7BAFEF4
:1023A00020600028EDD000F0A3FB0A99491E894166
:1023B000C943C90F009A10184018801C0090E2E72A
:1023C0000698002846D1009871688847050041D0DA
:1023D0005B2028706C1C002020700490029801285B
:1023E0002EDB039801900298401E05900198076823
:1023F000380000F07DFB0090024639002000FFF716
:10240000C5F9009824180498059988420AD02C2010
:102410002070641C0A98002802D020202070641CC0
:102420000020207001980068B16888470498401C1B
:1024300004900198001D0190049802998842D5DB10
:102440000398B16888475D202070002060702800E4
:102450000BB0F0BD0298012809DB039C05462068FB
:10246000002801D0B1688847241D6D1EF7D103985C
:10247000B16888470020EBE7140100205B5D000095
:10248000F8B506000C0020787B2800D09DE00620DF
:10249000F060641C04D02078002801D02128F8DBEB
:1024A00020787D2800D18EE028204A494968884755
:1024B00007003D0002D0282101F054FAB560002F3A
:1024C00000D184E0210000E0491C002904D00878F4
:1024D000002801D02128F7DB2800FFF7A1FB00E04E
:1024E000401C002804D00178002901D02129F7DB05
:1024F00004006CD02869286200262E6120783A28D2
:1025000063D1611C00E0491C002904D00878002830
:1025100001D02128F7DB2800FFF750FD00E0401C28
:10252000002804D00178002901D02129F7DB04001C
:102530004DD020782C2844D1282026494968884746
:10254000070044D0282101F00DFA2F607D603D0086
:10255000611C00E0491C002904D00878002801D043
:102560002128F7DB2800FFF75BFB00E0401C002878
:1025700004D00178002901D02129F7DB040026D0FE
:102580002800103001680161066020783A281CD1CB
:10259000611C00E0491C002904D00878002801D003
:1025A0002128F7DB2800FFF709FD00E0401C002888
:1025B00004D00178002901D02129F7DB0400B8D12B
:1025C00005E07D2801D1601CF2BD024804600020B6
:1025D000F2BD000014010020FDB588B00E000725F3
:1025E000002000900898876800200190049002E085
:1025F000401C01903F68002F0198F9D100280A98EB
:102600002DD10028099808D0002801D0091D00E02C
:1026100003210A98FFF7D1F907E0002801D0301D07
:1026200000E003207F4949688847050000D1D5E1D3
:102630007B2028706C1C099800280BD00A20207081
:10264000641C761E012E05DB09223100200001F0FA
:102650005BF9A4197D202070002060709DE10028A6
:1026600000D1BDE0806800900998002801D00225C3
:1026700000E00125691C0A98FFF79FF9040000D1CA
:10268000ACE17B202070641C0998002802D00A204D
:102690002070641C002020700A98806840190A99F4
:1026A000886008988768761C1BE00D18691C0A98DA
:1026B000FFF783F9040000D190E13868002802D0C8
:1026C0002C202070641C0998002802D00A20207059
:1026D000641C002020700A98806840190A9988605C
:1026E0003F68002F099858D0002811D031000A986F
:1026F000FFF763F9040000D170E1012E03DB09222A
:10270000310001F001F90A98806880190A998860FF
:102710000A99386AFFF746FB0A980068002805D036
:102720000A998C68001900F0E3F920180A9988606A
:102730000998002801D0022500E0012529000A9807
:10274000FFF73BF9040000D148E13A2020700998D6
:10275000002801D0092060700A98806840190A9901
:1027600088600A9B099A31003800FFF7D3FC0A9869
:102770000068002805D00A998C68001900F0B8F9A3
:1027800020180A9988600998411E8941C943C90FD8
:102790003868002889D0012087E7002801D0711C03
:1027A00000E002210A98FFF708F9040000D115E1C2
:1027B000099800280BD000200090761E012E06DB21
:1027C00009223100200001F09FF8A41900967D2015
:1027D0002070002060700A98006800994518DCE0BD
:1027E0000198840020000F4949688847029000281A
:1027F00000D1F3E020000B49496888470590002884
:1028000000D1E7E02100029801F0ACF82100059822
:1028100001F0A8F808988768761C0998002806D067
:10282000F51D04E014010020012004903F68002FF2
:1028300029D00021386AFFF7B5FA06900599009A69
:1028400092008850009C601C00900023099A31007F
:102850003800FFF75FFC0299A20088500699002912
:10286000E2D00028E0D000F043F90390069800F091
:102870003FF90999002900D0B11C039AAA18101831
:102880004518AD1CD2E70498002800D088E0280045
:10289000784949688847050000D181E07B2028708D
:1028A0006C1C0998002802D00A202070641C0020AB
:1028B000207000900198012857DB05980490029839
:1028C00003900198401E07900998002807D0012E18
:1028D00005DB09223100200001F016F8A419049844
:1028E0000768380000F004F906900246390020001D
:1028F000FEF74CFF069824183A202070641C0998B3
:10290000002802D009202070641C03980168200070
:1029100000F0E8FF0398006800F0EAF82418009837
:102920000799884202D02C202070641C0998002846
:1029300002D00A202070641C0020207004980068D7
:102940004C4989688847039800684A4989688847DC
:102950000098401C00900398001D03900498001DEF
:102960000490009801998842AEDB05984149896836
:10297000884702983F49896888470998002808D005
:10298000761E012E05DB09223100200000F0BCFF7D
:10299000A4197D2020700020607028000BB0F0BDCD
:1029A0000198012812DB059C029D0646206800283C
:1029B00002D03049896888472868002802D02D490C
:1029C000896888472D1D241D761EEFD10598294959
:1029D0008968884702982749896888470020DDE789
:1029E000F2B5846802E0002E1FD02468002C1CD0B1
:1029F000009E256A002DF6D0002E04D1F5E70028B0
:102A000013D06D1C761C287800F0C6FF07003078C4
:102A100000F0C2FF87422878F1D000F0BDFF05002A
:102A2000307800F0B9FF281ADFD12000F2BD8268AB
:102A3000002909D0002A02D1816070470200106885
:102A40000028FBD111604A60704770B504000D008A
:102A500016000DD0306A002802D0064989688847E0
:102A60002800FEF7CEFE306231002000FFF7DFFFC6
:102A700070BD000014010020D0B506000F00282012
:102A80001A494968884704000CD0282100F06AFFE1
:102A90000320E06020001830C0C03000390000F092
:102AA0006BFE60612000D0BD38B5050028200F49BD
:102AB00049688847040008D0282100F053FF04200B
:102AC000E0602800FEF79DFE2061200032BD10B5B9
:102AD0002820064949688847040004D0282100F0CE
:102AE00041FF0620E060200010BD0000140100201E
:102AF000010000E0491C0A78002AFBD1081A70473F
:102B0000F0B50E005E400125ED072E40B446AE0A3A
:102B1000DF184C18F44208D2F7420ED2640D01D0EF
:102B20007F0D12D100206146F0BD05D1F74201D8DA
:102B30007F0D05D10020C143F0BDFBD1640DF9D05C
:102B40000020C143490549088FE0E419C902DB02AE
:102B500029432B43DB0A460DC00231438E4630B475
:102B600087B295B27D432E0CADB2140C7C43A419F0
:102B7000260C240425439CB27C43A419190C7943E8
:102B8000270CC919A4B20F043C43090C000C97B2DE
:102B900047432E0CBE193543ADB2170C4743360CD4
:102BA000BF19A6B2BF193E043543240C3E0C36199A
:102BB0009FB24743BF19BCB23E0C89191F0C474353
:102BC0007F183E043443390C704680B297B24743B5
:102BD0002E0CBE193543ADB2170C4743360CBF1946
:102BE000A6B2BF193E043543240C3E0C36199FB2E1
:102BF0004743BF19BCB23E0C89191F0C47437F18CD
:102C00003E043443390C77463F0C90B278432E0C87
:102C100080190604ADB22E43050CA0B22D18120C7B
:102C20007A435019020C80B2240CA4189AB27A4349
:102C3000121914042043120C89181B0C7B43C91869
:102C400030BCEF0A394203D1B61940414941641EF4
:102C50006F12BF0DE41B0BDBFF19BC4211DA240518
:102C600000274208AE417841614166463143F0BDDC
:102C7000641C05D1401C6141CF0201D34908F4E72F
:102C800050E75DE7010009D5F446404200F006F840
:102C90000122D20711436047010000BF4222120106
:102CA000D21E004207D002D4521E0018FCD5C10A21
:102CB0004005120589187047F0B40125ED070F0093
:102CC0005F404FD48B4200D1824205D98446100028
:102CD00062468C4619006346DF184C18640D7F0D60
:102CE0003AD0661C760537D0E61B352E34DCDB0285
:102CF0002B43DB0A0C0DC9022943C912202E0DDB20
:102D00001700203E06D01F00F741F3405F40002629
:102D1000012A7741C01871410DD217E01700F74121
:102D2000F2405740F3415A40B340F3405A40002626
:102D3000801859410AD3A21C52050FD0C207012F97
:102D4000724117004008CB0718434908641C24054A
:102D50004208AF4170416141F0BC7047641C2105DD
:102D60000020F9E76B4010E06B40ABE7F742F3D18E
:102D7000E943F1E72442EFD100200021ECE7F0B471
:102D80000125ED070F005F40EED40C00871A9C412F
:102D900005D2C01BA141D219634169406B40AE0A04
:102DA000DF184C18F442E1D2640D7F0DE2D0E61B2F
:102DB000362ED1DCDB022B43DB0AA4460C0DC90204
:102DC0002943C90A012E28DC04D1D6075208DF079F
:102DD0003A435B08EF0A76429041994114D0394258
:102DE0003BD1B61940414941761C394204D1761C89
:102DF000001849413942FAD0B9436746B74208D969
:102E0000A41B24052143A7E70042EAD13642E8D1BA
:102E1000A2E7E40AE10700209EE7202E0BDD203E1A
:102E20001F00F340F7415F40012A002257417E42D4
:102E3000984191410BE01700F741F2405740F341B0
:102E40005A40B340F3405A407E42904199410A03B0
:102E500003D2641EB619404149410027641E24056F
:102E60004208AE4178416141F0BC70471948017891
:102E700001291CD10179090719D1F02182680A4280
:102E800002D1C3680B400CD0F0231340102B02D1A9
:102E9000C3680B4005D00A40302A08D1C2681140EF
:102EA00005D10D490D4A1160D10B0D4A1160017811
:102EB00001290DD1017909070AD1F02182680A4060
:102EC000402A05D1C068014002D1012005490860AF
:102ED00070470000E00F00F0DFFF07C0040500406E
:102EE000186C004008060040F8B50FB48AB00CA872
:102EF00003C804AA03C20B984000400D78498842D9
:102F00000CD10020694608800B98000304D10A9870
:102F1000002801D1012518E0022516E0012808DA71
:102F20000AA800F042FD012803DB002569460D8058
:102F30000BE00B99BE4A0A40C34911430B91694605
:102F4000BC4A801A08800025ED43002104A800F047
:102F50004FFD04001498002802D000201499088026
:102F6000002C06D10CA80CC80020002100F02DFC7C
:102F700015D0002D16D5009E36B2012E16D10AA806
:102F800003C80022B04B00F020FC08D0012C0DD16A
:102F90000AA80CC80020A84900F017FC2ED1002078
:102FA000A649B9E1022D03D10AA804E0012C5CDB9B
:102FB000022C02D10CA803C8AEE1012D1CD10B9844
:102FC00000280D9802D400284CD535E0002809D4FB
:102FD000002C47D10021C94304A800F009FD0028B6
:102FE00040D53CE0002C27D10021C94304A800F0C3
:102FF000FFFC002820D51BE0012C0AD1009E36B230
:103000000D98002802D4012E2CDA15E0012E13DAD7
:1030100028E00D98002812D4002C0DD10021C943BE
:1030200004A800F0E5FC002806D50B98002803D57D
:103030000020802109066FE1002000216CE100F0F2
:103040001DFD22210160002C0CD10021C94304A8E0
:1030500000F0CEFC002805D50B98002802D50020F2
:10306000AE4959E10020B74956E10B98002809D52F
:10307000002C07D500F002FD212101600020C04393
:10308000410849E10AA803C80022002300F0C8FB58
:1030900002D269468A800DE00AA803C8802212067F
:1030A00051400AAA03C20021C94304A800F0A0FCB1
:1030B00069468880012E15D10AA803C898A20CCAB7
:1030C00000F095FB0ED2002400265C4F0AA80CC825
:1030D00000208021C905FFF713FD0AAA03C21CE0E6
:1030E000FF0700000AA80CC800208F49FFF708FD61
:1030F0000022554BFFF7E0FD00F03EFB0400203CB2
:103100002000FFF7BFFD0022884BFFF7F9FC0022EB
:103110004D4BFFF7D1FD06000F0000BF8EA06101EF
:10312000401806900AA803C832003B00FFF727FEAC
:1031300004000D000AA803C832003B00FFF7BCFDE5
:1031400002000B002000290000F0A0FC04AA03C22A
:1031500004A803C804AA0CCAFFF7D2FC08AA03C239
:103160000AA830C008A803C800F0F2FC08AA0CCADC
:10317000FFF7C6FC0AAA0CCAFFF701FE04000D0007
:1031800000202E4932003B00FFF7F9FD002280238A
:10319000DB05FFF7B5FC22002B00FFF78DFD04AA2D
:1031A0000CCAFFF7ADFC02000B000AA803C8FFF72A
:1031B00083FD08AA03C208A803C85FA20CCA00F0D6
:1031C00065FC04AA03C2009800B2FFF75BFD06008D
:1031D0000F00069803C832003B00FFF76DFD04AAFC
:1031E0000CCAFFF769FD04AA03C20CA80CC804A806
:1031F00003C8FFF785FC02AA03C202A803C8002285
:103200004B4B00F0F4FA73D302A803C80122494BD8
:1032100000F006FB6FD902A803C80022002300F0CB
:10322000E6FA02A80CC80BD2002003490EE000BF4A
:10323000FFFF0F80FE0300000000E0BF0000F03F32
:103240000020014902E000BF0000E03FFFF734FD2D
:1032500000F092FA040008A803C80CAA0CCAFFF7F1
:103260004FFC02AA03C20698083003C8069A10321F
:103270000CCAFFF721FD0CAA0CCAFFF741FC2EA2D5
:103280000CCAFFF73DFC02AA0CCAFFF715FD02AA03
:1032900003C2069803C832003B00FFF70DFD0CAADD
:1032A0000CCAFFF72DFC06000F002000FFF7EAFC18
:1032B00002000B0030003900FFF761FD1EA20CCAAE
:1032C000FFF71EFC02AA0CCAFFF7F6FC02AA03C213
:1032D0001498002801D00480002400940022184B88
:1032E00002A800F087FC002802D0012803D00AE0E1
:1032F0000020002101E00020124902AA03C200F0D0
:10330000BDFB22210160019800B2002802A803C879
:1033100002D08022120651400FB0F0BD0000F0FF35
:10332000CD3B7F669EA0E63F000050400000903FEE
:103330000000E0C00000E040EF39FAFE422EE63F18
:103340000000F03F0000F07F10B582B00024009430
:10335000FFF7CAFD1CBD0000000000000000F0BF28
:10336000000000000000008000000000000000805D
:103370000000000000000000000000C05294EEBFFA
:1033800000000048204E51BE000000F86467BCBC3D
:103390000000000000000000000000208133EDBFAD
:1033A00000000080B3DB14BE000000506706A3BC21
:1033B0000000000000000000000000D0E9DCEBBFCE
:1033C00000000008C39259BE00000080B0D3B8BC12
:1033D000000000000000000000000070F98FEABF4C
:1033E000000000C0A51028BE000000E8BFC0B0BCAF
:1033F000000000000000000000000070284CE9BF41
:1034000000000060134B42BE000000C03D20B8BC6D
:10341000000000000000000000000050FA10E8BFAB
:10342000000000C05FF62BBE000000905C71A7BCDE
:10343000000000000000000000000020FCDDE6BFEE
:10344000000000C0F8F154BE00000018E9F6B9BC55
:103450000000000000000000000000D0C3B2E5BF83
:1034600000000070E43254BE00000050DB06B4BC23
:10347000000000000000000000000010EF8EE4BF1C
:1034800000000020F36252BE000000C02A879ABCF0
:103490000000000000000000000000B02272E3BF46
:1034A000000000F0E8E056BE00000028352DBDBC4D
:1034B0000000000000000000000000000A5CE2BF05
:1034C000000000B0FA8E41BE00000040AE6FBDBCEF
:1034D000000000000000000000000000564CE1BFAA
:1034E000000000F015CD5FBE00000000141C90BC71
:1034F000000000000000000000000040BD42E0BFEE
:1035000000000030F93457BE000000E06C1E93BC90
:103510000000000000000000000000E0F57DDEBFBC
:10352000000000B08A535EBE00000080DA77AABCBB
:103530000000000000000000000000C09D81DCBF12
:1035400000000000FFA226BE0000006057E2B0BCF1
:10355000000000000000000000000060F98FDABFEA
:10356000000000580A8151BE000000F05F60B8BC46
:1035700000000000000000000000000098A8D8BF74
:10358000000000607A7F45BE000000D05433A3BC29
:103590000000000000000000000000600FCBD6BF5C
:1035A000000000D091CB40BE000000406D1BA0BCCD
:1035B0000000000000000000000000A0FBF6D4BFE7
:1035C00000000098C5CE52BE000000003A397EBC13
:1035D0000000000000000000000000E0FE2BD3BF50
:1035E0000000004073872BBE00000000926879BC89
:1035F000000000000000000000000040C069D1BFD2
:1036000000000058F16353BE00000080438D7CBC75
:10361000000000000000000000000080D85FCFBF65
:10362000000000181F8354BE000000B03F42A2BC3F
:1036300000000000000000000000008067FCCBBF1D
:1036400000000060FAFF53BE00000050E00DB8BC5F
:1036500000000000000000000000000098A8C8BFA3
:10366000000000607A7F35BE000000C0543393BC78
:10367000000000000000000000000000DC63C5BF87
:1036800000000058D6FF54BE00000000396490BC12
:103690000000000000000000000000C0AD2DC2BF0F
:1036A00000000080A45915BE000000E0484BABBCF0
:1036B0000000000000000000000000801A0BBEBFE8
:1036C00000000050BF3C5ABE000000A0B364B6BC6E
:1036D00000000000000000000000008004D6B7BF1A
:1036E00000000040BBCF36BE0000008076CEA8BCF4
:1036F00000000000000000000000008032BBB1BFED
:10370000000000402A0043BE00000028C60CBDBCDB
:103710000000000000000000000000009473A7BF3C
:10372000000000182B3B59BE000000C0E55DA5BCA1
:10373000000000000000000000000000EE4397BF02
:10374000000000A0E6C340BE00000020958DB5BC7F
:1037500000000000000000000000000000000080E9
:103760000000000000000080000000000000008059
:103770000000000000000000F4464A1805D200F0E6
:103780000FF801D580174008604700F009F80121C3
:10379000C907884200D90800404260474A1812D23F
:1037A000400DC90208430121C9070843520D4021B9
:1037B0000901521A521C06D452421F3201D4D04081
:1037C0007047C01770470020704790420ED1A44642
:1037D0000C001C430128644107D0994205D14C00DC
:1037E0006415641C644000D30C036446704730B415
:1037F000012464054D00EC420BD85D00EC4208D872
:103800000C001C4364000443144304D2994200D1C9
:10381000904230BC7047FCD08B42FAD18242F8E72C
:1038200030B4012464054D00EC420BD85D00EC423D
:1038300008D80C001C4364000443144304D28B4298
:1038400000D1824230BC7047FCD09942FAD19042FC
:10385000F8E7FEE70CB41CB5040004A8019000943E
:1038600001AB0A006946084878441C3000F01EFB92
:103870000021009A1170002801D40098001B02B0AA
:10388000019910BC03B00847CFDEFFFF4A00520D7C
:10389000FF239B009B1CD21A19DD35239B1A1DDDCB
:1038A0001300153B09DA9B41DB0AD340094201D5DD
:1038B000401E59410020994370470022D243DA400C
:1038C000094202D5002380185941904370474B00AC
:1038D000034300D0024900D20021002070470000BD
:1038E0000000F0BF002300E05B1CCA5C002AC25449
:1038F000FAD17047C9B200E0401C02788A4202D077
:10390000002AF9D1002070471206130A1A43130C3B
:103910001A4300BF094205D083070BD00270401C38
:10392000491EF9D1704700001206130A1A43130CFE
:103930001A4300BF130030B414001500103902D32D
:1039400010393CC0FCD2490700D30CC000D504C0DC
:10395000890002D30280801C002900D5027030BC8F
:10396000704700000022D5E70022E3E710B402E030
:10397000401C491C521E002A0BD00B7804789C4234
:1039800005D002D20020C04304E0012002E0002C58
:10399000EED1002010BC704710B50400012001F0EA
:1039A000FFF9200001F006FA10BD30B401004B68A9
:1039B000802212061A4001201B031B0B4B600BD107
:1039C0000B68002B08D10DE00B686400DD0F254368
:1039D0004D605B000B60401E4C68E302F4D523038E
:1039E0001B0B4B604B681A434A6030BC7047FEE7C4
:1039F00042685200520D1F4B9A4209D14168090397
:103A000004D10068002801D10120704702207047CE
:103A100043685B0002D10368002B28D0164B9A1A2A
:103A2000521A012A23DB352A07DB4168802212065D
:103A3000114041600021016016E00121D306DB0E38
:103A40009940491E920608D542680A404168514093
:103A5000416003681343002103E003680B400168E1
:103A600059400160002B02D00020C0437047002065
:103A7000704700BFFF0700003304000080B5024814
:103A800001F09EF902BD00005C100020F0B40E00B1
:103A90005E400125ED072E40B446AE0ADF184C18F3
:103AA000F4423BD2F74241D2640D43D07F0D38D06F
:103AB000E41BC902DB0229432B43CF0ADB0A0600C1
:103AC000B61A9F4104D2641EB6197F41B6185F41F1
:103AD0006812800D24180018844222DAE80C0021B4
:103AE000B6197F41B61A9F4102D2B6185F413F1CFA
:103AF00040414941F4D3241C21DD2405B6197F41FE
:103B0000B61A9F4105D33743C60737430026012F16
:103B10007041614166463143F0BC7047FCD1F742C9
:103B200005D20020C14349054908F3E704D000202D
:103B3000C143F1E77F0DFAD000206146ECE7244253
:103B4000FAD1401C61410F03F6D30020E2E7FEE703
:103B500038B504000D0019A003C822002B00FEF7A1
:103B6000CFFF18A20CCAFFF7A7F822002B00FEF720
:103B7000C7FF16A20CCAFFF79FF822002B00FEF722
:103B8000BFFF14A20CCAFFF797F822002B00FEF724
:103B9000B7FF12A20CCAFFF78FF822002B00FEF726
:103BA000AFFF10A20CCAFFF787F822002B00FEF728
:103BB000A7FF0EA20CCAFFF77FF834BDF7DE29BFBE
:103BC000D8F8C23FF4B3FECC1A99C33F62CB68D990
:103BD0006F46C73FC6C912DAC471CC3F4AE98A941E
:103BE0002449D23FF75F97999999D93FBC555555CC
:103BF0005555E53FF1B586B014001D00C0C8300032
:103C0000390001F0DFF8694608802000290001F042
:103C1000D9F8009909B2002906D500284DD4022808
:103C200005D1069830C024E00229F8D121E000280F
:103C30000AD10022894B30003900FFF7C6FD0FD0B2
:103C4000069830C00020FFE0012814D10022804BEC
:103C500030003900FFF7B9FD02D0069830C04DE0C2
:103C6000FFF70CFF212101600020C0434108069AA4
:103C700003C20220E8E0009800B200280FD10698A5
:103C800030C00C99069801F0BBF8040002D0012C5A
:103C900000D0D8E0FFF7F2FE22210160D3E000223D
:103CA0006E4B30003900FFF790FD0DD12000290048
:103CB000FEF726FF069A03C220E0300039000022FA
:103CC000644BFFF794FD08D2002320002900FEF783
:103CD00017FF069A03C20020B6E001225E4BFFF7F1
:103CE0009FFD0DD800225D4B20002900FEF708FF44
:103CF000069A03C2FFF7C2FE222101600120A3E061
:103D000057A20CCAFEF7FCFE00220023FFF76FFD4E
:103D100001D2554B00E0644BFEF7CEFFFFF72CFDC0
:103D20000290FEF7AFFF6A4603C2684603C84FA27F
:103D30000CCAFEF7E5FE02000B0030003900FFF769
:103D40001EF806000F00684603C84AA20CCAFEF718
:103D5000D7FE02000B0030003900FFF710F8060014
:103D60000F0046A20CCAFFF75BFD07D80022454BA7
:103D7000FFF73DFD02D22000290054E032003B0055
:103D8000FEF7BEFE6A4603C2684603C83EA20CCADE
:103D9000FEF7B6FE3EA20CCAFEF78EFF02000B0035
:103DA000684603C8FEF7ACFE04AA03C2684603C80F
:103DB00039A20CCAFEF7A4FE39A20CCAFEF77CFF9A
:103DC00002000B00684603C8FEF79AFE0022364B3D
:103DD000FEF772FF02000B0030003900FEF790FE84
:103DE00006000F0004A80CC83000FEF765FF002293
:103DF000164BFEF761FF0090019104A803C8320042
:103E00003B00FEF7BCFF0022104BFEF755FF0200FF
:103E10000B0000980199FFF739FE02000B0020000B
:103E20002900FEF76DFE069A03C202980C9941180C
:103E3000069800F0E5FF040001D0012C03D1FFF744
:103E40001DFE22210160200007B0F0BD0000F03F00
:103E50000000F0FF00C89CC000C89C400000F07F3C
:103E6000FE822B654715F73F0000E0BF000000F819
:103E7000422EE63FF2E4D5BCE7E84B3EFEFFFFFFF3
:103E8000FFFF8FBC0000903C112E5781A03F503F98
:103E90005843128C8F71BC3F4BE8A541B752013F8C
:103EA0000BBDF3DAE8708C3F0000E03FF1B5A2B043
:103EB00014001D00049100200D900AE00498229A3D
:103EC00090470490002800D1C9E20D98401C0D9045
:103ED000641C2178002901D10D98C2E22529EDD179
:103EE00000200790089009900A900B900C9002E037
:103EF000010001200843641C21782029F8D02329DF
:103F00000ED02B2904D02D2907D030290BD00DE05D
:103F100001000220084380B2EDE701000420F9E728
:103F200001000820F6E701001020F3E72A290FD14D
:103F3000296829600A68091D29600F92002A05D5A1
:103F400051420F9101000420084380B2641C12E02A
:103F500000210F910AE00F9A754B9A4205D0930009
:103F60009A185200511830390F91641C21780A00B8
:103F7000303A0A2AEFD321782E2903D00021C943F1
:103F80000E911EE0641C21782A2907D12968296036
:103F90000A68091D29600E92641C12E000210E912E
:103FA0000AE00E9A624B9A4205D093009A1852008A
:103FB000511830390E91641C21780A00303A0A2ACF
:103FC000EFD302A908872678310058487844FF309B
:103FD0005D30FFF78FFC002801D0641C00E0002654
:103FE00002A83A30067002A83A300078682804D156
:103FF0002178682901D1622005E06C2807D120785A
:104000006C2804D1712002A93A310870641C12A8EE
:1040100006902678641C300025382AD01C3800D140
:10402000CFE0001F022800D8CBE0133800D1EEE02B
:10403000093800D1C5E0801E00D157E1401E00D1F3
:104040002FE1401E022800D8BBE0001F00D128E16C
:10405000401F00D186E0401E00D1D8E0401E26D08F
:10406000C01E0BD0801E00D1D1E0C01E00D1CEE01A
:1040700046E1252012A9087001204BE1286828603C
:104080000668001D286005960E9F002F03D530009E
:10409000FEF72EFD09E03A000021300000F03EFF5F
:1040A000002801D0801B00E03800089033E1286828
:1040B00028600268001D28600020C04300211040D5
:1040C00002AA03C212A80590069B3C2602A803C8B8
:1040D000002904D1002802D10E9A002A14D0761E9D
:1040E00001960207120F3032D2B23A2A00DB273291
:1040F0009A5500090A071043090901D1002803D085
:10410000059A9F19BA42EAD33C20801B089099195E
:1041100005910E9988420FDA081A0A9002A8008FBA
:104120000449014002A80187F5E000BFFC860000B9
:10413000FFFFFF7FEFFF0000002900D4EBE002A9A2
:104140003831097814220A40102A00D0E3E00F9990
:10415000079A891A0A9A891A0E1A012E00DADAE0E9
:104160000A96D8E002A83A300078622819D0682868
:1041700006D06A280CD06C281BD0712808D018E013
:10418000286828600168001D28600D980880C2E03A
:10419000286828600268001D28600D98C11703C2B6
:1041A000B9E0286828600168001D28600D98087033
:1041B000B1E0286828600168001D28600D9808603B
:1041C000A9E02A68D21D072082432A6003CA2A6018
:1041D00002AA03C2002902D507982D210AE002A8ED
:1041E000008F810702D507982B2103E0C00705D572
:1041F0000798202112AA1154401C079012A8079971
:1042000040180590310002A800F0FAF983E002A8F6
:104210003A3000786C280BD0712801D06A2807D179
:104220002A68D21D072082432A6003CA2A6005E05B
:10423000296829600868091D2960002102AA03C2B3
:1042400002A83A300078682803D102A803C880B2D7
:104250000BE0622803D102A803C8C0B205E07428AD
:1042600001D07A2804D102A803C8002102AA03C2FF
:1042700002A83830007800072FD502A803C800290B
:1042800001D1002829D020203043782825D1079853
:10429000302112AA1154401C411C079112A90E543E
:1042A0001BE0290002A83A30007800F0DCF802AAEE
:1042B00003C202A8002902DA07982D2109E0008F25
:1042C000810702D507982B2103E0C00705D5079881
:1042D000202112AA1154401C079012A807994018D7
:1042E0000590310002A800F0F2F814E001200790D8
:1042F000286828600168001D286012A801700AE083
:10430000252012A9087001200790002E03D012A8C2
:104310004670022007900F980799401A0A99401A90
:104320000899401A0B99401A0999401A0C99401A99
:10433000019002A838300078400711D42020694647
:104340000870019801280BDB019E01236A4602A92F
:10435000229800F00CFD002800D080E0761EF4D1F9
:10436000079F12AE002F0CD031780498229A904704
:104370000490002873D00D98401C0D90761C7F1E71
:10438000F2D13020694608700A9E012E09DB012314
:104390006A4602A9229800F0EAFC00285FD1761E46
:1043A000F5D1059E089F002F0CD031780498229AF1
:1043B00090470490002852D00D98401C0D90761C18
:1043C0007F1EF2D13020694608700B9E012E09DB5A
:1043D00001236A4602A9229800F0C9FC00283ED1B8
:1043E000761EF5D1059808994618099F002F0CD024
:1043F00031780498229A9047049000282FD00D9885
:10440000401C0D90761C7F1EF2D13020694608704A
:104410000C9E012E09DB01236A4602A9229800F0B6
:10442000A6FC00281BD1761EF5D102A838300078F2
:10443000400700D44DE52020694608700198012806
:1044400000DA46E5019E01236A4602A9229800F09F
:104450008EFC002803D1761E00D13AE5F3E7002058
:10446000C04323B0F0BD0A00622822D0682819D0CA
:104470006A2808D06C2823D0712804D074281FD053
:104480007A2808D01CE01368DB1D072083431360E3
:1044900003CB13607047116811600868091D116033
:1044A00000217047116811600868091D116000B291
:1044B0000BE0116811600868091D116040B204E04A
:1044C000116811600868091D1160C1177047F3B5C4
:1044D00083B0006900906846027C6F2A01D10824ED
:1044E00006E020211143782901D00A2400E010249D
:1044F0003C25039803C806000F00642A01D0692AEE
:1045000007D1002905DA00200021801BB9410600EF
:104510000F00002F12D1002E10D10398006B00283D
:104520000CD1082C3CD1039838300078000737D5DF
:104530003B25302000993B31087031E06D1E01951C
:10454000300039002200E31700F0F4FC3032D2B220
:104550003A2A03DB6846007C51381218009842550D
:10456000300039002200E31700F0E4FC06000F00E1
:1045700001D1002E05D00398C068009949198842DE
:10458000DCD3082C0CD1039838300078000707D50D
:104590000098405D302803D06D1E302000994855AA
:1045A0003C20401B0399886100994919039AD16006
:1045B0000399096B884209DA081A0399086203987B
:1045C000008F0E4901400398018715E0002913D59B
:1045D00003993831097814220A40102A0CD1039922
:1045E000496B039A5269891A039A126A891A0D1A39
:1045F000012D01DB0398056205B0F0BDEFFF00005F
:10460000F3B591B006AD03C802AA03C212A80078A0
:1046100020210143009161290BD01198006B0028E3
:1046200001D5062003E004D1672902D101201199A8
:104630000863119841684800400DAB4A904225D16B
:10464000080310D11198006800280CD1032011999B
:10465000886112A8007861381A2842D32348784428
:104660008A3000900BE003201199886112A800782D
:1046700061381A2831D31E487844743000900322E0
:1046800000991198C068FDF781F8F9E1012817DA5F
:104690001198FFF78AF9012812DB002700260098FD
:1046A000612832D11198C06830210170401C411C32
:1046B000119AD16012A9097861291FD178211EE0D1
:1046C00011994968894A0A4089491143119A5160F0
:1046D0008849461A0027FF43E1E70648784414302A
:1046E000CCE7054878441030BBE700BF508100009C
:1046F000448100003C81000040810000582101708D
:1047000011984069801C11994861002F03D1002441
:1047100068468780AAE10098612800D0A1E011983E
:10472000046B002C01D5212400E0641C24B2601C21
:104730000090119803C804AA03C202A803C800226B
:104740000023FFF754F804A803C802D280221206FF
:10475000514002AA03C2301F6946888000270F76A5
:1047600006AE761C0098012834DB02A803C800229C
:104770000023FFF755F82DD21C2102A800F040FBC2
:1047800002A803C8FEF7F8FF05000098C01F0090BC
:1047900001280ADB2800FEF775FA02000B0002A8C8
:1047A00003C8FEF7ECFA02AA03C2F61D072004E0D4
:1047B000761E2907090F31702D11012D01DB401ED6
:1047C000F6D5401E02D4761E3770FAE7F61D009823
:1047D0000128CADA06A8401C311A06AD6D1CA14298
:1047E00000DA0C0024B2200032D4884205DA06A98F
:1047F00009184978082900DB0F2706A9091801E0E4
:10480000641E491E401E0A78BA42F9D00F2F04D107
:1048100006A909184A78521C4A70002806D506AD28
:10482000641C019800B2001D6946888024B2601E95
:104830000ED429180A783032D2B23A2A03DB12ABEE
:104840001B783A3BD2180A70401E491E0028F1D549
:104850001198006B002800D408E1601E11990863CC
:1048600004E102A803C800220023FEF7C0FF06D21D
:1048700002A803C880221206514002AA03C236B21F
:1048800080487043804900F0A0FB6946888007207B
:10489000019909B2421A00207C49012A20DB0492C6
:1048A00002AA30CA00260F000498C00707D53200BC
:1048B0003B0020002900FEF723F904000D000498B6
:1048C000401004903000390032003B00FEF718F928
:1048D00006000F0004980028E6D102A830C028E0A6
:1048E000544200266A4F18E0FF070000FFFF0F80C8
:1048F0000000E03FFE030000E00707D504A803C85E
:1049000032003B00FEF7FCF806000F00641004A81C
:1049100003C804AA0CCAFEF7F3F804AA03C2002CC9
:10492000EAD102A803C832003B00FFF7AFF802AAA1
:1049300003C20098662803D1019800B20A3000E053
:1049400006201199096B08180490142801DB132024
:10495000049030206946087606AC641C049801284F
:1049600040DB02A803C8FEF719FF050008340594D0
:10497000042428000A2100F02BFB0F0028000A2144
:1049800000F026FB050030370598401E0770280010
:104990000A2100F01DFB0F0028000A2100F018FB7F
:1049A00005000598801E059030370770641EE0D121
:1049B000059C08340498083804900128CEDB02A82E
:1049C00003C8FEF7EBFEFEF767F902000B0002A832
:1049D00003C8FEF7D4F900222E4BFEF791F802AA85
:1049E00003C2BEE706A8401C201A06AD6D1C6A462D
:1049F00005E0401E019909B2491E91806D1C29787D
:104A00003029F6D00099662903D1019909B2491CD1
:104A100004E0652901D1012100E00021119A126B07
:104A2000541824B2A04200DA040024B221001DD49C
:104A3000814204DA685C352801DB392000E030204F
:104A40006A1800E0641E521E491E13788342F9D092
:104A5000392802D1685C401C6854002906D56D1EB7
:104A6000641C019800B2401C69468880019800B21D
:104A7000009023B22A0012A80178119800F00CF8D7
:104A800013B0F0BD97750000A0860100000024401F
:104A90000000F03F84D79741F3B589B014001D00A2
:104AA00000F007FB0090406A007869460872099898
:104AB000076B012D01DA0125ACA40AA8017820209A
:104AC0000843109E662801D1761C17E0672800D0A5
:104AD0009EE00321C9438E4200DA9DE0BE4200DB26
:104AE0009AE0761C099838300078000702D4BD425D
:104AF00000DA2F0036B2BF1B00D500270998C06826
:104B000001900998806901990918009136B2012E27
:104B10002CDA401C3021009A1170012F04DA099917
:104B200038310978090704D56946097A019A115480
:104B3000401C099988617042874200DA7E4236B291
:104B4000704209994862BF19AF4200DA3D002DB2A8
:104B50000998C5612A0021000198099B9B69C0182A
:104B6000FCF714FE781B09998862E0E0B54220DA70
:104B70002A0021000098FCF709FE09998969491962
:104B8000099A9161701B099A5062012F04DA099801
:104B900038300078000709D56846007A099AD2684B
:104BA00050540998C069401C0999C86109988762E6
:104BB000BDE0320021000098FCF7E8FD099880690B
:104BC0008019AD1B012F04DA0999383109780907DA
:104BD00005D56946097A099AD2681154401C099989
:104BE00088612DB2AF4200DA3D002DB22A00A11932
:104BF0000998C068099B9B69C018FCF7C7FD099814
:104C00008069401909998861781B099948628EE08A
:104C1000612914D1702015E0BD4205DA09993831B7
:104C20000978090700D42F007F1E00D500270AA8A5
:104C30000078672801D1652004E0452002E0412981
:104C400002D150200AA9087009988069411C099A6C
:104C50009161099AD26801922278019B1A54641CCE
:104C60000094012F04DA09983830007800071CD529
:104C7000481C099A90616A46127A019B5A54012F86
:104C800013DB6D1E2DB2AF4200DA3D002DB22A00BB
:104C90000099019B1818FCF779FD09988069401963
:104CA00009998861781B099948620998C06809992F
:104CB000896944180AA800782070300003D42B209A
:104CC0006070A41C03E02D216170A41C46420025E5
:104CD00005AF08E00A2203A800F006FA049838702D
:104CE000039E6D1C7F1C31B20129F3DA022D08DA14
:104CF0000AA8007820210143652902D130202070C4
:104D0000641C002D09D130202070641C07E06D1E4A
:104D100005A8405D30302070641C012DF7DA099839
:104D2000C068099989694018201A0999C8610998C9
:104D30003830007814210140102914D109984069B5
:104D40000999896940180999496A40180999C969F6
:104D500040180999896A40180999496B884202DA12
:104D6000081A099908620BB0F0BD00003000F1B5D7
:104D70000E0014000027002B0FD01D002178B06812
:104D8000009A9047B060002806D0F06A401CF0629C
:104D9000641C6D1E01D0F1E7FF433800F2BDFEE751
:104DA00010B50400024800F00BF8A100405810BDF7
:104DB00068100020010041391A2900D220307047C4
:104DC0007047FEE702004800400D0C4B98420CD0A3
:104DD000002801D0002004E00803000B024302D0A9
:104DE0000120C0437047002070470803000B0243B6
:104DF00001D0022070470120704700BFFF0700006C
:104E000070B504000D0060684000400D3F4EB04298
:104E100007D16068000302D12068002816D0022064
:104E200070BD002804D12000FEF7BFFD01286BDA19
:104E3000012D0DDB311A8D420AD36068002802D59E
:104E40000020334901E00020310503C4012070BD7A
:104E50004142A942616806DA2E4A0A402818000534
:104E60001043606047E0802212061140626812031E
:104E7000120B80235B0313436360401E2D18002038
:104E80002A003532352A02D36160206070BD0022CD
:104E90001E23DB439D4204DA2035226863682360C9
:104EA0006060684211D0521E9241D243D20F20233B
:104EB0001B1A25689D402A432568C54066689E40A8
:104EC0002E4326606368C340636060680843606087
:104ED0001148824206D28020000682420ED12078FC
:104EE000C0070BD52068401C20602068002805D131
:104EF0006068401C60600020C04370BD60688842EC
:104F0000F9D120680028F6D1002070BDFF0700000D
:104F10000000F0FFFFFF0F8001000080C9B201E038
:104F2000401C521E002A03D003788B42F8D17047F0
:104F300000207047124224D0994228D970B500252C
:104F40001B4202D00C00002109E000240126491870
:104F50006441944200D3A41A7641F8D3310001266B
:104F600001E0764109D2001864416D41A41A9D41C7
:104F7000F7D2A4185D41B619F5D3300022002B00FA
:104F800070BD1B42D8D108B500F0BEF808BD01D1F4
:104F90009042D3D202000B00002100207047F4465B
:104FA000002804D4494200F013F8404260474042D0
:104FB000002905D45FD000F00BF840424942604719
:104FC000494200F005F84942604703460B43E6D4E6
:104FD0000022030A8B420BD203098B4219D24308E9
:104FE0008B422ED2411A00D20146524110467047E0
:104FF000FF2209023FD012068B4205D3121209028A
:105000008B4201D31212090203098B4219D300E02B
:10501000090AC3098B4201D3CB01C01A524183094B
:105020008B4201D38B01C01A524143098B4201D3F9
:105030004B01C01A524103098B4201D30B01C01A24
:105040005241C3088B4201D3CB00C01A524183089E
:105050008B4201D38B00C01A524143088B4201D3CB
:105060004B00C01A5241884200D3401A5241CFD25D
:1050700001461046704708B500F048F808BDFEE745
:1050800080B51248FFF79CFE11A10160416081606C
:10509000C1600161416181610EA242628162C162AF
:1050A000016341630CA282630DA2C2630164416487
:1050B00001BD10B50548FFF783FE040020680028F5
:1050C00001D1FFF7DDFF200010BD0000D41000204B
:1050D000000000002E00000066616C736500000097
:1050E00074727565000000007CB504000E001500A8
:1050F00030002900FFF769FF00904543701B0190C5
:10510000684603C803C476BD7047FEE77047FEE7F4
:1051100007B5062201A9800201F023F803B000BD03
:10512000012080F310887047002080F310887047BA
:1051300080204004BB490860704780204004BA4981
:105140000860704780B500BF01A001F00FF9FEE7CD
:10515000434F4E464C4943542049502066726F6D70
:1051600020444843500D0A0010B5B04CA01D01F07A
:10517000B0FF20000E3001F0B6FF20000A3001F031
:10518000BFFF2000123001F0C5FF0220A07500F023
:1051900019F801F0C9FF010002A001F0E7F800F0E2
:1051A0000FF910BD44484350204C4541534544201D
:1051B00054494D45203A202564205365632E0D0A3D
:1051C0000000000010B58CB003A80021002206C02A
:1051D0009649002002F09EF805A9012002F09AF8F5
:1051E00003A9082001F0EEFF05ACA07D022803A969
:1051F00002D100BF1BA000E022A001F0B7F8607947
:10520000029020790190E0780090A378627821786C
:1052100025A001F0ABF8607A0090237AE279A179B9
:105220002BA001F0A3F8607C0090237CE27BA17BA3
:105230002CA001F09BF8607B0090237BE27AA17A9E
:105240002DA001F093F8607D0090237DE27CA17C8D
:105250002EA001F08BF800BF31A001F087F80CB050
:1052600010BD00000D0A3D3D3D202573204E4554E4
:1052700020434F4E46203A2044484350203D3D3D78
:105280000D0A00000D0A3D3D3D202573204E45547A
:1052900020434F4E46203A20537461746963203D89
:1052A0003D3D0D0A000000004D41433A20253032BB
:1052B000583A253032583A253032583A253032584B
:1052C0003A253032583A253032580D0A0000000095
:1052D0005349503A2025642E25642E25642E2564DA
:1052E0000D0A00004741523A2025642E25642E25E0
:1052F000642E25640D0A00005355423A2025642E81
:1053000025642E25642E25640D0A0000444E533A70
:105310002025642E25642E25642E25640D0A0000A8
:105320003D3D3D3D3D3D3D3D3D3D3D3D3D3D3D3DAD
:105330003D3D3D3D3D3D3D3D3D3D3D0D0A000000B7
:1053400038B501F085FD040019D0801E02282BD845
:10535000A04DA81D01F0BDFE28000E3001F0C3FED7
:1053600028000A3001F0CCFE2800123001F0D2FEF5
:105370000220A8752900002001F0CCFF14E0954D13
:10538000697E491C6976C9B208A000F0EFFF687E0B
:105390000B2809DB0120A8750020687601F014FEB7
:1053A000FFF710FF00F00CF8200032BD3E3E204415
:1053B000484350202564204661696C65640D0A00ED
:1053C00030B583B0194C21004031012002F00DFBB3
:1053D000814D2A00083221002C312000123002F0C9
:1053E0000AFB012811DB00BF11A000F0BFFFE87A23
:1053F0000190A87A00906B7A2A7A2C34210000BFA1
:1054000011A000F0B3FF03B030BD0021C9438842B2
:1054100004D100BF15A000F0A9FFFEE722A000F014
:10542000A5FFFEE70C05005008050050CC07002042
:105430003E2031737420444E53205265706F6E735A
:1054400065640D0A000000003E205472616E736CAA
:105450006174656420257320746F2025642E256493
:105460002E25642E25640D0A000000003E204D41CB
:10547000585F444F4D41494E5F4E414D4520697341
:1054800020746F6F20736D616C6C2E2053686F7584
:105490006C64206265207265646566696E6564206F
:1054A00069742E0D0A0000003E20444E53204661D0
:1054B000696C65640D0A0000F8B54848454C4168C0
:1054C000090A2170416861700168090EA1700168C4
:1054D000090CE1700168090A217100686071207887
:1054E000C10701D5401C20703D4D8026F6046E603A
:1054F000FA20400000F02AFF2E60FA27FF00380053
:1055000000F024FFBB49BC4801F02FFEBB49BC485A
:1055100001F039FEBB49BC4801F043FE0026F643CA
:1055200021001C31012001F04DFEB0420BD100BF23
:105530002CA000F01BFFBFF34F8FB448B4490860A4
:10554000BFF34F8FFEE7002572B669460F2001F0CA
:1055500039FEB04203D100BF29A000F007FF684622
:105560000078002810D100BF2CA000F0FFFE38000A
:1055700000F0ECFE6D1CEDB2022D05DB0120207663
:105580002BA000F0F3FE03E0684600780028DCD092
:1055900062B6207E002802D12CA000F0E7FE207E1B
:1055A000002810D1062221009020000102F000FB0B
:1055B00040342100002001F04BFD9648964A01003E
:1055C00000F0F8FF03E000BF26A000F0CFFE0020AF
:1055D000F2BD0000CC070020A001002060000010F8
:1055E0000805005057495A4348495020496E69748C
:1055F00069616C697A6564206661696C2E0D0A00C8
:10560000556E6B6E6F776E20504859204C696E6BEB
:10561000207374617574732E0D0A00005048592070
:105620004C696E6B204F46462121210D0A00000077
:105630000D0A204E4554204368616E676520746FE3
:105640002047505253200D0A0000000020504859B6
:10565000204C696E6B20537563636573732E0D0A5E
:10566000000000004750525320494E4954200D0A73
:10567000000000007CB50400FCF78EFC050009D199
:10568000FCF7BCF8010000BF64A000F06FFE002032
:10569000C04376BD2000FDF72BFA010064A000F0A6
:1056A00065FE05222100684602F05AFBB04C4121FC
:1056B0006846FEF71FF900281DD000BF63A128002F
:1056C000FDF78EF90600F068032806D17069207393
:1056D000217B00BF5FA000F049FE00BF60A1280051
:1056E000FDF77EF9C168042905D10169A16600BFF3
:1056F0005EA000F03BFE52216846FEF7FBF8002852
:105700000FD000BF5DA12800FDF76AF90600F06820
:10571000032806D170696073617B00BF5AA000F056
:1057200025FE43216846FEF7E5F800285DD000BF5E
:1057300059A12800FDF754F90600FE20400200F0B0
:10574000FFFCF068032806D17069A073A17B21706B
:1057500053A000F00BFE00BF54A12800FDF740F954
:10576000C168032907D14069E073E17B617000BF24
:1057700051A000F0FBFD00BF53A12800FDF730F958
:10578000C168032907D140692074217CA17000BF42
:105790004FA000F0EBFDD2492800FDF721F9C168C8
:1057A000032906D140696074617CE1704CA000F06F
:1057B000DDFD00BF4EA12800FDF712F9C1680329E5
:1057C00007D14069A074A17C217100BF4BA000F0FB
:1057D000CDFD03CC083C0A0001007F20FFF798FCB8
:1057E000002020602071012060712800FCF71CF867
:1057F000002076BD29510000215100003B510000DE
:1058000031510000B5640000DD6400000400FA05B9
:105810000CED00E069510000455100004572726FC7
:1058200072206265666F72653A2025730A00000077
:105830005374725F6C656E206F6620526573764498
:10584000617461203A2025640D0A0000416C617288
:105850006D000000416C61726D3A2025640A000001
:10586000416C61726D44617461000000416C617251
:105870006D4461746120A3BA25730A0052656164A6
:105880005F64617461000000526561645F6461740B
:10589000613A2025640A00004379636C65000000CA
:1058A0004379636C653A2025640A0000416C61729B
:1058B0006D54696D65000000416C61726D54696DD5
:1058C000653A2025640A00004368616E6E656C00CD
:1058D0004368616E6E656C20A3BA25640A000000FF
:1058E00053656E736F724E756D20A3BA25640A00FE
:1058F00053656E736F724379636C650053656E73A5
:105900006F724379636C6520A3BA25640A000000B6
:10591000F8B5070000243E68724D812189002800F7
:10592000FEF722F804E08068005D00F063FD641C6F
:10593000786841688C42F6D3B168F268EA60280062
:105940001030FBF723FF2900103100BF04A000F046
:105950000DFD28001030FFF78DFE01202870F1BDED
:10596000204D6573736167653A2025730D0A000049
:10597000A0010020F0B597B0D74C5B482618002155
:10598000300002F022FA00BF5EA000F0EFFC72B619
:105990007920207259206072AA20A0723520E0720E
:1059A000524D2A0021000831300002F04EFA0195D4
:1059B000E07A0090A37A627A217A00BF56A000F0C4
:1059C000D5FCB820C00027180A20029020009C3087
:1059D00001909620C00000902300A833FA22920084
:1059E0003100380002F073FAFA20400000F0AEFCFB
:1059F000684600BF4FA15822FBF7DCFE6846002135
:105A0000C1760321017200BF60A1039138A11091FA
:105A100013913C210183012585766946380002F007
:105A2000E1FB010002D000BF5CA002E0002100BF4A
:105A300064A000F09BFC2F4826182F493000FDF78A
:105A400009FF2E49300002F03AFD00BF62A102F0CA
:105A500036FD310063A000F089FC294B00223100A3
:105A6000380002F03FFC010063A000F07FFC00F072
:105A700037FA0600310000BF63A000F077FC062271
:105A8000FE2149022000FBF781FE60782178002981
:105A900017D1002815D1A278002A12D1E278002A65
:105AA0000FD12279002A0CD16279002A09D1257000
:105AB0000A2060701E20A0707820E07023202071E2
:105AC00007E0A173E073A0782074E0786074207917
:105AD000A07402F009FF62B6300017B0F0BD0000FC
