:10000000781C002051DA0000436700006F8D00006B
:1000100000000000000000000000000000000000E0
:1000200000000000000000000000000073910000CC
:100030000000000000000000839300008FA8000073
:10004000B3AB000091D2000051B90000458A000016
:100050000FAC000000000000D9D600000BAE00007D
:100060002BD7000055D700008FD70000ABAE0000A3
:1000700033B900002FDB00003BDB000061DB000038
:10008000B18A000063DB000065DB000067DB000075
:1000900069DB00006BDB00006DDB00006FDB000044
:1000A00071DB000073DB00000000000000000000B6
:1000B0000000000000000000000000000000000040
:1000C0000EB400B51A2201A9800201F0F8FC0098D4
:1000D00004B00047F8B5A24C1A22FC2149022000C6
:1000E00001F024FD60782178FF2937D1FF2835D130
:1000F000A278FF2A32D1E278FF2A2FD12279FF2A73
:100100002CD16279FF2A29D1052020700A20607045
:100110003C21A1707821E1702071904D04222900CA
:100120008431A01D01F002FD042229008831200045
:100130000A3001F0FBFC042229008C3120000E3033
:1001400001F0F4FC0422290090312000123001F06B
:10015000EDFC688CE082A88C208328E07F4D297715
:100160006877A078A877E078E8772079202168542C
:100170000422A11D2800843001F0D8FC04222100B3
:100180000A312800883001F0D1FC042221000E3110
:1001900028008C3001F0CAFC042221001231280012
:1001A000903001F0C3FCE08A6884208BA884B34FB0
:1001B000B34EA279B271A07CB072A07AB073A07B6A
:1001C0003870208BE884E08A78810021AD4801F006
:1001D000A9FDB27B0021AC4801F0A4FDE279F271E7
:1001E000E07CF072E07AF073E07B7870208BE8843A
:1001F000E08A78810121A34801F094FDF27B01217E
:10020000A14801F08FFD227A3272207D3073207B6D
:100210003074207CB870208BE884E08A78810221D9
:1002200015A001F07FFD327C022100BF19A001F072
:1002300079FD627A7272607D7073607B7074607C2D
:10024000F870208BE884E08A788103210AA001F00D
:1002500069FD727C032100BF0EA001F063FDA0794F
:10026000FF2800D07871E079FF2800D0B871207A9B
:10027000FF2800D0F871F1BD6757495A4E455449DF
:100280004E464F2E69705B25645D2069732025649E
:10029000200D0A006757495A4E4554494E464F2E85
:1002A00047575B25645D206973202564200D0A0093
:1002B0000FB410B584B072486946097E817106A9F1
:1002C0000979817306A94978C17106A94979C17371
:1002D00006A98978017206A98979017406A9C978E5
:1002E000417206A9C979417406A9097D8175FC206E
:1002F000400201F0D3FB1A4C042206A9A01D01F014
:1003000015FC042206A9083120000E3001F00EFC75
:10031000042206A90C312000123001F007FC04224F
:1003200006A9091D20000A3001F000FC06A8408A39
:10033000E08206A8008A20830AA001F0F3FC2100D5
:1003400083B068461C2201F005FC0EBC7E20FFF73E
:10035000B7FE04B0019810BC05B00047E4030020CC
:10036000943C0020D0B4C8EB666C617368CAFDBED3
:10037000DDA3A1200D0A000070B504002078400123
:10038000C2218900401801F0A9FD00285FD0132880
:1003900004D017281AD01C283CD070BD3848C07F24
:1003A00000286AD19E4801F0BDFCE288611C2078DB
:1003B00001F0B7FF040021009A4801F0B3FC012CC2
:1003C0005BD0FA20800001F09DFC70BD8225AD005D
:1003D0002B4EF07F002811D120784001401901F008
:1003E0007DFDC006C00E012808D18F4801F09AFC9F
:1003F0000120F0770121280001F09AFD20784001CA
:10040000401901F06BFDC00737D50121280001F02C
:100410008FFD70BD854801F085FC207802F004F85E
:1004200001280AD019A001F07DFCBFF34F8F80484E
:1004300080490860BFF34F8FFEE77F4801F072FCF0
:1004400000200F49C877207801F031FF70BD00BF50
:1004500015A001F067FC00200949C8772123E28834
:100460000121207801F09AFE2178884202D000BF55
:1004700012A000E018A001F055FC70BD8C12002005
:10048000441200207802000094020000C1ACBDD3E9
:10049000B9D8B1D5CAA7B0DCA3ACD7BCB1B8D6D84F
:1004A000C6F40D0A00000000D7BCB1B8B4F2BFAA70
:1004B0005735353030B6CBBFDA0D0A00B6CBBFDAD0
:1004C000B4F2BFAAB4EDCEF3A3ACD7BCB1B8D6D8C2
:1004D000C6F40D0A00000000B4F2BFAAB6CBBFDA22
:1004E000B3C9B9A60D0A0000F2B588B00021069183
:1004F00005910490049800782E2802D030380A28FC
:1005000037D30124059F7F1E049D6D1E0898069910
:10051000401807902E782E2E27D0002F20D4079831
:10052000007802F083FA02900391303E300002F02E
:1005300073FA00900191601E02F06EFA02000B0047
:1005400000203E4902F0F0FC009A019B02F004FFFB
:10055000029A039B02F0C2FF03F09AF80799087011
:10056000641C6D1E7F1E042CD4DB0698401CC0B298
:1005700006900698042808DA0598401C059004980F
:10058000401C049005981028B4DB09B0F0BDF0B50C
:1005900085B0070000260025002400E0761C380006
:1005A00003F09FF8F6B2864203D2B85D0D28F5D16C
:1005B000340004940024E44304983F1823E0A8B2D4
:1005C00002F034FA02900391303E300002F024FA37
:1005D00000900191200002F01FFA02000B000020A1
:1005E000164902F0A1FC009A019B02F0B5FE029AA6
:1005F000039B02F073FF03F04BF805000498401EC4
:1006000004907F1E641C0498002806D43E783000B5
:1006100030380A28F2D20D2ED1D1A8B205B0F0BDE3
:1006200060CA000074CA00008CCA00009CCA0000A6
:100630000400FA050CED00E0ACCA00000000244004
:10064000F1B584B002A8002101600025DCE0049827
:1006500046193078532820D1707849281DD1B078B8
:1006600050281AD1BD4801F05DFB0020311DBC4A65
:100670000B78472B11D013704B78472B0DD053704C
:100680008B78472B09D09370CB78472B05D0D3704C
:10069000001D121D091D1428EAD3307847281CD1EB
:1006A0007078572819D1AF4801F03CFB0020F11CAD
:1006B000AD4A0B78592B02D14F78492F0DD01370CA
:1006C000401C4B78592B02D18F78492F05D053709D
:1006D000401C921C891C1428EBD3307859281FD158
:1006E000707849281CD1B078502819D19F4801F062
:1006F00019FB0020311D9E4A0B78592B02D14F78EF
:10070000502F0DD01370401C4B78592B02D18F788D
:10071000502F05D05370401C921C891C1428EBD319
:100720003078592825D17078502822D1B0784F28B8
:100730001FD1F07852281CD13079542819D18D4816
:1007400001F0F0FA0020B11D8B4A0B78532B02D137
:100750004F784E2F0DD01370401C4B78532B02D185
:100760008F784E2F05D05370401C921C891C142882
:10077000EBD3307853281CD170784E2819D17F489C
:1007800001F0D0FA0020F11C7D4A0B78532B02D1E6
:100790004F78502F0DD01370401C4B78532B02D143
:1007A0008F78502F05D05370401C921C891C142840
:1007B000EBD33078532825D17078502822D1B078E7
:1007C0004F281FD1F07852281CD13079542819D1E4
:1007D0006C4801F0A7FA0020B61D6B493278452A13
:1007E00002D173784E2B0DD00A70401C7278452AC6
:1007F00002D1B3784E2B05D04A70401C891CB61C20
:100800000A28EBD36D1CEDB2049802F06AFF854212
:1008100000D21CE702A8002101605C4D29001831BC
:100820005B4801F07FFA02A928001830FFF75CFE50
:1008300002AC2178574801F075FA6178564801F00A
:1008400071FAA178554801F06DFAE178544801F049
:1008500069FA02A8016829600021016029002C3191
:10086000504801F05FFA02A928002C30FFF73CFE47
:1008700021784D4801F056FA61784C4801F052FA5F
:10088000A1784B4801F04EFAE1784A4801F04AFA63
:1008900002A9281D0A68026002A80021016029003F
:1008A0004031454801F03EFA02A928004030FFF7E8
:1008B0001BFE2178414801F035FA6178B94801F012
:1008C00031FAA178B84801F02DFAE178B74801F083
:1008D00029FA02A9280008300A68026002A800214B
:1008E000016029006831C04801F01CFA02A9280003
:1008F0006830FFF7F9FD217831A001F013FA617833
:10090000BD4801F00FFAA178C54801F00BFAE17873
:1009100032A001F007FA02A928000C300A68026030
:1009200028005430FFF733FE2882010032A001F086
:10093000F9F928007C30FFF72AFE0100698200BF28
:1009400033A001F0EFF9290084B06846182201F0C5
:1009500001F90FBCFFF7ACFC05B0F0BDBCCA00004C
:10096000B0120020D4CA0000C4120020ECCA00005B
:10097000D812002004CB0000EC12002020CB000095
:100980000013002038CB0000141300209812002020
:1009900050CB000064CB000080CB00009CCB00005B
:1009A000B8CB0000D4CB0000ECCB000008CC00009A
:1009B00024CC000040CC00005CCC000074CC0000D3
:1009C000534E5F446174615F53747244617461207B
:1009D0005B305D202564200D0A000000534E5F440B
:1009E0006174615F53747244617461205B335D2094
:1009F0002564200D0A000000B7FECEF1C6F7B6CB85
:100A0000BFDACAFDBEDDCAC7202564200D0A00007A
:100A1000C4BFB1EABEB2CCACB6CBBFDACAFDBEDD54
:100A2000CAC7202564200D0A00000000F0B59BB065
:100A3000050068468A490CC90CC0642102F08EFE8C
:100A4000002472B62123EA880121287801F0A6FB50
:100A500006002878834F86424DD14001C22189008B
:100A6000401801F03BFA387F002806D0EA88691C5C
:100A7000287801F056FC06003C77F87F00283AD130
:100A8000002E02D0012E00D089E0B87F002800D0CF
:100A900085E0FA20400001F035F928784001C221B4
:100AA0008900401801F01AFA0600287840018221D6
:100AB0008900401801F012FAC006C00E01280BD1BF
:100AC000172E09D19B4801F02DF9F87F002812D18B
:100AD0002800FFF751FCF8E7974801F023F9287840
:100AE00001F0A2FC012802D0944801F01BF9FC7728
:100AF000287801F0DCFBF87F002850D0904801F006
:100B000011F902AF03E002A8FFF79AFD0024642167
:100B100002A802F023FE684602F0E3FD82B26946B5
:100B2000287801F0CBFC002C27D1287801F09EFA20
:100B3000020002A9287801F051FD02A9BD4801F088
:100B4000F1F8FA20400001F0DDF8002602A802F0DA
:100B5000C8FD8642E7D2B819017845290AD1417803
:100B60004E2907D18078442804D100BF10A001F09D
:100B7000D9F80124761CF6B2E8E738785728C2D0B5
:100B80005228C3D04328C2D1AB4801F0BBF8BFF311
:100B90004F8FAA48AA490860BFF34F8FFEE762B69D
:100BA0001BB0F0BD90CC0000ACCC0000C8CC000065
:100BB000200D0A20BDD3CAD5CAFDBEDDB3C9B9A672
:100BC000A3A1A3A1200D0A2021212000012080F350
:100BD00010887047002080F3108870478020400400
:100BE000B349086070470000E4CC00008020400456
:100BF000B049086070470000FCCC000080B500BF21
:100C000001A001F08FF8FEE7434F4E464C49435494
:100C10002049502066726F6D20444843500D0A00F1
:100C200018CD000010B5A44CA01D03F070FB2000EF
:100C30000E3003F076FB20000A3003F07FFB20002B
:100C4000123003F085FB0220A07500F01DF803F0C0
:100C500089FB010004A001F065F800F0FDF810BD6B
:100C600034CD00004412002044484350204C4541FC
:100C70005345442054494D45203A2025642053656E
:100C8000632E0D0A0000000030B58BB003A80021D0
:100C9000002206C0884D2900002003F059FC05A958
:100CA000012003F055FC03A9082003F0A9FB05ACC3
:100CB000A07D022803A904D1804801F033F8012067
:100CC00004E000BF1FA001F02DF80020A877607994
:100CD000029020790190E0780090A37862782178E2
:100CE000774801F01FF8607A0090237AE279A179C1
:100CF0001DA001F017F8607C0090237CE27BA17BB3
:100D00001EA001F00FF8607B0090237BE27AA17AAD
:100D10001FA001F007F8607D0090237DE27CA17C9C
:100D2000684800F0FFFF00BF1EA000F0FBFF0BB003
:100D300030BD00003CCD00009CCA0000ACCA0000E1
:100D400054CD00000D0A3D3D3D202573204E4554F5
:100D500020434F4E46203A20537461746963203D0E
:100D60003D3D0D0A000000005349503A2025642EF5
:100D700025642E25642E25640D0A00004741523A51
:100D80002025642E25642E25642E25640D0A00007E
:100D90005355423A2025642E25642E25642E256461
:100DA0000D0A00003D3D3D3D3D3D3D3D3D3D3D3D50
:100DB0003D3D3D3D3D3D3D3D3D3D3D3D3D3D3D0D93
:100DC0000A00000038B503F061F9040019D0801E54
:100DD00002282DD8384DA81D03F099FA28000E30AE
:100DE00003F09FFA28000A3003F0A8FA2800123016
:100DF00003F0AEFA0220A8752900002003F0A8FB3A
:100E000016E02D4D2020295C491C2954C9B200BF91
:100E10000CA000F087FF2020285C002808D00120CB
:100E2000A87500202035287003F0ECF9FFF72CFF9F
:100E3000200032BD6CCD0000881300000400FA05CC
:100E40000CED00E03E3E20444843502025642046FF
:100E500061696C65640D0A001CB51B49012003F033
:100E6000E2FE154C220018322100343120001230ED
:100E700003F0DFFE01280FDB14A000F053FFE07E3B
:100E80000190A07E0090637E227E3434210000BF5A
:100E900014A000F047FF13BD0021C943884203D1CD
:100EA00019A000F03FFFFEE7A54800F03BFFFEE77A
:100EB0000C050050080500504412002080CD0000B1
:100EC000A0CD0000C8CD0000300A00203E203173C4
:100ED0007420444E53205265706F6E7365640D0A22
:100EE000000000003E205472616E736C6174656492
:100EF00020257320746F2025642E25642E25642EF2
:100F000025640D0A000000003E204D41585F444F0B
:100F10004D41494E5F4E414D4520697320746F6FBE
:100F200020736D616C6C2E2053686F756C64206249
:100F300065207265646566696E65642069742E0D4E
:100F40000A000000F8B57F487F4C4168090A21700B
:100F5000416861700168090EA1700168090CE170B7
:100F60000168090A2171006860712078C10701D504
:100F7000401C2070FFF7AEF8744D8026F6046E60BA
:100F8000FA20400000F0BEFE2E60FA27FF00380075
:100F900000F0B8FE6E496F4803F005FA6E496F48DD
:100FA00003F00FFA6E496F4803F019FA0026F64372
:100FB00021002431012003F023FAB0420AD16A480B
:100FC00000F0B0FEBFF34F8F684869490860BFF377
:100FD0004F8FFEE7002572B669460F2003F010FA26
:100FE000B04202D1634800F09DFE684600780028B8
:100FF00000D07DE0604800F095FE380000F082FEF1
:101000006D1CEDB20A2D73DB012060775B4800F0A8
:1010100089FE5B4D1A22FE214902280000F086FD60
:1010200068782978FF2936D1FF2834D1AA78FF2A99
:1010300031D1EA78FF2A2ED12A79FF2A2BD16A7979
:10104000FF2A28D1052028700A2068703C21A97049
:101050007821E9702871042229008431A81D00F04C
:1010600065FD04222900883128000A3000F05EFD69
:10107000042229008C3128000E3000F057FD042294
:10108000290090312800123000F050FD688CE88271
:10109000A88C288327E029776877A878A877E8784C
:1010A000E8772879202168540422A91D280084307B
:1010B00000F03CFD042229000A312800883000F0AD
:1010C00035FD042229000E3128008C3000F02EFD61
:1010D0000422290012312800903000F027FDE88A10
:1010E0006884288BA88400BF26A000F01BFE04E0C3
:1010F00068460078002800D16EE762B6607F00285D
:1011000003D100BF25A000F00DFE607F00280FD1A5
:10111000062221009020000100F068FFAB4900206A
:1011200003F0B4F8AA48AB4A010002F061FB02E008
:1011300020A000F0F7FD012020770020F2BD000084
:1011400044CE00006000001044120020080500504A
:10115000D50B0000CD0B0000ED0B0000DD0B0000F7
:101160006D1E0000951E0000DCCD00000400FA0595
:101170000CED00E0F8CD000014CE000028CE0000F9
:10118000E40300200D0A204D51545420B2CECAFD74
:10119000BBF1C8A1A3A1200D0A00000020504859AE
:1011A000204C696E6B20537563636573732E0D0A53
:1011B000000000004750525320494E4954200D0A68
:1011C0000000000070B586B0040004F055F9050079
:1011D00008D103F083FD01007F4800F0A3FD00204B
:1011E000C043A9E0200002F07CFA01007B4800F037
:1011F00099FD0522210004A804F0EAFE412104A87B
:1012000004F0F8FE00281BD07549280004F058FEB1
:101210000600F068032806D17248716901700178F0
:10122000714800F07FFD7149280004F049FEC16853
:10123000042905D101696B4841606D4800F072FDD9
:10124000522104A804F0D6FE00280ED069492800D7
:1012500004F036FE0600F068032806D16148716983
:1012600041704178644800F05DFD432104A804F01A
:10127000C1FE00285CD06149280004F021FE060070
:10128000FE20400200F00AFC5D4CF068032806D105
:1012900070692077217F21705A4800F043FD5A4938
:1012A000280004F00DFEC168032906D1406960776B
:1012B000617F6170554800F035FD5549280004F004
:1012C000FFFDC168032906D14069A077A17FA17005
:1012D000504800F027FDC249280004F0F1FDC16824
:1012E000032906D14069E077E17FE17013A000F0A7
:1012F00019FD00BF15A1280004F0E2FDC168032913
:1013000007D1406920216054615C217112A000F076
:1013100009FD210083B068461C2200F01BFC0EBCB6
:101320007F20FEF7CDFE002020602071012060713B
:10133000280003F0E9FC002006B070BD53656E7311
:101340006F724E756D20A3BA25640A0053656E73E3
:101350006F724379636C650053656E736F72437986
:10136000636C6520A3BA25640A000000F8B5070085
:1013700000243E689B4D81218900280002F0EEF98F
:1013800004E08068005D00F011FD641C786841682D
:101390008C42F6D3B168F268EA602800103000F0A1
:1013A000C5FB2900103100BF04A000F0BBFC2800E1
:1013B0001030FFF707FF01202870F1BD204D657345
:1013C000736167653A2025730D0A0000300A00201A
:1013D000250C0000FD0B000054CE000068CE00007C
:1013E00084CE0000283D00208CCE000098CE000066
:1013F000A4CE0000B4CE0000C0CE0000D0CE0000CD
:10140000E4030020D8CE0000E4CE0000F0CE0000BF
:1014100000CF000008CF0000F0B597B0C84C72486C
:1014200026180021300004F012FE704800F07AFC0B
:1014300072B66F4DE28C2900300004F048FEE08C5B
:101440000190E8780090AB786A782978694800F0D4
:1014500069FCBC20C00027180A2002902000BC3084
:1014600001909620C00000902300C833FA22920019
:101470003100380004F06DFEFA20400000F042FC1C
:1014800068465D49582200F065FB68460021C17638
:10149000032101725949039159A1109113913C25DF
:1014A0000583012181766946380004F0DDFF0100E3
:1014B00001D0544801E00021534800F033FC534868
:1014C00026185349300005F03DF95249300005F027
:1014D00055F9514905F052F93100504800F022FC0D
:1014E0004F4B00223100380005F03EF80100BB48A8
:1014F00000F018FC00F0A4F906003100B84800F034
:1015000011FC1A22FE214902200000F00FFB607836
:101510002178FF2935D1FF2833D1A278FF2A30D195
:10152000E278FF2A2DD12279FF2A2AD16279FF2A77
:1015300027D1052020700A206070A5707821E17005
:101540002071042221008431A01D00F0EFFA042252
:101550002100883120000A3000F0E8FA042221003E
:101560008C3120000E3000F0E1FA0422210090318D
:101570002000123000F0DAFA608CE082A08C208328
:1015800027E021776077A078A077E078E07720796E
:10159000202160540422A11D2000843000F0C6FAEE
:1015A000042221000A312000883000F0BFFA042212
:1015B00021000E3120008C3000F0B8FA0422210006
:1015C00012312000903000F0B1FAE08A6084208B64
:1015D000A08405F0E7FA62B6300017B0F0BD000055
:1015E000E41700004C3600203C06000060CA0000F2
:1015F0008C12002018CF0000BCD0000034CF0000B7
:101600000000000044CF00006CCF0000AC050000DB
:10161000341A0000C403002080CF00008CCF0000EB
:101620006D130000F0B5E5B004000D0004F0BFFC40
:101630000600002C03D0022C69D04DD3CBE0404CE7
:10164000E07F002802D19E48007CE0779D4FFF217B
:101650009231380002F082F8C820400002009A4916
:101660006843081899494118380000F05FFA0020D3
:10167000C82149007854964904F06EFC020095494F
:10168000300004F052FCA8004019C000273801F0D7
:10169000C3F904F061FC02008F49300004F045FCFE
:1016A000380004F071FC02008C49300004F03DFC6D
:1016B000300003F0E7FE05002900894800F032FB06
:1016C0003900884800F02EFB280002F00AF80100DB
:1016D00080342160844875E000F048FB01F0A6F9F1
:1016E00004F03AFC02008149300004F01EFC300096
:1016F00003F0C8FE050029007D4800F013FB280018
:1017000001F0EFFF0E4CE06701007A485AE07A489A
:1017100000F008FB0A4CE07F002802D16848007CFA
:10172000E077208D810009184900684602F016F81C
:10173000208D6D1E81000A185200634902E000BF2F
:10174000E403002068438300181840000918684625
:1017500000F0ECF9208D00216A4683001B185B0025
:10176000D15401F063F904F0F7FB02001DA1300031
:1017700004F0DBFB208D4543681C01F04DF904F0BB
:10178000EBFB02001AA1300004F0CFFB684604F026
:10179000FBFB020019A1300004F0C7FB300003F08E
:1017A00071FE0500290000BF17A000F0BBFA6946D2
:1017B0001AA000F0B7FA280001F093FF80342060EF
:1017C0000100AA4800F0AEFA300003F09DFA2800AC
:1017D00006F0AEFC280065B0F0BD0000A0CF000010
:1017E000B0CF000053656E736F724E756D000000D0
:1017F00053656E736F7253746172740053656E73C8
:101800006F724461746100006A736F6E204461748A
:1018100061203A2025730D0A000000000D0A2044C3
:1018200061746152697665725F54656D70466F725E
:101830004C657373203A202573200D0A00000000C8
:1018400070B58B4CAF20C00026188A49300004F0D8
:1018500079FF8949300004F091FF00BF27A104F00F
:101860008DFF8648E063608D206400BF28A161641D
:1018700029A1A1640121E164114D00212980A880E2
:10188000401C6085A9700120FFF7CCFEA860E06FC6
:10189000E8602A003100BC20C000201804F0D9FE06
:1018A00004003100764800F03DFA2100754800F050
:1018B00039FA00BF1AA000F035FA200070BD000010
:1018C00030120020283A00207824002070FEFFFF0C
:1018D00000004440E4170000F0170000FC1700006F
:1018E00008180000CCCF0000E8CF000004D00000B2
:1018F00010D0000020D000003CD000002F6576659D
:101900006E742F4865617274626561740000000036
:1019100057534E2D4C570000312E302E3100000011
:10192000486561727442656174696E672E2E2E2E51
:101930002E2E2E2E2E2E2E2E00000000F0B583B05F
:10194000002001904A4CE07F002802D14E48007CE4
:10195000E077E57F282D11DB2800282106F0C4FE62
:10196000C7B22800282106F0BFFE002901D07F1C45
:10197000FFB23900454800F0D5F901E0012725857F
:1019800072B60125404E1EE029000220FFF74AFEF4
:10199000B06080202058F06032000099BC20C00068
:1019A000201804F056FE01900099354800F0BAF96D
:1019B0000199344800F0B6F919A000F0B3F93448A1
:1019C00006F0FBFE6D1CEDB2AF4224DBAF20C00081
:1019D0002018009017A104F0B5FE2749009804F0E4
:1019E000CDFE00BF16A104F0C9FE00BF17A02067FE
:1019F0000020606720009430A06700203080A08D18
:101A0000B080401CA0850020B070E07F2828BBDBA0
:101A100029000020BAE762B6019803B0F0BD0000CB
:101A200053656E64696E672E2E2E2E2E2E2E2E2E50
:101A3000000000002F57534E2D4C572F0000000080
:101A40002F6576656E742F4461746100773535308B
:101A50003000000080B50F480178012901D1002134
:101A600001703C210C4804F0E9FC02BD5CD0000090
:101A7000E4030020341A0000C40300204C1A0000C4
:101A800078D0000088D000003012002098D00000EC
:101A9000DC0500004C360020C40900202149022248
:101AA0000A60214A1368002BFCD0486010680028A7
:101AB000FCD00020086010680028FCD07047D7B424
:101AC0000A0000230299002928D00100164C88073B
:101AD000800FC6430E400196C0006E4630700198DC
:101AE000066868460778FF20B840864310786F463E
:101AF0003F78B840301801260A4F3E602668002E15
:101B0000FCD0019E306020680028FCD000203860A6
:101B10005B1C521C491C02988342D8D303B0D0BC32
:101B20007047000004E5014000E40140124207D084
:101B30008B0706D00B78491C0370401C521EF7D847
:101B40007047830706D00B78491C0370401C521E57
:101B5000F9D1704770B4103A03D378C9103A78C0FD
:101B6000FBD2530701D318C918C001D508C908C052
:101B7000D20704D30B880380891C801C002A01D55E
:101B80000B78037070BC704710B48207D30EFF242B
:101B90009C40E2438907090E9940030004D581481F
:101BA0001B071B0F083B00E08D489B089B00C018DB
:101BB00003681A401143016010BC70470321894A31
:101BC0008000115070470000F0B585B076480021C4
:101BD000016001218A07116001680029FCD00620FC
:101BE000FFF7ECFF1220FFF7E9FF1320FFF7E6FFF6
:101BF0007D4C8020000320600220FFF7DFFF0427D8
:101C000027601E20FFF7DAFF380760601820FFF713
:101C1000D5FFBE056660032072498866B500256061
:101C2000684600BF33A11022FFF794FF00226946E7
:101C3000A3A006F0D3FD002803D00022002106F067
:101C40002BFF26612660256125600120FFF7B6FF86
:101C500000206449086065480121C160002141619C
:101C6000634941620760634801218160016000208F
:101C70006149086061480760594C2068604901402B
:101C80002809084320605F4807605F480021016021
:101C90000721C1607D2141642F0A5C48076002264C
:101CA0005B480660050D5B48056003210A20FFF7CD
:101CB0006BFF5448056001205749086057480021D0
:101CC00001600921C1605649416456480760564881
:101CD0000660400D4F490860A168544A0A408101DE
:101CE0001143A1604749086001205149086005B0CF
:101CF000F0BD00001D1B1CFF03FF000000000040A2
:101D00000000000010B54B4C208007E020886421C3
:101D100006F0EAFC002901D106F0D8FE2088002850
:101D2000F4D110BD0EB400B5C0B041AB02008021AB
:101D30004900684606F0E8FE684601F0D2FCC1B2F0
:101D4000684600F087F8409844B00047002809D161
:101D50007047394A116039490A68012AFCD10022CA
:101D60000A60401C01780029F3D1704734480068AC
:101D7000704731B4334B002018600321D96058609C
:101D800031490122CA60009C6400DC630A602F4B69
:101D90002F4C2568002D01D15B1EFAD120604A60CE
:101DA00031BC70471CED00E000010040F8B50400B4
:101DB0000D4F8025ED027D606220FFF7DAFF0826D7
:101DC000E00701D53D6000E07D606220FFF7D1FFB4
:101DD0006408761EF4D13D606220FFF7CAFFF1BDB2
:101DE00000E400E000070050080500500025004016
:101DF00000E0D701002000400821004004230040FB
:101E0000FFFF00FF00E100E004A5004004A3004044
:101E100000A2004080E200E000A0004004950040E5
:101E2000127A00000493004000920040FF00FFFF80
:101E300000900040123D00201C2500401C21004065
:101E4000483D00200485004000800040E8FD00007F
:101E50004081004038B505000C0005D02878FFF718
:101E6000A5FF6D1C641EF9D131BD000001B582B023
:101E7000002000900023012202A900BF10A006F05C
:101E80006AFD002803D00022002106F005FE03B001
:101E900000BD000000B583B00120009001AB00221E
:101EA000002100BF06A006F056FD002803D0002246
:101EB000002106F0F1FD6846007903B000BD000086
:101EC0000030004003000000002905D01300027814
:101ED0005A40401C491EF9D1D0B2704738B50500B0
:101EE000A54CE068804760698047606A002802D09E
:101EF000A26A10000BD12802000E216A884728042C
:101F0000000E216A8847E8B2216A884707E06846E0
:101F1000290C0170290A4170857003219047E069FE
:101F200080470500A069804720698047280032BDAE
:101F3000F8B505000F00904CE06880476069804765
:101F40000420284305002E0A000CA26A11000CD1BF
:101F5000C0B2216A8847F0B2216A8847E8B2216A94
:101F600088473800216A884707E0694608704E7044
:101F70008D70CF70042168469047A0698047206922
:101F80008047F1BDF8B504000E0017007A4DE868EF
:101F9000804768698047686A002802D0AA6A1000F2
:101FA00013D12002000E296A88472004000E296AF6
:101FB0008847E0B2296A8847002F12D0E869804735
:101FC0003070761C7F1E0CD0F8E76846210C01703B
:101FD000210A4170847003219047390030006A6AF9
:101FE0009047A869804728698047F1BDF4B582B061
:101FF00006000C00604DE86880476869804704204F
:1020000030430600370A000CAA6A110015D1C0B28D
:10201000296A8847F8B2296A8847F0B2296A88474E
:1020200068460089002814D0684606892078296A05
:102030008847641C761E0CD0F8E7694608704F701C
:102040008E70032168469047684601892000AA6A7D
:102050009047A86980472869804703B0F0BDF8B56C
:102060000024400145494718454905E0F8B50024DA
:10207000400144494718444945182800FFF72EFFFE
:1020800006023800FFF72AFF3618B6B2002E07D036
:102090002800FFF723FF04023800FFF71FFF241872
:1020A000A4B2B442E9D12000F2BDF2B5170021D0AC
:1020B0000600750135482818FFF710FF0402344860
:1020C0002818FFF70BFF2418A4B23A000099200249
:1020D000B3009B1CDB00C018FFF788FFE419A4B213
:1020E000210A2A482818FFF723FFE1B228482818B8
:1020F000FFF71EFFF1BDF2B5170021D006007501F4
:1021000024482818FFF7EAFE040223482818FFF79E
:10211000E5FE2418A4B23A0000992002B300DB1CAB
:10212000DB00C018FFF72EFFE419A4B2210A1948FA
:102130002818FFF7FDFEE1B217482818FFF7F8FE50
:10214000F1BDF8B50D004401124826183000FFF724
:10215000C5FE1149641807022000FFF7BFFE3818BA
:102160004519ADB22804010E3000FFF7E1FEE9B2D7
:102170002000FFF7DDFEF1BD441300200821000020
:10218000082000000827000008260000082400009E
:10219000082500000828000008290000F4B582B0D6
:1021A00006000C001F00092E01DB002073E0601EFA
:1021B00003D0401E02280BD96CE004226946F020AF
:1021C0000001FFF7DFFE0098002801D1022062E045
:1021D00078076AD4002F07D0012C02D0022C5CD0E3
:1021E00002E02120074260D0300000F060F8F021CA
:1021F00039402143B000401CC000FFF799FE894CD4
:10220000208969460989002908D169460881401C4E
:1022100080B2A849884201D1C02000022081750106
:1022200068460089010A8120C0002818FFF780FE57
:1022300068460189C9B2A120C0002818FFF778FEBE
:102240000121842040002818FFF772FE84204000FE
:102250002818FFF743FE0028F8D101220120B040E2
:10226000C143608908403A40B24002436281A0897C
:102270000140A18100207200A2181082A055C22046
:1022800080002C182000FFF729FE0028FAD070B239
:1022900003B0F0BD0420C043FAE7A0203840202856
:1022A00003D09020384010289ED10520F3E7F8B5E0
:1022B000070000240025092F02DB0020C043F2BDE7
:1022C0007E011021842040003018FFF731FE842069
:1022D00040003018FFF702FE0028F8D11F218220AD
:1022E00080003018FFF724FE0121B940C8434D4952
:1022F0004A8902404A818A891040888178000818FA
:102300000482CC55C220800034186B4E2000FFF7A9
:10231000E5FD002803D06D1CADB2B542F6D1012019
:10232000F2BDF2B506001500A84F00203880092E36
:1023300073DAB000401CC000FFF7D0FD0007000FAB
:10234000012801D0042068E07401C2208000201818
:10235000FFF7C4FD132801D002205EE0009800784A
:1023600000020099497840180002009989784018C5
:1023700000020099C97840180021C943884201D061
:10238000002801D10B2048E0002D01D10A2044E0B3
:10239000042200998E482018FFF728FE290A8D484C
:1023A0002018FFF7C5FDE9B28B482018FFF7C0FDE4
:1023B00084204000251804212800FFF7B9FD2800DB
:1023C000FFF78CFD0028FAD1164840890121B14061
:1023D000084201D00020F2BDC22080002018FFF783
:1023E0007DFD17281BD08220800025182800FFF7CC
:1023F00075FD000703D43888AB49884205DB082106
:102400002800FFF795FD0C2007E0C220800020186F
:10241000FFF764FD0028DFD10320C043F2BD012097
:10242000F2BD000020130020F8B50400674D002025
:102430002880092C39DAA000401CC000FFF74EFDAF
:102440000007000F012801D004202EE0660184203F
:102450004000371808213800FFF76AFD3800FFF701
:102460003DFD0028FAD10120A04090498A8982438D
:102470008A814989014201D00020F2BDC22080003A
:102480003018FFF72BFD002811D082208000301873
:10249000FFF724FD000704D42888FF21F631884285
:1024A000ECDB2000FFF703FF0C20C043F2BD01204E
:1024B000F2BD0000F0FF0000FFFF0000F3B583B0A5
:1024C00015006846047B092C01DB00205AE0A000BF
:1024D000401CC000FFF702FD0007000F012801D0DB
:1024E00004204FE0002D01D10D204BE06001009051
:1024F0000098C221890040180190FFF7EFFC1728CF
:1025000003D01C2801D006203CE001276846007B50
:102510008740664CA089384211D0009882218900FA
:1025200046183000FFF7DAFCC006C00EC10622D5FF
:1025300010213000FFF7FCFCA089B843A08100986F
:10254000B1494018FFF7CAFC8602B6B2AE4200D2CB
:1025500035006846007BFFF782FD06000198FFF713
:10256000BDFC172810D01C280ED06846007BFFF752
:102570009EFE062006E000070BD56846007BFFF7AD
:1025800096FE0C20C0431FE06089384203D0AE4263
:1025900001DA002018E0AE42DBDB2A00049968462D
:1025A000007BFFF782FD0098842149004618202116
:1025B0003000FFF7BDFC3000FFF790FC0028FAD197
:1025C000A0890743A781280005B0F0BD603D002029
:1025D000080C00000810000008110000F2B582B0DD
:1025E00004001500092C01DB002037E0A000401C8E
:1025F000C000FFF773FC0007000F012801D0042082
:102600002CE0002D01D10D2028E067017F4838180B
:10261000FFF764FC8602B6B2AE4200D2350020005D
:10262000FFF724FD0600C22080003818FFF756FC93
:10263000172815D01C280DD1002E1DD12000FFF722
:102640000EFD009070483818FFF748FC8102009892
:10265000884205D12000FFF72AFE0620C04320E073
:10266000124840890121A140084203D0002E01D127
:10267000002016E0002ED2D0AE4200DA35002A004B
:1026800002992000FFF737FD842040003C184021CC
:102690002000FFF74DFC2000FFF720FC0028FAD1B6
:1026A000280003B0F0BD0000D10700002013002077
:1026B000FAB583B005001400092D01DB0020A0E06D
:1026C000A800401CC0000190FFF708FC0007000FA5
:1026D000801E022803D8002C03D10D2091E0042095
:1026E0008FE00498007800020499497840180002AD
:1026F00004998978401800020499C978401806D1D5
:102700000198FFF7EBFB400701D40B2079E00A9F0B
:10271000002F06D10198FFF7E1FB400701D40A2002
:102720006FE0680100900098C22189004018019074
:10273000FFF7D4FB422805D0222803D0322801D04D
:1027400006205EE0042204990098AD4BC018FFF704
:102750004DFC390A0098AB4A8018FFF7E9FBF9B243
:102760000098A94A8018FFF7E3FB00982649401813
:10277000FFF7B4FB8602B6B2A64200D234002800AE
:10278000FFF76DFC06000198FFF7A8FB002801D1B8
:10279000032036E027009D4840890121A9400842D6
:1027A00003D0BE4201DA00202CE0BE42E7DB22006B
:1027B00003992800FFF779FC009884214900441808
:1027C00020212000FFF7B4FB2000FFF787FB002843
:1027D000FAD100988221890044182000FFF77EFB7F
:1027E000C006C00EC10605D510212000FFF7A0FBD2
:1027F000380007E00007ECD508212000FFF798FB20
:102800000C20C04305B0F0BD081F0000081E0000EA
:10281000FAB585B0060014000025092E01DB002062
:1028200028E0B000401CC000FFF758FB6946087460
:102830006846007C0007000F801E022803D8002C89
:1028400003D10D2016E0042014E0704871004718F1
:1028500070010390388A00281AD13000FFF706FC77
:1028600005000398C22189004018FFF737FB0028B4
:1028700002D10320C043C0E0644840890121B14037
:10288000084203D0002D01D10020B6E0002DE4D095
:10289000039884214900401800906846007C400756
:1028A000400F022805D000D28AE0042833D057D345
:1028B00086E0388A002829D1082201A93000FFF7D4
:1028C0001AFC40210098FFF733FB0098FFF706FB46
:1028D0000028FAD101A80178069A11704178069A69
:1028E00051708178069A9170C178069AD1700279F8
:1028F0000C990A8012024379D2180A808179090260
:10290000C079081838828020404988553D8AAC42F9
:1029100050D225004EE0388A002847D1022201A972
:102920003000FFF7E8FB40210098FFF701FB00981B
:10293000FFF7D4FA0028FAD101A8017809024078FB
:102940000818801E388280B23149884204DB30008A
:10295000FFF7ADFC2F4850E080202C49885525E03A
:10296000388A002822D1062201A93000FFF7C3FBD4
:1029700040210098FFF7DCFA0098FFF7AFFA002833
:10298000FAD101A80178069A11704178069A51701F
:102990008178069A9170C178069AD17001790902FE
:1029A0004079081838828020184988553D8AAC4201
:1029B00000D225002A0005993000FFF79CFB04E0B7
:1029C00029003000FFF7BDFB3D8240210098FFF752
:1029D000AFFA0098FFF782FA0028FAD1388A401B34
:1029E00038820A49891980B2002804D00878012267
:1029F00002430A7000E00870280007B0F0BD000034
:102A0000080C00000810000008110000201300202E
:102A1000EB05000017FCFFFF010009D5F44640421A
:102A200000F006F80122D20711436047010000BF01
:102A300042221201D21E004207D002D4521E0018B8
:102A4000FCD5C10A4005120589187047194801785C
:102A500001291CD10179090719D1F02182680A42A4
:102A600002D1C3680B400CD0F0231340102B02D1CD
:102A7000C3680B4005D00A40302A08D1C268114013
:102A800005D10D490D4A1160D10B0D4A1160017835
:102A900001290DD1017909070AD1F02182680A4084
:102AA000402A05D1C068014002D1012005490860D3
:102AB00070470000E00F00F0DFFF07C00405004092
:102AC000186C004008060040F8B50FB48AB00CA896
:102AD00003C804AA03C20B984000400D78498842FD
:102AE0000CD10020694608800B98000304D10A9895
:102AF000002801D1012518E0022516E0012808DA96
:102B00000AA806F01FF8012803DB002569460D809E
:102B10000BE00B99BE4A0A40C34911430B91694629
:102B2000BC4A801A08800025ED43002104A806F065
:102B30002BF804001498002802D000201499088073
:102B4000002C06D10CA80CC80020002106F062F869
:102B500015D0002D16D5009E36B2012E16D10AA82A
:102B600003C80022B04B06F055F808D0012C0DD157
:102B70000AA80CC80020A84906F04CF82ED1002065
:102B8000A649B9E1022D03D10AA804E0012C5CDBBF
:102B9000022C02D10CA803C8AEE1012D1CD10B9868
:102BA00000280D9802D400284CD535E0002809D41F
:102BB000002C47D10021C94304A805F0E5FF0028F7
:102BC00040D53CE0002C27D10021C94304A805F0E2
:102BD000DBFF002820D51BE0012C0AD1009E36B275
:102BE0000D98002802D4012E2CDA15E0012E13DAFC
:102BF00028E00D98002812D4002C0DD10021C943E3
:102C000004A805F0C1FF002806D50B98002803D5BD
:102C10000020802109066FE1002000216CE106F010
:102C20000BF822210160002C0CD10021C94304A81B
:102C300005F0AAFF002805D50B98002802D5002032
:102C4000AE4959E10020B74956E10B98002809D553
:102C5000002C07D505F0F0FF212101600020C043C2
:102C6000410849E10AA803C80022002305F0ECFF4F
:102C700002D269468A800DE00AA803C880221206A3
:102C800051400AAA03C20021C94304A805F07CFFF1
:102C900069468880012E15D10AA803C898A20CCADB
:102CA00005F0EBFF0ED2002400265C4F0AA80CC8EA
:102CB00000208021C90500F04FFB0AAA03C21CE0D6
:102CC000FF0700000AA80CC800208F4900F044FB51
:102CD0000022554B00F002FC00F0DAFC0400203C1E
:102CE0002000FFF799FE0022884B00F035FB002200
:102CF0004D4B00F0F3FB06000F0000BF8EA06101FA
:102D0000401806900AA803C832003B0000F049FCB6
:102D100004000D000AA803C832003B0000F0DEFBEF
:102D200002000B002000290005F0C0FF04AA03C226
:102D300004A803C804AA0CCA00F00EFB08AA03C228
:102D40000AA830C008A803C806F012F808AA0CCADE
:102D500000F002FB0AAA0CCA00F023FC04000D00DC
:102D600000202E4932003B0000F01BFC0022802393
:102D7000DB0500F0F1FA22002B0000F0AFFB04AA03
:102D80000CCA00F0E9FA02000B000AA803C800F020
:102D9000A5FB08AA03C208A803C85FA20CCA05F0D5
:102DA00085FF04AA03C2009800B2FFF735FE0600B3
:102DB0000F00069803C832003B0000F08FFB04AA06
:102DC0000CCA00F08BFB04AA03C20CA80CC804A810
:102DD00003C800F0C1FA02AA03C202A803C8002275
:102DE0004B4B05F04AFF73D302A803C80122494B9D
:102DF00005F02AFF6FD902A803C80022002305F0BE
:102E00003CFF02A80CC80BD2002003490EE000BF13
:102E1000FFFF0F80FE0300000000E0BF0000F03F56
:102E20000020014902E000BF0000E03F00F056FB37
:102E300000F02EFC040008A803C80CAA0CCA00F07D
:102E40008BFA02AA03C20698083003C8069A103209
:102E50000CCA00F043FB0CAA0CCA00F07DFA2EA2AB
:102E60000CCA00F079FA02AA0CCA00F037FB02AAD9
:102E700003C2069803C832003B0000F02FFB0CAAE7
:102E80000CCA00F069FA06000F002000FFF7C4FD2D
:102E900002000B003000390000F083FB1EA20CCAB8
:102EA00000F05AFA02AA0CCA00F018FB02AA03C2E8
:102EB0001498002801D00480002400940022184BAC
:102EC00002A805F0A7FF002802D0012803D00AE0DD
:102ED0000020002101E00020124902AA03C205F0EF
:102EE000ABFE22210160019800B2002802A803C8AD
:102EF00002D08022120651400FB0F0BD0000F0FF5A
:102F0000CD3B7F669EA0E63F000050400000903F12
:102F10000000E0C00000E040EF39FAFE422EE63F3C
:102F20000000F03F0000F07F10B582B00024009454
:102F3000FFF7CAFD1CBD0000000000000000F0BF4C
:102F40000000000000000080000000000000008081
:102F50000000000000000000000000C05294EEBF1E
:102F600000000048204E51BE000000F86467BCBC61
:102F70000000000000000000000000208133EDBFD1
:102F800000000080B3DB14BE000000506706A3BC45
:102F90000000000000000000000000D0E9DCEBBFF2
:102FA00000000008C39259BE00000080B0D3B8BC36
:102FB000000000000000000000000070F98FEABF70
:102FC000000000C0A51028BE000000E8BFC0B0BCD3
:102FD000000000000000000000000070284CE9BF65
:102FE00000000060134B42BE000000C03D20B8BC92
:102FF000000000000000000000000050FA10E8BFD0
:10300000000000C05FF62BBE000000905C71A7BC02
:10301000000000000000000000000020FCDDE6BF12
:10302000000000C0F8F154BE00000018E9F6B9BC79
:103030000000000000000000000000D0C3B2E5BFA7
:1030400000000070E43254BE00000050DB06B4BC47
:10305000000000000000000000000010EF8EE4BF40
:1030600000000020F36252BE000000C02A879ABC14
:103070000000000000000000000000B02272E3BF6A
:10308000000000F0E8E056BE00000028352DBDBC71
:103090000000000000000000000000000A5CE2BF29
:1030A000000000B0FA8E41BE00000040AE6FBDBC13
:1030B000000000000000000000000000564CE1BFCE
:1030C000000000F015CD5FBE00000000141C90BC95
:1030D000000000000000000000000040BD42E0BF12
:1030E00000000030F93457BE000000E06C1E93BCB5
:1030F0000000000000000000000000E0F57DDEBFE1
:10310000000000B08A535EBE00000080DA77AABCDF
:103110000000000000000000000000C09D81DCBF36
:1031200000000000FFA226BE0000006057E2B0BC15
:10313000000000000000000000000060F98FDABF0E
:10314000000000580A8151BE000000F05F60B8BC6A
:1031500000000000000000000000000098A8D8BF98
:10316000000000607A7F45BE000000D05433A3BC4D
:103170000000000000000000000000600FCBD6BF80
:10318000000000D091CB40BE000000406D1BA0BCF1
:103190000000000000000000000000A0FBF6D4BF0B
:1031A00000000098C5CE52BE000000003A397EBC37
:1031B0000000000000000000000000E0FE2BD3BF74
:1031C0000000004073872BBE00000000926879BCAD
:1031D000000000000000000000000040C069D1BFF6
:1031E00000000058F16353BE00000080438D7CBC9A
:1031F000000000000000000000000080D85FCFBF8A
:10320000000000181F8354BE000000B03F42A2BC63
:1032100000000000000000000000008067FCCBBF41
:1032200000000060FAFF53BE00000050E00DB8BC83
:1032300000000000000000000000000098A8C8BFC7
:10324000000000607A7F35BE000000C0543393BC9C
:10325000000000000000000000000000DC63C5BFAB
:1032600000000058D6FF54BE00000000396490BC36
:103270000000000000000000000000C0AD2DC2BF33
:1032800000000080A45915BE000000E0484BABBC14
:103290000000000000000000000000801A0BBEBF0C
:1032A00000000050BF3C5ABE000000A0B364B6BC92
:1032B00000000000000000000000008004D6B7BF3E
:1032C00000000040BBCF36BE0000008076CEA8BC18
:1032D00000000000000000000000008032BBB1BF11
:1032E000000000402A0043BE00000028C60CBDBC00
:1032F0000000000000000000000000009473A7BF61
:10330000000000182B3B59BE000000C0E55DA5BCC5
:10331000000000000000000000000000EE4397BF26
:10332000000000A0E6C340BE00000020958DB5BCA3
:10333000000000000000000000000000000000800D
:10334000000000000000008000000000000000807D
:103350000000000000000000F0B50E005E400125F6
:10336000ED072E40B446AE0ADF184C18F44208D2DE
:10337000F7420ED2640D01D07F0D12D100206146BC
:10338000F0BD05D1F74201D87F0D05D10020C14322
:10339000F0BDFBD1640DF9D00020C14349054908B7
:1033A0008FE0E419C902DB0229432B43DB0A460DF7
:1033B000C00231438E4630B487B295B27D432E0CA5
:1033C000ADB2140C7C43A419260C240425439CB2F2
:1033D0007C43A419190C7943270CC919A4B20F0412
:1033E0003C43090C000C97B247432E0CBE193543E1
:1033F000ADB2170C4743360CBF19A6B2BF193E0435
:103400003543240C3E0C36199FB24743BF19BCB25A
:103410003E0C89191F0C47437F183E043443390C76
:10342000704680B297B247432E0CBE193543ADB2F9
:10343000170C4743360CBF19A6B2BF193E043543DB
:10344000240C3E0C36199FB24743BF19BCB23E0C48
:1034500089191F0C47437F183E043443390C7746C3
:103460003F0C90B278432E0C80190604ADB22E4367
:10347000050CA0B22D18120C7A435019020C80B220
:10348000240CA4189AB27A43121914042043120C83
:1034900089181B0C7B43C91830BCEF0A394203D191
:1034A000B61940414941641E6F12BF0DE41B0BDB8E
:1034B000FF19BC4211DA240500274208AE417841C9
:1034C000614166463143F0BD641C05D1401C614139
:1034D000CF0201D34908F4E750E75DE7F0B40125D6
:1034E000ED070F005F404FD48B4200D1824205D9D7
:1034F0008446100062468C4619006346DF184C185B
:10350000640D7F0D3AD0661C760537D0E61B352E4C
:1035100034DCDB022B43DB0A0C0DC9022943C91240
:10352000202E0DDB1700203E06D01F00F741F34090
:103530005F400026012A7741C01871410DD217E083
:103540001700F741F2405740F3415A40B340F3406F
:103550005A400026801859410AD3A21C52050FD0A8
:10356000C207012F724117004008CB0718434908D2
:10357000641C24054208AF4170416141F0BC7047B2
:10358000641C21050020F9E76B4010E06B40ABE7BD
:10359000F742F3D1E943F1E72442EFD100200021C3
:1035A000ECE7F0B40125ED070F005F40EED40C000E
:1035B000871A9C4105D2C01BA141D21963416940C1
:1035C0006B40AE0ADF184C18F442E1D2640D7F0D57
:1035D000E2D0E61B362ED1DCDB022B43DB0AA4460D
:1035E0000C0DC9022943C90A012E28DC04D1D607D3
:1035F0005208DF073A435B08EF0A7642904199414F
:1036000014D039423BD1B61940414941761C394268
:1036100004D1761C001849413942FAD0B9436746B3
:10362000B74208D9A41B24052143A7E70042EAD1E9
:103630003642E8D1A2E7E40AE10700209EE7202E07
:103640000BDD203E1F00F340F7415F40012A0022BE
:1036500057417E42984191410BE01700F741F240FB
:103660005740F3415A40B340F3405A407E429041A4
:1036700099410A0303D2641EB6194041494100270B
:10368000641E24054208AE4178416141F0BC704798
:10369000F4464A1805D200F00FF801D5801740080B
:1036A000604700F009F80121C907884200D90800E5
:1036B000404260474A1812D2400DC9020843012116
:1036C000C9070843520D40210901521A521C06D461
:1036D00052421F3201D4D0407047C01770470020BB
:1036E0007047010000E0491C0A78002AFBD1081A43
:1036F00070470268531C0360117070471206130A6A
:103700001A43130C1A4300BF094205D083070BD09C
:103710000270401C491EF9D1704700001206130ABE
:103720001A43130C1A4300BF130030B414001500E1
:10373000103902D310393CC0FCD2490700D30CC069
:1037400000D504C0890002D30280801C002900D566
:10375000027030BC704700000022D5E70022E3E78A
:1037600010B56D4C042221001431F0200001FEF749
:103770003DFC04226949A020C000FEF737FC04226A
:10378000183421009001FEF731FC10BD10B58021E6
:103790000020FEF7CDFB0020FEF7A0FB5E4C0422CC
:1037A00021001431F0200001FEF720FC04225B49C7
:1037B000A020C000FEF71AFC04222100183190015D
:1037C000FEF714FC0622210090200001FEF70EFCFB
:1037D00010BD80B580210020FEF7AAFB0020FEF777
:1037E0007DFB06224C4990200001FEF7FFFB01BD46
:1037F00070B4C64DC64BC74C060000D00500464805
:10380000C5630D0000D00B000364110000D014004C
:10381000446470BC70471CB50622694690200001C4
:10382000FEF7B0FB01213C48836B1970826B51702D
:103830000621836B99700022846BE270836B1B1DE1
:10384000446B240E1C70446B240C5C70446B240A83
:103850009C70446BDC70836B1A810A3380241C706B
:103860005A70846B2273846B6273846BA273846B53
:10387000E273846B2274846B6274846BA274846BB5
:10388000E274846B2275846B6275846BA275846BA1
:10389000E275846B2276846B6276846BA276846B8D
:1038A000E2760378846B23774378846B637783783D
:1038B000846BA377C378846BE3770379846B2034BC
:1038C00023704379846B21342370846B64182277CE
:1038D000491C1029F9DB0021846B64182C342270F8
:1038E000491C4029F8DB0021846B64186C34227079
:1038F000491C8029F8DB6321826BEC321170822233
:10390000836BED331A705322836BEE331A70806B26
:10391000EF30017013BD000064030020203D002043
:10392000F0B583B0FFF777FF00217B488160C1606D
:103930003522836BF0331A700122846BF1342270CC
:10394000846BF23422703D23846BF334237007239D
:10395000846BF4342370846BF53422700378846BA9
:10396000F63423704378846BF73423708378846B48
:10397000F8342370C378846BF93423700379846B33
:10398000FA3423704379846BFB3423700C23846BEB
:10399000FC3423700023846BFD342370122706E06F
:1039A000856BBFB2ED19EC352C707F1C5B1C9BB294
:1039B000C41820342478002CF2D1C47824090A2CAD
:1039C00001DA303400E03734856BBFB2ED19EC35E5
:1039D0002C707F1C0F24C6780F2535400A2D01DA84
:1039E000303500E03735866BBFB2F619EC363570EE
:1039F0007F1C05792D090A2D01DA303500E03735B5
:103A0000866BBFB2F619EC3635707F1C06790F2530
:103A100035400A2D01DA303500E03735866BBFB20C
:103A2000F619EC3635707F1C45792D090A2D01DA1F
:103A3000303500E03735866BBFB2F619EC3635709D
:103A40007F1C46790F2535400A2D01DA303500E01C
:103A50003735866BBFB2F619EC3635707F1CBFB2B6
:103A6000866BFD1A7519E5359B1D2B703723856B09
:103A7000ED19EC352B707F1C0623856BBFB2ED1959
:103A8000EC352B707F1C856BBFB2ED19EC352A70BD
:103A90007F1C0322856BBFB2ED19EC352A707F1CA9
:103AA000826BBFB2D219EC3213707F1C826BBFB233
:103AB000D219EC3214707F1C3A22836BBFB2DB192F
:103AC000EC331A707F1C3B22836BBFB2DB19EC33E3
:103AD0001A707F1CFF22836BBFB2DB19EC331A70A4
:103AE0007F1C3B009C246400BFB2A74208DA866BAF
:103AF0009BB2F618EC3631705B1C9BB2A342F6DB2E
:103B000001A90A704A708A70CA7063E161370000C7
:103B10008D370000D337000064030020F0B583B078
:103B2000FFF779FE10481D214156032901D00429D1
:103B30001CD10022836B9A72816BCA72017D826BE9
:103B40001173417D826B5173817D826B9173C17D55
:103B5000826BD17301A9027A0A70427A4A70827A22
:103B60008A70C27A07E000BF64030020FF2201A927
:103B70000A704A708A70CA703521826BF0321170F7
:103B80000121836BF13319700322836BF2331A70B6
:103B90003D22836BF3331A700722836BF4331A7060
:103BA000836BF53319700278836BF6331A704278A1
:103BB000836BF7331A708278836BF8331A70C2788C
:103BC000836BF9331A700279836BFA331A70427976
:103BD000836BFB331A70102701AAD278FF2A2FD1EA
:103BE0003222836BFC331A700422846BFD34227002
:103BF000037D846BFE342370437D846BFF3423701C
:103C0000837D846B0D026355C37D846B6D1C63558E
:103C10003623846B6D1C6355836B6C1C1A55027ABA
:103C2000836B641C1A55427A836B641C1A55827A22
:103C3000836B641C1A55C27A836B641C1A551C274B
:103C40000C22836BDB19EC331A707F1C00220023DB
:103C5000846BBFB2E419EC3423707F1C0400203461
:103C600007E0866BBFB2F619EC3635707F1C5B1C23
:103C7000641C2578002DF4D1C47824090A2C01DABB
:103C8000303400E03734856BBFB2ED19EC352C7061
:103C90007F1C0F24C6780F2535400A2D01DA3035F8
:103CA00000E03735866BBFB2F619EC3635707F1CF5
:103CB00005792D090A2D01DA303500E03735866B9C
:103CC000BFB2F619EC3635707F1C06790F253540EA
:103CD0000A2D01DA303500E03735866BBFB2F619B0
:103CE000EC3635707F1C45792D090A2D01DA303507
:103CF00000E03735866BBFB2F619EC3635707F1CA5
:103D000046790F2535400A2D01DA303500E0373588
:103D1000866BBFB2F619EC3635707F1CBFB2866B6E
:103D2000FD1A7519E5359B1D2B703723856BED1931
:103D3000EC352B707F1C0823856BBFB2ED19EC3579
:103D40002B707F1C836BBFB2DB19EC3319707F1CA7
:103D50000321836BBFB2DB19EC3319707F1C062182
:103D6000836BBFB2DB19EC3319707F1C816BBFB260
:103D7000C919EC310C707F1C3A21836BBFB2DB197F
:103D8000EC3319707F1C3B21836BBFB2DB19EC3322
:103D900019707F1C1F21836BBFB2DB19EC331970C4
:103DA0007F1C2121836BBFB2DB19EC3319707F1CA0
:103DB000FF21836BBFB2DB19EC3319707F1CBFB2DC
:103DC00039318F4206DA846BE419EC3422707F1C9F
:103DD0008F42F8DB4321009101AB89229200816B75
:103DE000007FFEF765FC03B0F0BD30B583B0FFF790
:103DF00012FDA5480021826B9172826BD17235222F
:103E0000836BF0331A700122846BF1342270042327
:103E1000856BF2352B703D24856BF3352C700724B0
:103E2000856BF4352C70846BF53422700278846BCA
:103E3000F63422704278846BF73422708278846B77
:103E4000F8342270C278846BF93422700279846B62
:103E5000FA3422704279846BFB3422703222846BF4
:103E6000FC342270846BFD342370027D846BFE343D
:103E70002270427D846BFF342270827D846B9D01B1
:103E80006255C27D846B6D1C62553622846B6D1C3D
:103E90006255826B6C1C1355027A836B641C1A5535
:103EA000427A836B641C1A55827A836B641C1A55A0
:103EB000C27A836B641C1A55FF22846BAD1D625558
:103EC0001D239C246400856BED18EC3529705B1C68
:103ED000A342F8DB01A90A704A708A70CA704321B4
:103EE000009101AB89229200816B007FFEF7E0FB1D
:103EF00003B030BDF0B585B00025634C207FFEF7E0
:103F0000B5F8002854D001A9009102AB0200A16BC2
:103F1000207FFEF77DFC010068468088432800D0A2
:103F2000AEE0A06B02001C3213782678B3423FD17A
:103F300053786678B3423BD19378A678B34237D1B1
:103F4000D378E678B34233D113792679B3422FD1AF
:103F5000527963799A422BD1237A002B08D1627A65
:103F6000002A05D1A27A002A02D1E27A002A21D0C1
:103F700002AA16789E420BD15378667AB34207D1D3
:103F80009378A67AB34203D1D378E67AB34211D0BC
:103F90001378267BB3420BD15378667BB34207D1AB
:103FA0009378A67BB34203D1D278E37B9A4201D0C7
:103FB000002066E0F03089B24118F039B24B02AA15
:103FC00000E0080088425BD20678002E0ED0012E59
:103FD00011D0032E1AD0062E24D0332E2CD0352EFD
:103FE00006D0362E38D0FF2EEBD047E0401CE9E754
:103FF0008578C01CE6E7801C06781E7046785E70E7
:1040000086789E70C678DE70001DDBE7467887787C
:104010002776C77867760779A7764779E776801994
:10402000801CCFE7467887781F71C7785F71077962
:104030009F714779DF71F2E78678A6623602C7780A
:10404000F619A66236020779F619A6623602477992
:10405000F619A662801DB5E786782672C678667264
:104060000679A6724679E672801D16782673567810
:1040700066739678A673D678E673A3E74678CEE79C
:1040800068B205B0F0BD000064030020F0B583B055
:10409000A94C1D202056062801D10520B0E0207F24
:1040A0004001C22189004018FDF718FF222805D0E1
:1040B000002344220221207FFEF770F8012701250A
:1040C000FFF718FFC0B21D216156002906D0022952
:1040D00019D008D3042967D04DD390E0002666613B
:1040E000FFF71EFC86E0022800D085E0A06B017C73
:1040F0002175417C6175817CA175C07CE075FFF7FD
:104100000DFD02206DE0052832D1D8277F0138004F
:10411000FDF7E4FE6946087103213800FDF708FF4A
:104120009248009023001433112200BF93A1207FF6
:10413000FEF7BEFA0600684601793800FDF7F8FE82
:104140000C20C043864203D1E06B8047002643E049
:10415000FFF74BFEE66AE06A801B0228FBD30026CD
:10416000E6620A202063A677606C8047667746E0A7
:1041700006283AD040E004270425A06A0021C9435C
:1041800088423CD04008E16A884238D2207D2074C1
:10419000607D6074A07DA074E07DE074606B401C65
:1041A0006063FFF7BBFC20E0042505281BD1002637
:1041B000A677207C217D88420BD1607C617D88427E
:1041C00007D1A07CA17D884203D1E07CE17D8842BB
:1041D00002D00325206C8047E6620A202063A67780
:1041E000032060770BE0062806D10026E6620A204D
:1041F0002063A677677702E000F00CF8050028003E
:1042000003B0F0BD10B54C4C207FFEF750F80620EF
:10421000607710BD70B501260125474C1E20205641
:10422000022819DA206BE16A88422AD21D20205622
:10423000012804D0022805D0042803D004E0FFF7A9
:104240006FFB01E0FFF76AFC0020E062E06A0A30E1
:104250002063A07F401C13E01D202056012804D0BD
:10426000022806D0042804D006E00020607700254C
:1042700002E0FFF755FB66770020E0620A21216328
:10428000A077280070BD0000203D0020F8B5070091
:104290000E00684600210160274C06222100902074
:1042A0000001FDF76FFE0025207861780143A078BA
:1042B0000843E178014320790843617901430CD137
:1042C000257008206070DC20A070E570A5800622B3
:1042D000210090200001FDF789FE2777A66324487E
:1042E000606304226946F0200001FDF77FFE04228E
:1042F00069469001FDF77AFEE5620A202063A57702
:104300006577F1BD1B48C16A491CC16270471949F4
:104310000A7D02704A7D42708A7D8270C97DC170BB
:10432000704714490A7E02704A7E42708A7E82700B
:10433000C97EC17070470000640300200E490A78EE
:1043400002704A7842708A788270C978C17070476A
:1043500009490A7902704A7942708A798270C9796A
:10436000C17070470348806A7047000088130000DE
:104370007856341264030020203D00204348454312
:104380004B5F49505F434F4E464C49435400000039
:1043900070477047704770470078704701707047EA
:1043A000002070477047020001D00A0005D1614A21
:1043B0006148D0606148106170475E4AD060116109
:1043C0007047020001D00A0005D15A4A5C4850618A
:1043D0005C4890617047574A50619161704710B4D2
:1043E000544A13888024A4002342FDD0030001D046
:1043F0000B0001D1544855491162D06110BC70477F
:1044000038B50D00002400220F2800D98EE002A14B
:10441000095C49008F4400BF080C2316323B47510A
:104420005C696C700A74788100F0D0F8002032BDAD
:10443000002D02D02A00140008342100100000F0E2
:1044400000F932BD2C88F0212140A8204001FDF761
:104450006FFD210AB8204001FDF76AFDE6E7A820BC
:104460004001FDF73BFD0400B8204001FDF736FD9B
:104470000002F021214040182880D7E72C88E1B2C3
:10448000B0204001FDF754FD210AC020E3E7B02031
:104490004001FDF723FD0400C0204001FDF71EFD93
:1044A00000020019E8E72888010A98204001FDF77A
:1044B0003FFD2988C9B2A020CDE798204001FDF733
:1044C0000DFD0402A0204001FDF708FD2018D3E7F0
:1044D000184881782970C17869700179A97041798B
:1044E000E970807928716C71A0E700F01BF99DE7F5
:1044F000280000F02BF999E7280000F04BF995E728
:10450000287800F06EF932BDB8208001FDF7E6FC96
:1045100038210140302907D105E0B8208001FDF79E
:10452000DDFCC00700D501242C707FE70020C043CC
:1045300032BD00004413002091430000934300006B
:104540009543000097430000A1430000A5430000ED
:1045500038B50C00052813D801A1095C8F4400BFB1
:1045600006101838424A200000F061F9002032BDE0
:10457000200000F08FF9F9E72478C520044202D02A
:104580000020C04332BD0020FDF7A8FC04432100F9
:104590000020FDF7CDFCE9E70020FDF79FFC20702F
:1045A000E4E7200000F0B4F9E0E7D8204001FDF78F
:1045B00095FC2070C8204001FDF790FC0502D0203A
:1045C0004001FDF78BFC28186080CFE7F0B585B07F
:1045D00090273F01062203A93800FDF7D3FC80266F
:1045E0007600042202A93000FDF7CCFCA025ED00E6
:1045F000042201A92800FDF7C5FCF02424010422AF
:1046000069462000FDF7BEFC80210020FDF790FCEC
:104610000020FDF763FC062203A93800FDF7E6FC45
:10462000042202A93000FDF7E1FC042201A92800C0
:10463000FDF7DCFC042269462000FDF7D7FC05B03D
:10464000F0BD38B504000D00FFF7C0FF002C30D0DE
:104650000021002022001378C9184BB2112B32DA46
:104660005378C9184BB2112B2DDA801C921C0828E4
:10467000F1DB21788148FDF75BFC61788048FDF72C
:1046800057FCA1787F48FDF753FCE1787E48FDF7A1
:104690004FFC21797D48FDF74BFC61797C48FDF7A3
:1046A00047FCA1798F48FDF743FCE1798E48FDF77F
:1046B0003FFC002D33D0002100202A001378C918B8
:1046C0004BB2112B02DB0020C04332BD5378C91816
:1046D0004BB2112BF7DA801C921C0828EEDB2978EC
:1046E0008248FDF725FC69788148FDF721FCA9780F
:1046F0008048FDF71DFCE9787F48FDF719FC297912
:104700007E48FDF715FC69797D48FDF711FCA97914
:104710007C48FDF70DFCE9797B48FDF709FC00209A
:1047200032BD000010B5B824A4012000FDF7D6FB6F
:104730004106490E2000FDF7FBFB2000FDF7CEFBF4
:10474000802101432000FDF7F3FB10BD80B500215F
:104750000278012A00D140214278012A02D10800C2
:1047600038210FE08278C078012807D1012A02D1D0
:104770000800182106E00800082103E0012A02D100
:10478000080010210143B8208001FDF7D1FBFFF79D
:10479000C9FF01BD10B50400B8208001FDF79EFBE4
:1047A0004106CA0F2270382101400120202901D082
:1047B000382901D1012200E000226270102903D0C3
:1047C000182901D0202901D1012200E00022A27085
:1047D000082904D0182902D0202900D00020E07038
:1047E00010BD38B50400B825AD012800FDF776FBF3
:1047F000410614D5C7220240012C01D1302100E02E
:10480000382111432800FDF793FBFFF78BFF2800A9
:10481000FDF764FB012C05D13021084205D10020B1
:10482000C04332BD38210842F9D0002032BD10B556
:1048300004000622210090200001FDF7D7FB04228E
:1048400021000E319001FDF7D1FB042221000A3135
:10485000A020C000FDF7CAFB0422A11DF02000012A
:10486000FDF7C4FB2948A17C0170E17C4170217DEA
:104870008170617DC170A17D017110BD081F0000B4
:10488000281F0000481F0000681F0000881F00004C
:10489000A81F000010B5040006222100902000018E
:1048A000FDF770FB042221000E319001FDF76AFB39
:1048B000042221000A31A020C000FDF763FB04227E
:1048C000A11DF0200001FDF75DFB10480178A174E7
:1048D0004178E17481782175C17861750079A0759E
:1048E00010BD0000C81F0000E81F0000081E0000E7
:1048F000281E0000481E0000681E0000881E0000E0
:10490000A81E0000C81E0000E81E0000403D002058
:1049100010B504002178D8204001FDF709FB60881C
:10492000010AC8204001FDF703FB6188C9B2D0200D
:104930004001FDF7FDFA10BDF1B40025002600206E
:104940000EE0002E00D12D19641E0F781770491C3F
:10495000521CA4B2002CF7D12E241470521C401CFF
:104960000C78491C002E00D16D1CC0272740C02F99
:104970000BD1002E00D16D1C0126009FA406A40CB3
:104980000978611879180C78491C002C09D1002885
:1049900002D12E201070521C002010702800F2BC92
:1049A00070471B1B5B1E1BB2002BCAD50020C043E7
:1049B000F5E7F0B587B007000C00150018236A462C
:1049C000FFF7BAFF0026F643B0424ED024182078F5
:1049D0000002617840180A3480B2401E0FD0401E99
:1049E00017D0C01E15D0401E2ED0401E022810D950
:1049F000401F0ED0401E15D0801E1AD039E02078FE
:104A0000287060786870A078A870E078E870241D3D
:104A10002FE018236A4621003800FFF78DFFB042CF
:104A200010D122E02078641C21180878491C0C1849
:104A30001FE0A41C18236A4621003800FFF77CFF02
:104A4000B04212D0241814E018236A46210038001E
:104A5000FFF772FFB04208D0241818236A462100DD
:104A60003800FFF769FFB04201D1002002E02418AE
:104A70001434200007B0F0BDF4B586B007000E0076
:104A80001221FEF769FE30780002717840183880F4
:104A9000B01C017809024078081880B20121020494
:104AA00000D5B9700F22C30A1340FB70430500D52F
:104AB0003971830500D57971C30500D5B971030635
:104AC00000D5F97102403A72301D01780902407830
:104AD00008187881B01D0178090240780818B8815B
:104AE000300008300178090240780818F881300059
:104AF0000A300178090240780818388234000C34F2
:104B0000002504E02418241D002C1ED06D1C78897B
:104B1000ADB285420BD218236A4621003000FFF760
:104B20000BFF0021C9438842ECD10024ECE70025AB
:104B300000E06D1CB889ADB2854209D2069A210009
:104B40003000FFF736FF0400F3D10020C04304E03B
:104B5000397A481E8041C00F40B207B0F0BDF4B5AD
:104B600088B05C4A53885B1C53801A04120E089C60
:104B70002270089A5370089DAD1CC006000C000AF4
:104B8000012202432A7000206870AD1C28700120A9
:104B90006870AD1C002028706870AD1C28706870AB
:104BA000AD1C28706870AD1C01A804F08FFA01AC30
:104BB000FEF797FD070005E02418641C684600888E
:104BC000381A471E2E21200001F014FA060003D0E7
:104BD000001B6946088001E0684607806846008837
:104BE00028706D1C6846008800280DD06846028831
:104BF0002100280001F0ECF9684600882D18002EED
:104C0000DAD1002028706D1C002028700120687007
:104C1000AD1C0020287001206870AD1C0898281A6F
:104C200000B209B0F0BD2B4A107051602A48508084
:104C30007047F6B589B007000025264C6570A56061
:104C40000023002202212078FDF7A8FA80267600B2
:104C50003300626809990020FFF781FF3521009138
:104C60003B0082B205E0491C6170352100913B0098
:104C7000020061682078FDF71BFD2078FDF7F6F94A
:104C8000010016D0711C884200DB300001A90091A0
:104C900002AB020061682078FDF7BAFD0A9A6168EC
:104CA00003A8FFF7E9FE05002078FDF700FB2800C8
:104CB00008E0A1680329E0D3A56061780229D2DB6E
:104CC000657000200BB0F0BD02488168491C81600E
:104CD00070470000143D0020221100008A4800683F
:104CE000704770B50400FEF7FCFC451C280086499F
:104CF00049688847060001D1002070BD2A002100C4
:104D0000FCF714FF300070BDF8B504008027BF0029
:104D10007D08002C1FE02668E068284004D1A068C8
:104D2000002801D0FFF7F0FFE068284005D1206996
:104D3000002802D0C34989688847E068384005D117
:104D4000206A002802D0BF49896888472000BD49F1
:104D5000896888473400DED1F1BDF1B586B00C001A
:104D600000220023002600270020AF4904AD03C520
:104D700068460CC000250120029020782D2804D11F
:104D80000020AA4904AA03C2641C2078302800D15C
:104D9000641C20783138092816D20020AB49320033
:104DA0003B00FEF7D9FA06000F0020783038FDF7F7
:104DB00033FE32003B00FEF791FB06000F00641C3F
:104DC000207830380A28E8D320782E2823D160783C
:104DD00030380A281FD2641C00209C4932003B0056
:104DE000FEF7BAFA06000F0020783038FDF714FEFF
:104DF00032003B00FEF772FB06000F00641C6846A1
:104E000003C80022894BFEF769FB6A4603C220787B
:104E100030380A28E0D32078652801D0452814D1FD
:104E2000641C20782B280AD02D2809D10020C043EB
:104E3000029004E0A900491949000D18303D641C96
:104E40002078010030390A29F4D304A803C83200BD
:104E50003B00FEF781FA06000F0002984543280048
:104E6000FDF7DAFD6A460CCAFEF738FB02000B00BC
:104E700000207649FEF758F832003B00FEF76CFA46
:104E8000069A183203C2FEF703FC06994861032014
:104E90000699C860200007B0F0BDF8B5040002D044
:104EA0002068002801D10020F2BDA268891863683B
:104EB0008B4201DB8018F2BD491E48100843811067
:104EC000014308110843011201430F140F437F1CD3
:104ED0005C4D3800696888470600206805D1A968DC
:104EE0008847002060602060F2BD626801003000E9
:104EF000FCF71CFE2068A968884767602660A068E8
:104F00003018F2BD0000000058030020F8B505007D
:104F10000C001830C0C80020002132003B0003F014
:104F200079FE12D1002C04D002212000FFF7B5FF3A
:104F300003E00220434949688847040071D03CA03F
:104F400001782170417861706BE06869FDF764FD5C
:104F500032003B00FEF725FB4900490801223A4B8D
:104F600003F08BFE1DD23000390032A20CCA03F0D0
:104F700084FE16D20022314B03F066FE11D8002CBD
:104F800004D015212000FFF788FF03E015202D49EC
:104F900049688847040044D06A6929A101F0D2FB1E
:104FA0003FE0002C04D040212000FFF776FF03E013
:104FB0004020244949688847040032D03000390035
:104FC00004F08CF832003B00FEF7EBFA4900490888
:104FD00001221D4B03F051FE0CD23000790049082C
:104FE0009EA20CCA03F049FE04D232003B0000BF6F
:104FF00017A113E03000790049089AA20CCA03F007
:105000003CFE04D30122994B03F01EFE03D832006C
:105010003B0097A102E032003B0097A1200001F085
:1050200091FB2000F2BD00000000F03F0000F0BF47
:10503000300000000100C0FFFFFFDF410000E0C1C1
:1050400025640000580300200000B03C000024400C
:10505000252E30660000000010B401000878020020
:105060001300303B0A2B01D2303809E01300413BDA
:10507000062B01D2373803E0613A062A3ED2573870
:1050800000014A7813001C00303C0A2C01D2303A4F
:1050900009E01C00413C062C01D2373A03E0613B99
:1050A000062B2BD2573A801800018A7813001C0077
:1050B000303C0A2C01D2303A09E01C00413C062C5D
:1050C00001D2373A03E0613B062B17D2573A8018DA
:1050D0000001C9780A001300303B0A2B03D2303993
:1050E000401810BC70471300413B062B01D23739E2
:1050F000F6E7613A062A01D25739F1E70020F0E7D6
:10510000F1B50C00651C00202178222908D05948EF
:10511000046012E029006D1C09785C2900D16D1C27
:105120002978222903D0002901D0401CF2D1401C4B
:10513000504949688847070001D10020F2BD651C2D
:105140003C0002E020706D1C641C2878222877D077
:10515000002875D05C28F5D16D1C287862280AD00B
:1051600066280AD06E280AD072280AD074280AD07D
:1051700075280AD060E008205EE00C205CE00A2080
:105180005AE00D2058E0092056E0681CFFF764FF44
:1051900006002D1D924830188021C90088424DD349
:1051A000002E4BD0B3483018884216D268785C285D
:1051B00044D1A878752841D1E81CFFF74DFFAD1DFB
:1051C000874941188022D200914237D2B105090B9C
:1051D0008005800D0843910146180420802E02D2DC
:1051E0000120641C20E080214202964202D202206B
:1051F000A41C13E08203964207D3E41CBF22324072
:10520000802313432370B60901E00320E41C641ECD
:10521000BF223240802313432370B609641EBF238C
:10522000334019432170B609641E00BF13A1095C05
:1052300031432170241801E02070641C6D1C84E748
:10524000002020702878222800D16D1C009807616A
:1052500004200099C8602800F2BD000044F3C2E4B5
:10526000E4E9634C8DEDB5A0F7C6B03E65CDCD4108
:105270002565000058030020256600000000C0E0FE
:10528000F0F8FC00F1B50F0000250020009C04E0C0
:105290000022030010001843641C2278002A07D063
:1052A000202A03DB222A01D05C2AF1D10122F0E777
:1052B0000028009819D1251AE81C002F04D00100FD
:1052C0003800FFF7EAFD02E07249496888470600A6
:1052D00042D022273770741C0099200003F0F6FE9C
:1052E000675500206119487078E0002813D1002F1D
:1052F00004D003213800FFF7D0FD03E00320654907
:1053000049688847060001D10020F2BD032262A14E
:10531000FCF70CFC62E0044603E0202E00DA6D1D71
:10532000641C2678002E0AD06D1C08D0310000BF06
:105330002CA000F05FFE0028EFD06D1CF0E7E91C08
:10534000002F03D03800FFF7A8FD03E00800514903
:1053500049688847060001D10020F2BD009C222741
:105360003770751C02E02870641C6D1C20780028C2
:1053700032D0202803DB222801D05C28F3D15C2026
:1053800028706D1C2278641C082A0FD0092A19D0B5
:105390000A2A11D00C2A0CD00D2A10D0222A03D0B0
:1053A0005C2A12D12870E0E72F70DEE762202870B7
:1053B000DBE766202870D8E76E202870D5E77220DA
:1053C0002870D2E774202870CFE700BF07A128001B
:1053D00001F0B8F96D1DC9E72F7068703000F2BD9B
:1053E0000024FFFF225C080C0A0D090075253034EB
:1053F00078000000F2B5060015002820254949680C
:10540000884704000027002C02D12248076028E0CA
:105410002821FEF7A1F91F480760310000E0491C70
:10542000002904D00878002801D02128F7DB2000CB
:1054300000F034F8060003D12000FFF765FC10E00F
:10544000002D10D03078002803D0212801DA761CF6
:10545000F8D13078002806D02000FFF755FC0D4821
:1054600006600020F2BD0098002800D006602000F1
:10547000F2BD00000028FFFF80B500220021FFF7E9
:10548000B9FF02BD80B500230022002100F0B2F870
:1054900002BD00005803002022220000F8B50500DC
:1054A0000C0000D19BE004224E49200003F042FE94
:1054B000002802D10220E86013E005224A492000BA
:1054C00003F038FE002802D1E860601DF2BD04221E
:1054D0004649200003F02EFE002804D10120E86098
:1054E0006861201DF2BD20780100222904D121002D
:1054F0002800FFF705FEF2BD2D2902D030380A281A
:1055000004D221002800FFF728FCF2BD5B295DD101
:1055100063D10520E860641C04D02078002801D005
:105520002128F8DB20785D284ED0282030494968B2
:10553000884707003E0002D02821FEF70DF9AE6033
:10554000002F4CD0210000E0491C002904D008782D
:10555000002801D02128F7DB3000FFF79FFF00E093
:10556000401C002804D00178002901D02129F7DB54
:10557000040034D020782C2824D128201C494968E4
:10558000884705002BD02821FEF7E6F835606E60CD
:105590002E00611C00E0491C002904D00878002876
:1055A00001D02128F7DB3000FFF778FF00E0401C36
:1055B000002804D00178002901D02129F7DB04005C
:1055C000D8D10CE05D2808D1601CF2BD7B2904D144
:1055D0002100280000F0C4F9F2BD05480460002055
:1055E000F2BD0000C4560000CC560000D4560000A6
:1055F0005803002070B50024002861D0C568002B36
:1056000036D0EDB2062D5AD801A6765DB74400BF5C
:105610001C300848505AA80005211800FFF73DFC2F
:1056200004004CD0052200BF26A112E0062118007C
:10563000FFF733FC040042D0062200BF23A108E09C
:1056400005211800FFF729FC040038D0052200BF0F
:1056500020A1FCF76BFA32E01900FFF757FC2DE0B0
:1056600019000069FFF70EFE28E000F037F825E08A
:10567000EDB2062D23D801A35B5D9F440E16061ED6
:10568000263038000FA0FFF72CFB17E00FA0FFF724
:1056900028FB13E00FA0FFF724FB0FE00021FFF72A
:1056A00035FC0BE000210069FFF7ECFD06E000236C
:1056B00000F014F802E0002300F0FEF904002000DE
:1056C00070BD00006E756C6C0000000066616C734C
:1056D000650000007472756500000000F7B588B0C1
:1056E0001F00052000900898856800200290069011
:1056F00002E0401C02902D68002D0298F9D100288C
:1057000012D1002F04D003213800FFF7C6FB03E0BD
:105710000320914949688847050000D107E1032229
:105720008EA1FCF703FA02E1002F00D186E0B868F1
:10573000049001213800FFF7B0FB040000D109E11B
:105740005B202070B868401CB8600898856809988C
:10575000401C05901EE07A68FCF7E8F93868B168EB
:1057600088477C60019838600198B9684418002C1B
:1057700000D1EFE02C202070641C0A98002802D091
:1057800020202070641C00202070B8680099401808
:10579000B8602D68002D42D03B000A9A0599280078
:1057A000FFF728FF3C68002C05D0BE68A019FDF764
:1057B00098FF301800E00020B86028680028E8D082
:1057C0000A98002803D002200090032002E0012064
:1057D00000900220002C00D1BCE0B96840187A6823
:1057E000824201DB6418C2E7401E41100143881069
:1057F0000843011101430812084304140443641CC4
:10580000554E200071688847019039680028A2D160
:105810000800B16888470020786038609AE002216B
:105820003800FFF73AFB040000D193E05D202070C0
:105830000020607038680499451878E08400464E6E
:105840002000716888470390002800D182E0210081
:10585000FDF782FF08988568039C0998401C059015
:1058600003E0012006902D68241D002D18D0069815
:10587000002815D100230A9A05992800FFF7BAFEDF
:1058800020600028EDD0FDF72CFF0A99491E8941C0
:10589000C943C90F009A10184018801C0090E2E715
:1058A0000698002846D1009871688847050041D0C5
:1058B0005B2028706C1C0020207004900298012846
:1058C0002EDB039801900298401E0590019807680E
:1058D0003800FDF706FF0090024639002000FCF773
:1058E00025F9009824180498059988420AD02C209C
:1058F0002070641C0A98002802D020202070641CAC
:105900000020207001980068B16888470498401C06
:1059100004900198001D0190049802998842D5DBFB
:105920000398B16888475D202070002060702800CF
:105930000BB0F0BD0298012809DB039C05462068E6
:10594000002801D0B1688847241D6D1EF7D1039847
:10595000B16888470020EBE7580300205B5D00003A
:10596000F8B506000C0020787B2800D09DE00620CA
:10597000F060641C04D02078002801D02128F8DBD6
:1059800020787D2800D18EE028204A494968884740
:1059900007003D0002D02821FDF7DEFEB560002F94
:1059A00000D184E0210000E0491C002904D00878DF
:1059B000002801D02128F7DB2800FFF7A1FB00E039
:1059C000401C002804D00178002901D02129F7DBF0
:1059D00004006CD02869286200262E6120783A28BD
:1059E00063D1611C00E0491C002904D0087800281C
:1059F00001D02128F7DB2800FFF750FD00E0401C14
:105A0000002804D00178002901D02129F7DB040007
:105A10004DD020782C2844D1282026494968884731
:105A2000070044D02821FDF797FE2F607D603D00E0
:105A3000611C00E0491C002904D00878002801D02E
:105A40002128F7DB2800FFF75BFB00E0401C002863
:105A500004D00178002901D02129F7DB040026D0E9
:105A60002800103001680161066020783A281CD1B6
:105A7000611C00E0491C002904D00878002801D0EE
:105A80002128F7DB2800FFF709FD00E0401C002873
:105A900004D00178002901D02129F7DB0400B8D116
:105AA00005E07D2801D1601CF2BD024804600020A1
:105AB000F2BD000058030020FDB588B00E00072598
:105AC000002000900898876800200190049002E070
:105AD000401C01903F68002F0198F9D100280A98D6
