:100000003017002065CF0000673A0000633D000014
:1000100000000000000000000000000000000000E0
:1000200000000000000000000000000083520000FB
:1000300000000000000000000F53000013530000F8
:100040005F8D000039C200008BBC000069A0000079
:10005000EB9B00000000000079C30000EBA500004E
:10006000D9C300000BC4000039C40000BFD3000096
:10007000CBD3000065DB000067DB000069DB00001C
:100080001B9C00006BDB00006DDB00006FDB0000E1
:1000900071DB000073DB000075DB000077DB000024
:1000A00079DB00007BDB00000000000000000000A6
:1000B0000000000000000000000000000000000040
:1000C000E022520080180268914203D34368D2189C
:1000D000914202D380680028F5D170471948016821
:1000E00000290ED180214902816009094160002167
:1000F000C943C160016104214161134A1160134980
:1001000001600120704730B4030007240800083064
:10011000204201D1002404E0082508000830281AF4
:1001200004400819111B9861D96001220A434260FA
:1001300028224018426003480069D86130BC7047EB
:1001400000000000FC350020F03200206859883C97
:10015000F0B587B00700072408000830204201D11D
:10016000029106E0082508000830281A20400818E7
:10017000029010000830204205D0082110000830FD
:10018000081A0440121914000298C018039005467A
:100190000298201AC01A0190032633430298436044
:1001A000A54201D301F0D2FA2079C00701D401F0B1
:1001B000CDFA0198102801D201F0C8FAB86984423A
:1001C00008D1F86801994018F860BD610121014328
:1001D00069606EE17869844209D1B8680199401874
:1001E000B8607D61012101436960285061E1606868
:1001F0000640012E00D0BBE0072188430590C008CF
:1002000020283ED2A1680091E6680490B44201D152
:1002100001F09CFA0098844201D101F097FA6068DD
:10022000072188430499C900884201D001F08EFA61
:100230000498C0003918009A08002830824208D07B
:1002400010463A69904200D28AE0C068A04200D0CD
:1002500086E00098864206D138680121049A9140D0
:10026000884338607EE028318E4205D03869864266
:1002700076D3B068A04273D10098C6600098B06091
:1002800070E0A0690090E668A6420CD0A0683969C9
:10029000884225D3C168A14222D1B168A1421FD1B1
:1002A000C660B0601EE0210014310E68002E07D138
:1002B000210010310E68002E14D001E001000E68FC
:1002C000300014300268002AF8D130001030026883
:1002D000002AF3D13869814202D30020086001E08E
:1002E00001F034FA009800283CD0E069800038180A
:1002F00098214900401801688C4209D10660002EFF
:1003000014D178680121E26991408843786029E03E
:1003100000983969884207D30069A042009801D14A
:10032000066103E0466101E001F010FA002E19D0E9
:100330003869864214D30099B1612169002906D039
:10034000814202D331618E6101E001F0FFF9606901
:10035000002807D03969884202D37061866101E0C4
:1003600001F0F4F9059824180198059940180190B6
:1003700060680121884360600198014369600198C9
:1003800028500198C008202822D20090C0003C18B4
:10039000283426000198102801D201F0D7F93868D6
:1003A00000990200CA40D10705D40121009A91406A
:1003B0000143396007E0A0683969884201D306002B
:1003C00001E001F0C3F9A560F560AE60EC6070E09B
:1003D0000198000A01D1002225E0802149028842CB
:1003E00001D31F221FE0FF21C9434118090C082235
:1003F00011408840314A8218120C04231A40904060
:100400002F4BC3181B0C022423400E24611A891A97
:10041000C91A9840C00B08184100019AC01DC2407B
:10042000D007C00F0A1890003818982149004118C9
:10043000EA610020686128617B681C00D440E40701
:1004400005D401209040184378600D601DE00968D4
:100450001F2A01D1002302E0192352089B1A019A96
:100460009A4000E019004B680724A343019CA34273
:1004700010D0D30F9B00CC18103452002368002BEF
:10048000F0D13869844212D32560A961ED600398E8
:10049000A8600EE08A683B69994208D39A4206D365
:1004A000D560039B8B60AA60E960A86101E001F060
:1004B0004DF90298083007B0F0BD000000F0FFFFD2
:1004C00000C0FFFFF2B586B0040091480068002824
:1004D00001D1FFF703FE8E488168069840182F303F
:1004E000491E88430699814200D3D9E1D8214900A9
:1004F00061188968002909D0D8225200A258101822
:10050000824200D3CCE1814200D2C9E101F028F956
:10051000002800D1C4E10700006800900020C0431B
:10052000874200D1BCE1D8204000205800994018F3
:10053000D8214900605061184968814200D2010009
:10054000D820400020184160A069002838D12069D7
:10055000002801D0874200D22761D820400020180F
:1005600007610098D8214900611848610020D8210E
:1005700049006118C8616648006860620020C04395
:100580002062002021002831C9600A000832116071
:10059000D2609260801C10312028F5D3C24884427A
:1005A00003D1009A283A390028E0201F006807216B
:1005B00088432118083900983818421A283A1DE053
:1005C000E0204000201800E0806800281AD0016870
:1005D000426889188F42F7D1017B090712D4A169BB
:1005E000026891420ED34368D21891420AD2009910
:1005F00059184160E06800994218A1692000FFF78E
:1006000082FD3AE12069874200D22761E020400064
:1006100020180099791800E08068002810D002683E
:100620008A42F9D1017B09070AD407604168009B1F
:10063000C9184160069B39002000FFF789FD30E1B1
:10064000A0690290054629002000FFF739FD0168E6
:1006500040680818059001462F3908000830400707
:1006600001D1002005E0082208000830101A4007D8
:10067000400F091828001030814201D2019500E096
:100680000191019808300490019E183600200390D3
:100690000099283938000830400701D1002205E0D0
:1006A000082238000830101A4207520FB818891A69
:1006B000A061E16001220A434260282240184260A2
:1006C00013480069E0610498400701D001F03EF84A
:1006D0001B20019948600498E0214900611810220C
:1006E00001F068F8D8204000201807610098D82150
:1006F0004900611848610020D82149006118C8618B
:100700000498D821490061188861059803E000BF6A
:10071000FC3500200E00311D07227260039A521C26
:1007200003920A1D8242F5D30398022801DA01F0F0
:100730000DF80198A84200D19FE0401B29184A6893
:1007400001239A434A60012202436A600860C1089B
:10075000202921D20091C9006618283637001028B8
:1007600001D200F0F3FF206800990200CA40D107CF
:1007700005D40121009A91400143216007E0B0684F
:100780002169884201D3070001E000F0DFFFB56076
:10079000FD60AF60EE6070E0010A01D1002226E04A
:1007A0001A04914201D31F2221E0FF22D2438A186A
:1007B000120C08231A40009291403C4A8A18120CED
:1007C00004231A4091403A4BCB181B0C02263340AD
:1007D0000E26009FF61BB21AD21A9940C90B511867
:1007E0004A00C91D0300CB40D907C90F5218910018
:1007F000611898235B00C918EA6100236B612B61C3
:1008000063681E00D640F60705D4012090401843C7
:1008100060600D601CE009681F2A01D1002302E01E
:10082000192352089B1A02009A4000E019004B68F5
:100830000726B343834210D0D30F9B00CE18103647
:1008400052003368002BF1D12069864213D3356002
:10085000A961ED600298A8600FE088682269914262
:1008600009D3904207D3C560029A8A60A860E96004
:100870000020A86101E000F069FFE068069981426C
:100880000ED2411AE160A069069A8218A261012382
:100890000B435360069903220A434260083000E08C
:1008A000002007B0F0BD00003431002000F0FFFF51
:1008B00000C0FFFFF2B584B007000020009004984C
:1008C0004442000A25D080214902884201D31F20DA
:1008D0001FE0FF21C9434118090C0822114088403C
:1008E000B64A8218120C04231A4090400E4BC318CB
:1008F0001B0C02252B400E25691A891AC91A98402B
:10090000C00B08184100049AC01DC240D007C00F98
:10091000081881007918982252008A58002A29D094
:100920001F2803D1002304E000C0FFFF1921430862
:10093000CB1A04999940002300E049005568072626
:10094000B543049EAD1BA54202D200922C000CD0F0
:100950005569CE0FB60092191269002D02D095424A
:1009600000D02B00002AE8D11A00002A3FD10099BC
:1009700000293ED10121012282405000434203431D
:100980007A681A4000D17FE150421040401E020BAD
:1009900010231A40D040430908252B400293D84029
:1009A000830804252B40D840450802263540019590
:1009B000E84045082940029D5219D218019BD218DF
:1009C0005218C84010188000381898214900425821
:1009D0000DE002005068072188430499401AA042A4
:1009E00001D20400009210690028F2D15269002A55
:1009F000F0D10098002800D146E1B8680499401A67
:100A0000844200D340E1009E3869864200D239E139
:100A100070180390054604982018029000984068CA
:100A2000072188430299884201D000F08FFEAE4230
:100A300000D327E10098806901900098C66886423B
:100A40000ED0009880683969884226D3C168009A20
:100A5000914222D1B16891421FD1C660B0601EE0C0
:100A6000009914310E68002E07D1009910310E68DC
:100A7000002E14D001E001000E683000143002682E
:100A8000002AF8D1300010300268002AF3D138690A
:100A9000814202D30020086001E000F057FE019877
:100AA000002843D00098C069800038189821490078
:100AB00040180099026891420AD10660002E16D1B2
:100AC00078680121009AD2699140884378602DE0CE
:100AD00001983969884208D30069009988420198D1
:100AE00001D1066103E0466101E000F02FFE002E17
:100AF0001CD03869864217D30198B061009800690C
:100B0000002807D03969884202D33061866101E04C
:100B100000F01CFE00984069002807D0396988421F
:100B200002D37061866101E000F010FE0320012114
:100B3000102C0AD2029A1043009A50600098029A30
:100B4000801842681143416099E0049A1043009A6A
:100B500050600120204368602C51E008202819D201
:100B6000C200BC18283426003A681300C3400B406A
:100B700003D181401143396007E0A0683969884298
:100B800001D3060001E000F0E1FDA560F560AE6074
:100B9000EC6074E0200A01D100222BE00A049042AC
:100BA00001D31F2226E0FF22D2438218120C082311
:100BB0001A4001929040014A02E000BF00F0FFFF9E
:100BC0008218120C04231A409040314BC3181B0C9E
:100BD0000226334002930E23019E9B1B9A1A029B0E
:100BE000D21A9840C00B10184200C01D2300C34009
:100BF0000B40D2189000381898235B00C018EA61A7
:100C000000236B612B617B681E00D6400E4004D12F
:100C100091401943796005601CE000681F2A01D1EA
:100C2000002202E0192152088A1A2100914000E0B6
:100C30001000426807239A43A24210D0CA0F9200C4
:100C40008318103349001A68002AF1D139698B42A0
:100C500013D31D60A861ED600398A8600FE0816860
:100C60003A69904209D3914207D3CD60039A8260DA
:100C7000A960E8600020A86101E000F067FD00982D
:100C8000083002E000F062FD002005B0F0BD000079
:100C900000C0FFFFF2B586B004006168484208401A
:100CA000401E010B10221140C840420908231A407F
:100CB000D040830804252B40D84045080226354003
:100CC000E8408607F60F8918C91849198919F040B4
:100CD00008188000201898214900405805004168F4
:100CE00007229143069A8F1A09E0080041680722FB
:100CF0009143069A891AB94201D20F000500016991
:100D00000029F2D140690028F0D12069854200D243
:100D1000D2E0A81803900698381801906868072157
:100D200088430199884201D000F010FD0398854264
:100D300000D3C1E0A8690090EE68AE420CD0A8686C
:100D40002169884225D3C168A94222D1B168A9424C
:100D50001FD1C660B0601EE0290014310E68002E5D
:100D600007D1290010310E68002E14D001E00100D7
:100D70000E68300014300268002AF8D130001030BC
:100D80000268002AF3D12069814202D30020086062
:100D900001E000F0DBFC009800283DD0E86980000D
:100DA000201898214900401801688D4209D1066039
:100DB000002E14D160680121EA6991408843606087
:100DC0002AE000982169884207D30069A842009868
:100DD00001D1066103E0466101E000F0B7FC002E9E
:100DE0001AD02069864215D30098B061286900287E
:100DF00007D02169884202D33061866101E000F0AA
:100E0000A5FC6869002807D02169884202D3706177
:100E1000866101E000F09AFC0320102F09D20199AD
:100E20000843686001982818416801220A4342601B
:100E30003FE0069908436860012038430399486001
:100E40000398C751A0680090C608202E01D300F077
:100E50007DFC0098002829D0606902900196F0007E
:100E60002618283604960098102801D200F06EFC4F
:100E7000206801990200CA40D10705D40121019AD6
:100E800091400143216007E0B0682169884201D3A5
:100E9000049001E000F05AFC0298B06002980499B6
:100EA000C8600498029988600298C660A760039899
:100EB00060610835280002E000F048FC002007B01F
:100EC000F0BDF0B587B00400C046C046BB4DF52C60
:100ED00000D328E10B2C01D2102402E00B340720B0
:100EE0008443E008019028680199C84003273842EC
:100EF00050D001260122824388180190C0002C188E
:100F00002834A06800900198C000039000984068C1
:100F1000072188430399884201D000F017FC00980C
:100F2000806802900098A04201D100F00FFC009868
:100F30000299884201D100F009FC0098406807211D
:100F400088430399884201D000F000FC0298844253
:100F500006D12968019A01209040814329600DE063
:100F60002969884208D3C0680099884204D1029850
:100F7000A0600298C46001E000F0E8FB039807431A
:100F80000098476000980399401841680E434660F6
:100F9000009E06E1A968A14200D3D7E0002800D155
:100FA000B7E00126019901228A405100019A904040
:100FB0004A420A43024051421140491E080B102286
:100FC0001040C1404A0908231A400092D1408A08C3
:100FD00004231A400192D1404A0802231A40029287
:100FE000D1404A083240009BC018019BC018029BA8
:100FF000C0188018D14040180390C000281828302D
:101000000090806804900398C000029004984068A3
:10101000072188430299884201D000F097FB049889
:101020008068019004980099884201D100F08EFBFD
:1010300004980199884201D100F088FB0498406827
:10104000072188430299884201D000F07FFB009875
:101050000199884206D12968039A01209040814372
:10106000296010E00846296988420AD3C0680499BB
:10107000884206D101980099886000980199C8605B
:1010800001E000F063FB0298001B039027430498E3
:10109000476004980019059003983043059948600B
:1010A000039805990850A8680190C408202C01D322
:1010B00000F04CFB0198002825D06869029000944C
:1010C000E0002C18283427000198102801D200F0E5
:1010D0003DFB286800990200CA40324003D18E408F
:1010E00006432E6007E0A0682969884201D3070003
:1010F00001E000F02BFB0298A0600298F8600298D3
:1011000087600298C4600398A86005986861049E8F
:1011100047E06868002836D021002800FFF7BAFDB4
:10112000060013D044E03F20C043844202D3002491
:10113000E4430BE00B34072084436868002805D0A3
:1011400021002800FFF7B6FB060031D1A968A142B3
:1011500019D30A1B686901260327102A08D301192D
:101160006961AA6016434E608A502743476008E0D1
:101170000022AA606A610F43476041184A6816431B
:101180004E6006000DE0E86884420CD2001BE86067
:10119000AE693119A961012202434A60032020434C
:1011A0007060083604E021002800FFF78BF9060084
:1011B000C046C046300007B0F0BD0000343100200A
:1011C000002800D17047F0B585B008380500C0464A
:1011D000C046474C21698D4200D2ADE268680322C7
:1011E00003230340012B00D1A6E2C308DB000293D6
:1011F000EB1800930126304240D12B68104000D1FB
:101200009CE20298C0180290ED1A8D4200D293E23F
:101210006069854200D1F0E0D808202800D37CE046
:10122000A9680191EF680390BD4201D100F08EFAE8
:101230000198854201D100F089FA68680721884346
:101240000399C900884201D000F080FA0398C000D9
:101250002118019A08002830824206D010462269DF
:10126000904257D3C068A84254D10198874243D1D5
:101270002168039A012090408143216000988542B3
:1012800000D359E24068304200D155E2810700D5D1
:10129000A6E10099A269914200D0C0E0E0680299FD
:1012A0004118E160A5610E436E606069854202D11C
:1012B00000206061A060E069884200D33EE20D48F2
:1012C0000068002801D1FEF709FFA169002900D1BB
:1012D00034E2E068292802D32000FEF7F1FEE0693D
:1012E000E168884200D329E20020C043E06125E2A2
:1012F00034310020FC35002028318F4205D0206990
:10130000874207D3B868A84204D10198C760019802
:10131000B860B3E700F01AFAB0E7A8690190EF6887
:10132000AF420BD0A868884224D3C168A94221D11A
:10133000B968A9421ED1C760B8601DE02A00143206
:101340001768002F07D12A0010321768002F13D01A
:1013500001E002001768380014300368002BF8D150
:10136000380010300368002BF3D18A4202D30020EA
:10137000106001E000F0EAF90198002800D17DE753
:10138000E8698000201898214900401801688D42C2
:1013900009D10760002F14D16168EA6901209040EB
:1013A000814361606AE701982169884207D3006937
:1013B000A842019801D1076103E0476101E000F014
:1013C000C5F9002F00D159E720698742A2D30199BE
:1013D000B9612969002906D0814202D339618F6140
:1013E00001E000F0B3F96869002800D146E72169FF
:1013F00088428FD37861876140E700984068024057
:10140000032A00D03AE70298A06000984068B043F1
:1014100000994860029806436E60029809E062698C
:10142000914208D1A06802994018A0606561064306
:101430006E60285082E107218843029909180291C1
:10144000C008202846D20099896803910099CF6886
:1014500001900098B84201D100F078F90098039902
:10146000884201D100F072F9009840680721884352
:101470000199C900884201D000F068F90198C000C4
:101480002118039A08002830824209D010462269A8
:10149000904200D297E0C068009A904200D092E05B
:1014A0000398874206D12168019A01209040814328
:1014B00021608AE028318F4207D02069874200D21C
:1014C00081E0B868009988427DD10398C76003988D
:1014D000B8607AE00098806901900098C7688742F8
:1014E0000ED0009880682169884226D3C168009A8E
:1014F000914222D1B96891421FD1C760B8601EE005
:10150000009914310F68002F07D1009910310F682E
:10151000002F14D001E001000F6838001430026879
:10152000002AF8D1380010300268002AF3D120696F
:10153000814202D30020086001E000F007F9019821
:10154000002842D00098C0698000201898214900E6
:1015500040180099026891420AD10760002F16D105
:1015600061680098C26901209040814361602CE06D
:1015700001982169884208D300690099884201983E
:1015800001D1076103E0476101E000F0DFF8002FBF
:101590001BD02069874216D30199B9610099096966
:1015A000002906D0814202D339618F6101E000F049
:1015B000CDF800984069002807D02169884202D3FD
:1015C0007861876101E000F0C1F8029830436860FB
:1015D00002982850606985420AD10298A060ADE067
:1015E000B0430099486002983043686002982850E0
:1015F0000298C008202822D20090C000271828375F
:1016000001970298102801D200F0A0F820680099F4
:101610000200CA40324003D18E400643266007E0F4
:10162000B8682169884201D3019001E000F08EF88A
:10163000BD600198C5600198A860EF607EE00298E7
:10164000000A01D1002225E03104884201D31F2283
:1016500020E0FF21C9434118090C082211400091E4
:10166000884038494118090C042211408840364A04
:101670008218120C02231A400E23009FDB1B591AFA
:10168000891A9040C00B08184100029AC01DC24040
:1016900032408A1890002018982149004118EA61C8
:1016A00000206861286163681F00D740374004D17B
:1016B00096401E4366600D601DE009681F2A01D137
:1016C000002302E0192352089B1A029A9A4000E074
:1016D00019004B680726B343029EB3420FD0D30FC5
:1016E0009B00CE18103652003368002BF0D12069D1
:1016F000864210D33560A961ED60AD600DE08A6867
:101700002369994207D39A4205D3D5608D60AA60B8
:10171000E960A86101E000F019F8206A401E20622B
:101720000CD1E4204000205800E080680028FCD163
:101730000020C043206201E000F008F8C046C04627
:1017400005B0F0BD00F0FFFF00C0FFFF80B5012035
:1017500000F04AF801BD0268531C03601170704725
:1017600007490868002801D0002070470548072273
:101770009043086004499143091A0160704700BF13
:101780000437002037170020301F0020124207D0F6
:101790008B0706D00B78491C0370401C521EF7D8EB
:1017A0007047830706D00B78491C0370401C521EFB
:1017B000F9D1704770B4103A03D378C9103A78C0A1
:1017C000FBD2530701D318C918C001D508C908C0F6
:1017D000D20704D30B880380891C801C002A01D502
:1017E0000B78037070BC704780B5C046C046024A93
:1017F00011001820ABBEFBE72600020093480068EA
:10180000704770B505000C00002D05D1A54201D12F
:10181000002000E001201BE0002C03D1012017E094
:101820006D1C641C287801F069FA0600207801F02C
:1018300065FA864204D128780028F1D1002007E01B
:10184000287801F05BFA0500207801F057FA281A91
:1018500070BD70B50500280001F059FA0400641C41
:101860002000A049096888470600002E01D1002009
:1018700005E0290022003000FFF788FF300070BD2E
:1018800010B528209749096888470400002C04D027
:1018900028210022200001F043FA200010BD38B5B5
:1018A000040022E02568E068C00505D4A06800288F
:1018B00002D0A068FFF7F3FFE068C00506D42069F6
:1018C000002803D02069884909688847E0688005B6
:1018D00006D4206A002803D0206A83490968884713
:1018E00020008149096888472C00002CDAD131BDDD
:1018F000F1B586B00C000026002700207B4904AA21
:1019000003C2083A002000216A4603C2083A0025B3
:101910000120029020782D2805D10020744904AAC6
:1019200003C2083A641C2078302800D1641C207857
:101930003138092816D200206E4932003B0001F0F0
:101940001BFA06000F002078303801F0D7FA320079
:101950003B0001F0EDFA06000F00641C20783038DF
:101960000A28E8D320782E2824D1607830380A2835
:1019700020D2641C00205F4932003B0001F0FCF9DA
:1019800006000F002078303801F0B8FA32003B0032
:1019900001F0CEFA06000F00641C684603C800225E
:1019A000534B01F0C5FA6A4603C2083A2078303832
:1019B0000A28DFD32078652802D02078452817D15F
:1019C000641C20782B2801D1641C0DE020782D2880
:1019D0000AD10020C0430290641C05E00A20454360
:1019E00020782D18303D641C207830380A28F5D333
:1019F00004A803C832003B0001F0BEF906000F0046
:101A000002984543280001F079FA6A460CCA01F0B1
:101A10008FFA02000B000020364901F0D1FD3200A0
:101A20003B0001F0A9F906000F0006981830C0C06D
:101A300008383000390001F0DBFF069948610320C7
:101A40000699C860200007B0F0BD0000A436002051
:101A5000401E41100143080081100143080001119C
:101A6000014308000112014308000114014308006A
:101A7000401C704770B504000800002C02D021689B
:101A8000002901D100202BE0A16840186168814243
:101A900003DB2068A168401822E0FFF7D9FF0600A9
:101AA00030001049096888470500002D09D12068D9
:101AB0000D490968884700206060002020600020F0
:101AC0000EE0002D04D0626821682800FFF75EFE5A
:101AD000206805490968884766602560A06828185D
:101AE00070BD0000C4000020C80000200000F03FCE
:101AF0000000F0BF0000244010B50400002C02D00C
:101B00002068002801D1002006E02068A168401864
:101B100001F0FDF8A168081810BDF2B50500002419
:101B200028001830C0C808380020002132003B00CF
:101B300001F087FF15D10098002805D002210098F8
:101B4000FFF798FF040004E002204C490968884729
:101B50000400002C00D184E043A1200001F084FFA8
:101B60007FE0686901F0CAF932003B0001F043FAF6
:101B7000490049080122424B01F07EFF23D2300088
:101B800039003AA20CCA01F077FF1CD230003900AC
:101B90000022384B01F089FF15D80098002805D0A5
:101BA00015210098FFF766FF040004E01520334973
:101BB000096888470400002C53D06A692EA12000D0
:101BC00001F08CFF4DE00098002805D040210098DE
:101BD000FFF750FF040004E04020284909688847C7
:101BE0000400002C3DD03000390001F093FF32009A
:101BF0003B0001F000FA490049080122204B01F0A6
:101C00003BFF0FD230003900490049081DA20CCA21
:101C100001F032FF06D232003B001C49200001F0E7
:101C20005DFF1EE0300039004900490818A20CCAC7
:101C300001F022FF08D33000390049004908012291
:101C4000154B01F032FF06D832003B00B6A1200050
:101C500001F044FF05E032003B00B4A1200001F098
:101C60003DFF2000F2BD0000300000000100C0FF79
:101C7000FFFFDF410000E0C125640000C400002038
:101C80000000B03C44F3C2E4E4E9634C4CDA0000E9
:101C90008DEDB5A0F7C6B03E65CDCD4100B50100D4
:101CA00000200A78303A0A2A1ED20A78303A801880
:101CB0000001491C0A78303A0A2A27D20A78303AB9
:101CC00080180001491C0A78303A0A2A30D20A7872
:101CD000303A80180001491C0A78303A0A2A39D271
:101CE00009783039401800BD0A78413A062A03D2F3
:101CF0000A78373A8018DBE70A78613A062A03D275
:101D00000A78573A8018D3E70020ECE70A78413A7E
:101D1000062A03D20A78373A8018D2E70A78613A5D
:101D2000062A03D20A78573A8018CAE70020DAE771
:101D30000A78413A062A03D20A78373A8018C9E766
:101D40000A78613A062A03D20A78573A8018C1E71E
:101D50000020C8E70A78413A062A03D209783739C1
:101D60004018C0E70A78613A062A03D20978573941
:101D70004018B8E70020B6E7F1B50D002C00641C50
:101D80000020297822290AD0694805600020CAE08D
:101D900021000C00641C09785C2900D1641C2178A6
:101DA000222905D02178002902D0401C0028EFD13B
:101DB000401C6049096888470700002F01D10020B6
:101DC000B1E06D1C2C003D0003E020782870641CFD
:101DD0006D1C2078222800D199E02078002800D1BD
:101DE00095E020785C28F0D1641C207862280AD025
:101DF00066280CD06E280ED0722810D0742812D00D
:101E0000752814D07EE0082028706D1C7DE00C2021
:101E100028706D1C79E00A2028706D1C75E00D207B
:101E200028706D1C71E0092028706D1C6DE0200089
:101E3000401CFFF733FF0600241DDC200002301A8F
:101E40008021C900884201D3002E00D15DE0D82056
:101E50000002301A8021C90088421BD260785C28B9
:101E600002D1A078752800D04FE02000C01CFFF7F9
:101E700015FFA41DDC210902411A8022D2009142E3
:101E800043D2B105890D89028005800D0843802168
:101E9000490246180420802E01D201200AE0802148
:101EA00009018E4201D2022004E0802149028E42C3
:101EB00000D203202D1801281DD021D303280AD0D9
:101EC00011D304281CD16D1E3100BF220A4080218D
:101ED00011432970B6096D1E3100BF220A408021CE
:101EE00011432970B6096D1E3100BF220A408021BE
:101EF00011432970B6096D1EA849095C3143297048
:101F00002D1802E0207828706D1C641C61E7002009
:101F100028702078222800D1641C009807610420D2
:101F20000099C8602000F2BD25650000256600000C
:101F3000A4360020C4000020F1B582B00C000026B9
:101F40000020029D04E000210200080010436D1CE7
:101F5000297800290DD02978002902D02978202954
:101F600005DB2978222902D029785C29EBD10121CF
:101F7000EAE7002823D102982E1A002C06D031005F
:101F8000C91C2000FFF776FD070005E03000C01CEB
:101F90008349096888470700002F01D10020ACE081
:101FA0003C0022202070641C0299200001F05CFD9E
:101FB0002220A0550020A119487038009DE0029809
:101FC000002816D1002C05D003212000FFF752FD78
:101FD000070004E003207249096888470700002FC2
:101FE00001D1002089E09AA1380001F03DFD3800C0
:101FF00083E0029D05E068460078202800DA761D1F
:102000006D1C287869460870C0B200280BD0761C79
:10201000002E08D0684601788E4801F0A7FD002800
:10202000E9D0761CECE7002C06D0F61C310020002D
:10203000FFF720FD070005E0F61C3000584909684D
:1020400088470700002F01D1002056E03C00029D88
:1020500022202070641C03E0287820706D1C641C12
:102060002878002842D02878202805DB28782228E4
:1020700002D028785C28EFD15C202070641C28787E
:102080006D1C69460870C0B2082813D0092821D0F9
:102090000A2817D00C2811D00D2817D0222805D0D7
:1020A0005C281BD15C202070641CD9E722202070A2
:1020B000641CD5E762202070641CD1E76620207084
:1020C000641CCDE76E202070641CC9E7722020706C
:1020D000641CC5E774202070641CC1E76846027860
:1020E0009D49200001F0FAFC641DB9E72220207010
:1020F000641C00202070641C3800FEBD80B500699F
:10210000FFF71AFF02BD00B500E0401C002805D013
:102110000178002902D001782129F6DB00BDF1B554
:102120000F0014000026FFF7ABFB050000208B49D1
:102130000860002D01D1002022E00098FFF7E3FFA6
:102140000100280000F02EF80600002E04D128001F
:10215000FFF7A5FB002013E0002C0DD03000FFF7A7
:10216000D2FF06003078002806D02800FFF797FB42
:102170007A480660002003E0002F00D03E6028006F
:10218000F2BD80B500220021FFF7C9FF02BD80B576
:1021900000230122002100F05FF802BD7CDA00007C
:1021A000C400002038B505000C00002C01D100202F
:1021B0004CE004229449200001F0DCFC002804D10A
:1021C0000220E860241D200040E005228F49200005
:1021D00001F0D0FC002804D10020E860641D20003C
:1021E00034E004228A49200001F0C4FC002806D112
:1021F0000120E86001206861241D200026E020788D
:10220000222804D121002800FFF7B6FD1EE0207827
:102210002D2803D0207830380A2804D22100280045
:10222000FFF766FB12E020785B2804D1210028002C
:1022300000F096F80AE020787B2804D121002800DD
:1022400000F020FA02E045480460002032BD0000A2
:102250002222000054DA000038B50024002801D101
:10226000002078E0002B44D0057BEDB2EDB2002DCC
:1022700015D0022D07D01ED3042D2DD027D3062D27
:1022800033D02ED366E005211800FFF7F3FB0400DE
:10229000002C03D05C49200001F0E6FB5AE0062147
:1022A0001800FFF7E7FB0400002C03D0574920007B
:1022B00001F0DAFB4EE005211800FFF7DBFB04001C
:1022C000002C03D05249200001F0CEFB42E019005F
:1022D000FFF723FC04003DE01900FFF70FFF0400A7
:1022E00038E000F097F8040034E000F057FA0400FA
:1022F00030E0037BDBB2DBB2002B0ED0022B07D029
:1023000010D3042B18D012D3062B1FD019D321E0E1
:102310003D48FFF79EFA04001CE03C48FFF799FA9D
:10232000040017E03A48FFF794FA040012E0002195
:10233000FFF7F3FB04000DE00021FFF7DFFE0400D0
:1023400008E0002300F066F8040003E0002300F03A
:1023500025FA0400200032BD5CDA0000A43600201B
:1023600070B504000E0030785B2803D0C2480660C8
:10237000002047E00520E060761C3000FFF7C3FE38
:10238000060030785D2802D1761C30003AE0FFF775
:1023900077FA0500A060A068002801D1002031E094
:1023A0003000FFF7B0FE01002800FFF7FBFEFFF74B
:1023B000AAFE0600002E01D1002023E030782C2850
:1023C00017D1FFF75DFA002801D100201AE028603C
:1023D00045600500761C3000FFF795FE01002800DF
:1023E000FFF7E0FEFFF78FFE0600002EE6D100208B
:1023F00008E030785D2802D1761C300002E09E486B
:102400000660002070BD000064DA00006CDA000095
:1024100074DA0000FFB585B000200090052605980D
:10242000876800200290002500200390002004907F
:1024300003E00298401C02903F68002FF9D10298F7
:10244000002816D10898002805D003210898FFF726
:1024500011FB009004E00320884909688847009038
:102460000098002803D086A1009801F0FDFA00989A
:1024700000E1089800285CD0089885680121089838
:10248000FFF7F8FA0400002C01D10020F2E05B20F5
:10249000207008988068401C0899886005988768B3
:1024A00010E02C202070641C0798002802D0202007
:1024B0002070641C0020207008988068801908999A
:1024C00088603F68002F21D0039800281ED1089B08
:1024D000079A0699491C3800FFF7BEFE0898FFF7D7
:1024E0000BFB0899886038680028EAD00798002814
:1024F00001D0022600E001263100491C0898FFF7B0
:10250000B9FA0400002CCCD10020B3E002210898D5
:10251000FFF7B0FA0400002C01D10020AAE05D20F2
:102520002070641C002020700898006840190090FA
:102530009FE0029804214843504909688847019068
:102540000198002801D1002094E002990420414321
:102550000022019C200000F0E3FB0598876802E060
:10256000012003903F68002F1CD00398002819D148
:102570000023079A0699491C3800FFF76DFE019960
:1025800004226A4388506D1C0028E9D000F0BFFB8C
:102590000799002901D0012100E0002130184618D8
:1025A000B61CDFE70398002804D1300033490968DE
:1025B000884700900098002801D1012003900398DB
:1025C000002818D000250DE00198042169434058E7
:1025D000002806D001980421694340586D490968D4
:1025E00088476D1C02988542EEDB019869490968AD
:1025F000884700203EE05B2000990870009C641C26
:1026000000202070002527E00198042169434058EC
:1026100000F07DFB0490049A01980421694341581D
:102620002000FFF7B3F8049824180298401E854252
:102630000AD02C202070641C0798002802D020208B
:102640002070641C002020700198042169434058C8
:102650005049096888476D1C02988542D4DB01986F
:102660004C49096888475D202070641C0020207058
:10267000641C009809B0F0BDA4360020C4000020FE
:102680005B5D000070B505000E0030787B2803D03C
:102690004148066000207BE00620E860761C3000A0
:1026A000FFF731FD060030787D2802D1761C30001E
:1026B0006EE0FFF7E5F80400A860A868002801D1E3
:1026C000002065E03000FFF71EFD01002000FFF74D
:1026D00053FBFFF718FD0600002E01D1002057E044
:1026E000206920620020206130783A2803D02A48EF
:1026F000066000204CE0761C3000FFF704FD01006E
:102700002000FFF74FFDFFF7FEFC0600002E01D171
:1027100000203DE030782C2831D1FFF7B1F80028B7
:1027200001D1002034E0206044600400761C3000B9
:10273000FFF7E9FC01002000FFF71EFBFFF7E3FCB9
:102740000600002E01D1002022E020692062002036
:10275000206130783A2803D00F480660002017E047
:10276000761C3000FFF7CFFC01002000FFF71AFDB8
:10277000FFF7C9FC0600002ECCD1002008E030781D
:102780007D2802D1761C300002E00348066000205C
:1027900070BD0000C8000020A4360020FFB587B03F
:1027A00000200090002002900020019007260025C4
:1027B000079887680020039000200490002005906F
:1027C00003E00398401C03903F68002FF9D1039861
:1027D00000283AD10A9800280BD00998002802D086
:1027E0000899091D00E003210A98FFF743F90190B9
:1027F0000AE00998002802D00898001D00E0032094
:10280000B4490968884701900198002801D1002047
:102810000AE2019C7B202070641C099800280CD0DF
:102820000A202070641C002503E009202070641C2D
:102830006D1C0898401E8542F7DB7D202070641CCB
:1028400000202070641C0198EEE10A98002800D155
:10285000C6E00A9885680998002801D0022600E0A1
:1028600001263100491C0A98FFF704F90400002CE6
:1028700001D10020D8E17B202070641C0998002839
:1028800002D00A202070641C002020700A98806802
:1028900080190A998860079887680898401C0890F2
:1028A00013E03868002802D02C202070641C09989E
:1028B000002802D00A202070641C002020700A9892
:1028C000806880190A9988603F68002F62D0099853
:1028D000002817D008990A98FFF7CCF80400002CBC
:1028E00001D10020A0E1002003E009212170641C37
:1028F000401C08998842F8DB0A98806808994018BB
:102900000A9988600A99386AFFF716FB0A98FFF758
:10291000F3F80A9988600998002801D0022600E09F
:10292000012631000A98FFF7A5F80400002C01D118
:10293000002079E13A202070641C0998002802D018
:1029400009202070641C0A98806880190A998860A0
:102950000A9B099A08993800FFF77EFC0A98FFF74E
:10296000CBF80A9988600998002801D0012000E07E
:1029700000203968002901D0012100E0002146181B
:102980003100491C0A98FFF775F80400002C88D123
:10299000002049E10998002802D00899491C00E06C
:1029A00002210A98FFF766F80400002C01D10020EC
:1029B0003AE10998002809D0002503E00920207099
:1029C000641C6D1C0898401E8542F7DB7D2020703A
:1029D000641C002020700A9800684019019022E1D0
:1029E0000398042148433B490968884700900098B0
:1029F000002801D1002017E10398042148433549FC
:102A00000968884702900298002805D10098A449D7
:102A100009688847002007E1039904204143002208
:102A2000009C200000F07CF903990420414300221F
:102A3000029C200000F074F9079887680898401CF1
:102A400008900998002805D00898361802E001205F
:102A500004903F68002F2AD00021386AFFF76CFAF3
:102A60000690029904226A4388500023099A089923
:102A70003800FFF7F1FB009904226A4388506D1C6F
:102A800006990029E3D00028E1D000F040F90400C5
:102A9000069800F03CF90999002902D00899891C90
:102AA00000E00021321910184618B61CD1E704982E
:102AB000002804D13000074909688847019001982F
:102AC000002801D101200490049800282CD0002572
:102AD0001DE000BFC4000020029804216943405853
:102AE000002806D002980421694340586C490968BF
:102AF00088470098042169434058002806D0009870
:102B00000421694340586649096888476D1C039849
:102B10008542E1DB0298624909688847009860496C
:102B20000968884700207FE07B2001990870019C9C
:102B3000641C0998002802D00A202070641C002020
:102B4000207000254CE009212170641C401C08996C
:102B50008842F8DB029804216943405800F0D7F816
:102B60000590059A02980421694341582000FEF718
:102B70000DFE059824183A202070641C099800283E
:102B800002D009202070641C009804216943415838
:102B9000200000F069FF009804216943405800F0CC
:102BA000B6F824180398401E854202D02C202070CD
:102BB000641C0998002802D00A202070641C0020A0
:102BC00020700298042169434058354909688847B4
:102BD00000980421694340583149096888476D1CB1
:102BE0000398854204DA09980028B3D00020AEE7A4
:102BF00002982B490968884700982949096888473D
:102C00000998002809D0002503E009202070641CE1
:102C10006D1C0898401E8542F7DB7D202070641CE7
:102C200000202070641C01980BB0F0BD38B50C007A
:102C3000856800E02D68002D05D02100286AFEF788
:102C4000E0FD0028F6D1280032BD016048607047E1
:102C500080B5826800290CD0002A02D1816008E08A
:102C60001268002A02D010680028F9D11000FFF77E
:102C7000ECFF01BD70B504000D001600002E0ED053
:102C8000306A002803D0306A05490968884728005F
:102C9000FEF7DFFD306231002000FFF7D9FF70BD85
:102CA000C800002070B504000D00FEF7E9FD060025
:102CB000002E0AD00320F0603000183030C00838F1
:102CC0002000290000F094FE7061300070BD38B51E
:102CD0000400FEF7D5FD0500002D05D00420E860B6
:102CE0002000FEF7B6FD2861280032BD80B5FEF752
:102CF000C7FD002801D00621C16002BD10B5040047
:102D0000012000F04DFF200000F054FF10BD010035
:102D100000E0491C0A78002AFBD1081A70472E00EF
:102D20001206130A1A43130C1A4300BF094205D0B6
:102D3000830705D00270401C491EF9D1704700007E
:102D4000130030B414001500103902D310393CC000
:102D5000FCD2490700D30CC000D504C0890002D3BF
:102D60000280801C002900D5027030BC7047000032
:102D70000022DBE70022E3E7F0B50E005E4001250C
:102D8000ED072E40B446AE0ADF184C18F44208D2C4
:102D9000F7420ED2640D01D07F0D12D100206146A2
:102DA000F0BD05D1F74201D87F0D05D10020C14308
:102DB000F0BDFBD1640DF9D00020C143490549089D
:102DC0008FE0E419C902DB0229432B43DB0A460DDD
:102DD000C00231438E4630B487B295B27D432E0C8B
:102DE000ADB2140C7C43A419260C240425439CB2D8
:102DF0007C43A419190C7943270CC919A4B20F04F8
:102E00003C43090C000C97B247432E0CBE193543C6
:102E1000ADB2170C4743360CBF19A6B2BF193E041A
:102E20003543240C3E0C36199FB24743BF19BCB240
:102E30003E0C89191F0C47437F183E043443390C5C
:102E4000704680B297B247432E0CBE193543ADB2DF
:102E5000170C4743360CBF19A6B2BF193E043543C1
:102E6000240C3E0C36199FB24743BF19BCB23E0C2E
:102E700089191F0C47437F183E043443390C7746A9
:102E80003F0C90B278432E0C80190604ADB22E434D
:102E9000050CA0B22D18120C7A435019020C80B206
:102EA000240CA4189AB27A43121914042043120C69
:102EB00089181B0C7B43C91830BCEF0A394203D177
:102EC000B61940414941641E6F12BF0DE41B0BDB74
:102ED000FF19BC4211DA240500274208AE417841AF
:102EE000614166463143F0BD641C05D1401C61411F
:102EF000CF0201D34908F4E750E75DE7010009D5A7
:102F0000F446404200F006F80122D2071143604720
:102F1000010000BF42221201D21E004207D002D49B
:102F2000521E0018FCD5C10A4005120589187047C9
:102F3000F0B40125ED070F005F404FD48B4200D164
:102F4000824205D98446100062468C4619006346C9
:102F5000DF184C18640D7F0D3AD0661C760537D00B
:102F6000E61B352E34DCDB022B43DB0A0C0DC902D9
:102F70002943C912202E0DDB1700203E06D01F006A
:102F8000F741F3405F400026012A7741C0187141A4
:102F90000DD217E01700F741F2405740F3415A4075
:102FA000B340F3405A400026801859410AD3A21C6E
:102FB00052050FD0C207012F724117004008CB07FE
:102FC00018434908641C24054208AF41704161411F
:102FD000F0BC7047641C21050020F9E76B4010E04D
:102FE0006B40ABE7F742F3D1E943F1E72442EFD17D
:102FF00000200021ECE7F0B40125ED070F005F4051
:10300000EED40C00871A9C4105D2C01BA141D219F5
:10301000634169406B40AE0ADF184C18F442E1D2BC
:10302000640D7F0DE2D0E61B362ED1DCDB022B4394
:10303000DB0AA4460C0DC9022943C90A012E28DC6B
:1030400004D1D6075208DF073A435B08EF0A7642FD
:103050009041994114D039423BD1B6194041494180
:10306000761C394204D1761C001849413942FAD005
:10307000B9436746B74208D9A41B24052143A7E7F3
:103080000042EAD13642E8D1A2E7E40AE107002093
:103090009EE7202E0BDD203E1F00F340F7415F40EE
:1030A000012A002257417E42984191410BE01700CE
:1030B000F741F2405740F3415A40B340F3405A4081
:1030C0007E42904199410A0303D2641EB6194041E1
:1030D00049410027641E24054208AE417841614100
:1030E000F0BC7047F8B40168421844686108511890
:1030F0008368E40701D54C461B190C3000908A42C6
:103100002BD01578521C03262E4002D11678F61CBF
:10311000521C28090F2807D110780F30521C03E0E9
:103120001778521C1F705B1C761EF9D10028E6D060
:103130001678521CAF0803253D40032D01D11578A8
:10314000521C2D0275195D1B801CD8D02E786D1C69
:103150001E705B1C401ED2D0F8E70098F2BC70478E
:10316000F8B50FB48AB00CA803C804AA03C20B9820
:103170004000400D784988420CD100206946088003
:103180000B98000304D10A98002801D1012518E00A
:10319000022516E0012808DA0AA800F011FD01282E
:1031A00003DB002569460D800BE00B99BE4A0A40FF
:1031B000C34911430B916946BC4A801A0880002517
:1031C000ED43002104A800F01DFD04001498002820
:1031D00002D0002014990880002C06D10CA80CC83D
:1031E0000020002100F02DFC15D0002D16D5009EEA
:1031F00036B2012E16D10AA803C80022B04B00F047
:1032000020FC08D0012C0DD10AA80CC80020A84928
:1032100000F017FC2ED10020A649B9E1022D03D100
:103220000AA804E0012C5CDB022C02D10CA803C824
:10323000AEE1012D1CD10B9800280D9802D4002876
:103240004CD535E0002809D4002C47D10021C943D2
:1032500004A800F0D7FC002840D53CE0002C27D182
:103260000021C94304A800F0CDFC002820D51BE0B4
:10327000012C0AD1009E36B20D98002802D4012EEE
:103280002CDA15E0012E13DA28E00D98002812D46C
:10329000002C0DD10021C94304A800F0B3FC002884
:1032A00006D50B98002803D50020802109066FE180
:1032B000002000216CE100F0EBFC22210160002CD9
:1032C0000CD10021C94304A800F09CFC002805D5BE
:1032D0000B98002802D50020AE4959E10020B749DB
:1032E00056E10B98002809D5002C07D500F0D0FC3A
:1032F000212101600020C043410849E10AA803C818
:103300000022002300F0D1FB02D269468A800DE042
:103310000AA803C88022120651400AAA03C200214B
:10332000C94304A800F06EFC69468880012E15D1BF
:103330000AA803C898A20CCA00F09EFB0ED2002473
:1033400000265C4F0AA80CC800208021C905FFF7A1
:1033500013FD0AAA03C21CE0FF0700000AA80CC85C
:1033600000208F49FFF708FD0022554BFFF7E0FDD5
:1033700000F03EFB0400203C2000FFF7BFFD0022D0
:10338000884BFFF7F9FC00224D4BFFF7D1FD0600FB
:103390000F0000BF8EA06101401806900AA803C864
:1033A00032003B00FFF727FE04000D000AA803C807
:1033B00032003B00FFF7BCFD02000B00200029009B
:1033C00000F06EFC04AA03C204A803C804AA0CCA35
:1033D000FFF7D2FC08AA03C20AA830C008A803C895
:1033E00000F0C0FC08AA0CCAFFF7C6FC0AAA0CCA67
:1033F000FFF701FE04000D0000202E4932003B00C3
:10340000FFF7F9FD00228023DB05FFF7B5FC220062
:103410002B00FFF78DFD04AA0CCAFFF7ADFC0200DC
:103420000B000AA803C8FFF783FD08AA03C208A877
:1034300003C85FA20CCA00F033FC04AA03C20098C0
:1034400000B2FFF75BFD06000F00069803C83200CC
:103450003B00FFF76DFD04AA0CCAFFF769FD04AA43
:1034600003C20CA80CC804A803C8FFF785FC02AA75
:1034700003C202A803C800224B4B00F0FDFA73D32D
:1034800002A803C80122494B00F00FFB6FD902A824
:1034900003C80022002300F0EFFA02A80CC80BD2E8
:1034A000002003490EE000BFFFFF0F80FE03000075
:1034B0000000E0BF0000F03F0020014902E000BF33
:1034C0000000E03FFFF734FD00F092FA040008A886
:1034D00003C80CAA0CCAFFF74FFC02AA03C2069845
:1034E000083003C8069A10320CCAFFF721FD0CAA57
:1034F0000CCAFFF741FC2EA20CCAFFF73DFC02AA42
:103500000CCAFFF715FD02AA03C2069803C83200D1
:103510003B00FFF70DFD0CAA0CCAFFF72DFC0600BF
:103520000F002000FFF7EAFC02000B00300039001A
:10353000FFF761FD1EA20CCAFFF71EFC02AA0CCA0F
:10354000FFF7F6FC02AA03C21498002801D00480F9
:10355000002400940022184B02A800F055FC00281B
:1035600002D0012803D00AE00020002101E0002061
:10357000124902AA03C200F08BFB222101600198CC
:1035800000B2002802A803C802D0802212065140CF
:103590000FB0F0BD0000F0FFCD3B7F669EA0E63F80
:1035A000000050400000903F0000E0C00000E040FC
:1035B000EF39FAFE422EE63F0000F03F0000F07FB8
:1035C00010B582B000240094FFF7CAFD1CBD0000B6
:1035D000000000000000F0BF0000000000000080BC
:1035E000000000000000008000000000000000005B
:1035F000000000C05294EEBF00000048204E51BEB3
:10360000000000F86467BCBC00000000000000007F
:10361000000000208133EDBF00000080B3DB14BE4A
:10362000000000506706A3BC00000000000000007E
:10363000000000D0E9DCEBBF00000008C39259BED7
:1036400000000080B0D3B8BC000000000000000003
:1036500000000070F98FEABF000000C0A51028BE6E
:10366000000000E8BFC0B0BC000000000000000087
:1036700000000070284CE9BF00000060134B42BE00
:10368000000000C03D20B8BC0000000000000000A9
:1036900000000050FA10E8BF000000C05FF62BBE2B
:1036A000000000905C71A7BC00000000000000005A
:1036B00000000020FCDDE6BF000000C0F8F154BEB1
:1036C00000000018E9F6B9BC00000000000000008E
:1036D000000000D0C3B2E5BF00000070E43254BE69
:1036E00000000050DB06B4BC000000000000000039
:1036F00000000010EF8EE4BF00000020F36252BE15
:10370000000000C02A879ABC0000000000000000F2
:10371000000000B02272E3BF000000F0E8E056BEF7
:1037200000000028352DBDBC000000000000000096
:10373000000000000A5CE2BF000000B0FA8E41BE4B
:1037400000000040AE6FBDBC0000000000000000A3
:1037500000000000564CE1BF000000F015CD5FBE38
:1037600000000000141C90BC0000000000000000DD
:1037700000000040BD42E0BF00000030F93457BEF9
:10378000000000E06C1E93BC000000000000000080
:10379000000000E0F57DDEBF000000B08A535EBE91
:1037A00000000080DA77AABC0000000000000000E2
:1037B000000000C09D81DCBF00000000FFA226BE0B
:1037C0000000006057E2B0BC0000000000000000F4
:1037D00000000060F98FDABF000000580A8151BE76
:1037E000000000F05F60B8BC0000000000000000B6
:1037F0000000000098A8D8BF000000607A7F45BE96
:10380000000000D05433A3BC000000000000000002
:10381000000000600FCBD6BF000000D091CB40BEAF
:10382000000000406D1BA0BC000000000000000074
:10383000000000A0FBF6D4BF00000098C5CE52BE29
:10384000000000003A397EBC0000000000000000CB
:10385000000000E0FE2BD3BF0000004073872BBEAA
:1038600000000000926879BC000000000000000029
:1038700000000040C069D1BF00000058F16353BE92
:1038800000000080438D7CBC0000000000000000B0
:1038900000000080D85FCFBF000000181F8354BE17
:1038A000000000B03F42A2BC000000000000000089
:1038B0000000008067FCCBBF00000060FAFF53BE31
:1038C00000000050E00DB8BC000000000000000047
:1038D0000000000098A8C8BF000000607A7F35BED5
:1038E000000000C0543393BC000000000000000042
:1038F00000000000DC63C5BF00000058D6FF54BEC6
:1039000000000000396490BC0000000000000000CE
:10391000000000C0AD2DC2BF00000080A45915BE3C
:10392000000000E0484BABBC0000000000000000BD
:10393000000000801A0BBEBF00000050BF3C5ABE02
:10394000000000A0B364B6BC00000000000000004E
:103950000000008004D6B7BF00000040BBCF36BED9
:103960000000008076CEA8BC00000000000000002F
:103970000000008032BBB1BF000000402A0043BEFF
:1039800000000028C60CBDBC0000000000000000C4
:10399000000000009473A7BF000000182B3B59BE25
:1039A000000000C0E55DA5BC0000000000000000B4
:1039B00000000000EE4397BF000000A0E6C340BE39
:1039C00000000020958DB5BC000000000000000044
:1039D00000000000000000800000000000000080E7
:1039E0000000000000000080000000000000000057
:1039F000F4464A1805D200F00FF801D580174008A8
:103A0000604700F009F80121C907884200D9080081
:103A1000404260474A1812D2400DC90208430121B2
:103A2000C9070843520D40210901521A521C06D4FD
:103A300052421F3201D4D0407047C0177047002057
:103A4000704790420ED1A4460C001C4301286441EB
:103A500007D0994205D14C006415641C644000D322
:103A60000C0364467047FEE7002300E05B1CCA5C61
:103A7000002AC254FAD1704730B4012464054D00C5
:103A8000EC420BD85D00EC4208D80C001C436400EB
:103A90000443144304D2994200D1904230BC704791
:103AA000FCD08B42FAD18242F8E730B4012464059D
:103AB0004D00EC420BD85D00EC4208D80C001C43D2
:103AC00064000443144304D28B4200D1824230BCD0
:103AD0007047FCD09942FAD19042F8E70CB41CB57B
:103AE000040004A80190009401AB0A00694608484C
:103AF00078441C3000F0E4FA0021009A117000288C
:103B000001D40098001B02B0019910BC03B0084713
:103B100047DCFFFF4A00520DFF239B009B1CD21A7B
:103B200019DD35239B1A1DDD1300153B09DA9B4176
:103B3000DB0AD340094201D5401E59410020994378
:103B400070470022D243DA40094202D50023801890
:103B50005941904370474B00034300D0024900D2C3
:103B600000210020704700000000F0BF80B501F088
:103B700020FA02BD10B402E0401C491C521E002A6B
:103B80000BD00B7804789C4205D002D20020C043B1
:103B900004E0012002E0002CEED1002010BC7047B0
:103BA00010B50400024801F00EFAA100405810BD03
:103BB0002C0E0020010041391A2900D22030704714
:103BC00030B401004B68802212061A4001201B030A
:103BD0001B0B4B600BD10B68002B08D10DE00B6861
:103BE0006400DD0F25434D605B000B60401E4C6898
:103BF000E302F4D523031B0B4B604B681A434A6066
:103C000030BC704742685200520D1F4B9A4209D196
:103C10004168090304D10068002801D101207047E0
:103C20000220704743685B0002D10368002B28D054
:103C3000164B9A1A521A012A23DB352A07DB4168F0
:103C400080221206114041600021016016E001212E
:103C5000D306DB0E9940491E920608D542680A40F9
:103C600041685140416003681343002103E0036849
:103C70000B40016859400160002B02D00020C04376
:103C800070470020704700BFFF07000033040000AA
:103C900080B5024801F097F902BD0000200E002017
:103CA000F0B40E005E400125ED072E40B446AE0A8A
:103CB000DF184C18F4423BD2F74241D2640D43D096
:103CC0007F0D38D0E41BC902DB0229432B43CF0A06
:103CD000DB0A0600B61A9F4104D2641EB6197F4162
:103CE000B6185F416812800D24180018844222DA49
:103CF000E80C0021B6197F41B61A9F4102D2B618CE
:103D00005F413F1C40414941F4D3241C21DD24057F
:103D1000B6197F41B61A9F4105D33743C6073743CB
:103D20000026012F7041614166463143F0BC704767
:103D3000FCD1F74205D20020C14349054908F3E709
:103D400004D00020C143F1E77F0DFAD00020614686
:103D5000ECE72442FAD1401C61410F03F6D3002066
:103D6000E2E7FEE738B504000D0019A003C8220001
:103D70002B00FFF701F818A20CCAFFF7D9F82200B0
:103D80002B00FEF7F9FF16A20CCAFFF7D1F82200AC
:103D90002B00FEF7F1FF14A20CCAFFF7C9F82200AE
:103DA0002B00FEF7E9FF12A20CCAFFF7C1F82200B0
:103DB0002B00FEF7E1FF10A20CCAFFF7B9F82200B2
:103DC0002B00FEF7D9FF0EA20CCAFFF7B1F834BDE5
:103DD000F7DE29BFD8F8C23FF4B3FECC1A99C33F2F
:103DE00062CB68D96F46C73FC6C912DAC471CC3FEF
:103DF0004AE98A942449D23FF75F97999999D93F24
:103E0000BC5555555555E53FF1B586B014001D001C
:103E1000C0C83000390001F0D7F86946088020009A
:103E2000290001F0D1F8009909B2002906D500282F
:103E30004DD4022805D1069830C024E00229F8D1DB
:103E400021E000280AD10022894B30003900FFF719
:103E5000F8FD0FD0069830C00020FFE0012814D1F3
:103E60000022804B30003900FFF7EBFD02D00698AE
:103E700030C04DE0FFF70CFF212101600020C0435E
:103E80004108069A03C20220E8E0009800B2002828
:103E90000FD1069830C00C99069801F0B3F80400D1
:103EA00002D0012C00D0D8E0FFF7F2FE2221016001
:103EB000D3E000226E4B30003900FFF7C2FD0DD178
:103EC00020002900FEF758FF069A03C220E03000C8
:103ED00039000022644BFFF7CFFD08D200232000F9
:103EE0002900FEF749FF069A03C20020B6E001222E
:103EF0005E4BFFF7DAFD0DD800225D4B2000290054
:103F0000FEF73AFF069A03C2FFF7C2FE22210160C4
:103F10000120A3E057A20CCAFEF72EFF00220023C7
:103F2000FFF7AAFD01D2554B00E0644BFFF700F804
:103F3000FFF75EFD0290FEF7E1FF6A4603C26846A6
:103F400003C84FA20CCAFEF717FF02000B00300097
:103F50003900FFF750F806000F00684603C84AA270
:103F60000CCAFEF709FF02000B0030003900FFF712
:103F700042F806000F0046A20CCAFFF796FD07D8CC
:103F80000022454BFFF778FD02D22000290054E0C3
:103F900032003B00FEF7F0FE6A4603C2684603C8E3
:103FA0003EA20CCAFEF7E8FE3EA20CCAFEF7C0FF16
:103FB00002000B00684603C8FEF7DEFE04AA03C237
:103FC000684603C839A20CCAFEF7D6FE39A20CCA4D
:103FD000FEF7AEFF02000B00684603C8FEF7CCFEFA
:103FE0000022364BFEF7A4FF02000B003000390020
:103FF000FEF7C2FE06000F0004A80CC83000FEF752
:1040000097FF0022164BFEF793FF0090019104A842
:1040100003C832003B00FEF7EEFF0022104BFEF714
:1040200087FF02000B0000980199FFF739FE02009C
:104030000B0020002900FEF79FFE069A03C202989B
:104040000C994118069800F0DDFF040001D0012C06
:1040500003D1FFF71DFE22210160200007B0F0BD53
:104060000000F03F0000F0FF00C89CC000C89C406A
:104070000000F07FFE822B654715F73F0000E0BF90
:10408000000000F8422EE63FF2E4D5BCE7E84B3EE4
:10409000FEFFFFFFFFFF8FBC0000903C112E5781F9
:1040A000A03F503F5843128C8F71BC3F4BE8A54155
:1040B000B752013F0BBDF3DAE8708C3F0000E03FE0
:1040C000F1B5A2B014001D00049100200D900AE08B
:1040D0000498229A90470490002800D1C9E20D98D4
:1040E000401C0D90641C2178002901D10D98C2E27A
:1040F0002529EDD100200790089009900A900B9097
:104100000C9002E0010001200843641C2178202962
:10411000F8D023290ED02B2904D02D2907D03029FF
:104120000BD00DE001000220084380B2EDE7010052
:104130000420F9E701000820F6E701001020F3E76A
:104140002A290FD1296829600A68091D29600F9260
:10415000002A05D551420F9101000420084380B286
:10416000641C12E000210F910AE00F9A754B9A42ED
:1041700005D093009A185200511830390F91641CE1
:1041800021780A00303A0A2AEFD321782E2903D069
:104190000021C9430E911EE0641C21782A2907D111
:1041A000296829600A68091D29600E92641C12E0C2
:1041B00000210E910AE00E9A624B9A4205D09300BC
:1041C0009A185200511830390E91641C21780A0057
:1041D000303A0A2AEFD302A90887267831005848D6
:1041E0007844FF305D3000F0E4FE002801D0641C0C
:1041F00000E0002602A83A30067002A83A300078A3
:10420000682804D12178682901D1622005E06C2852
:1042100007D120786C2804D1712002A93A310870A6
:10422000641C12A806902678641C300025382AD019
:104230001C3800D1CFE0001F022800D8CBE0133893
:1042400000D1EEE0093800D1C5E0801E00D157E171
:10425000401E00D12FE1401E022800D8BBE0001F05
:1042600000D128E1401F00D186E0401E00D1D8E0F7
:10427000401E26D0C01E0BD0801E00D1D1E0C01E33
:1042800000D1CEE046E1252012A9087001204BE1C3
:10429000286828600668001D286005960E9F002F7C
:1042A00003D53000FEF733FD09E03A00002130006D
:1042B00000F036FF002801D0801B00E03800089095
:1042C00033E1286828600268001D28600020C04390
:1042D0000021104002AA03C212A80590069B3C26AA
:1042E00002A803C8002904D1002802D10E9A002A8E
:1042F00014D0761E01960207120F3032D2B23A2A3B
:1043000000DB27329A5500090A071043090901D139
:10431000002803D0059A9F19BA42EAD33C20801B9B
:104320000890991905910E9988420FDA081A0A9097
:1043300002A8008F0449014002A80187F5E000BFF0
:1043400094910000FFFFFF7FEFFF0000002900D4E1
:10435000EBE002A93831097814220A40102A00D073
:10436000E3E00F99079A891A0A9A891A0E1A012E00
:1043700000DADAE00A96D8E002A83A30007862283B
:1043800019D0682806D06A280CD06C281BD0712858
:1043900008D018E0286828600168001D28600D9882
:1043A0000880C2E0286828600268001D28600D9817
:1043B000C11703C2B9E0286828600168001D2860A1
:1043C0000D980870B1E0286828600168001D286019
:1043D0000D980860A9E02A68D21D072082432A6050
:1043E00003CA2A6002AA03C2002902D507982D2118
:1043F0000AE002A8008F810702D507982B2103E06D
:10440000C00705D50798202112AA1154401C079017
:1044100012A8079940180590310002A800F0FAF997
:1044200083E002A83A3000786C280BD0712801D0C4
:104430006A2807D12A68D21D072082432A6003CA4E
:104440002A6005E0296829600868091D29600021A3
:1044500002AA03C202A83A300078682803D102A851
:1044600003C880B20BE0622803D102A803C8C0B21F
:1044700005E0742801D07A2804D102A803C80021DD
:1044800002AA03C202A83830007800072FD502A87C
:1044900003C8002901D1002829D0202030437828E2
:1044A00025D10798302112AA1154401C411C0791B4
:1044B00012A90E541BE0290002A83A30007800F03F
:1044C000DCF802AA03C202A8002902DA07982D210B
:1044D00009E0008F810702D507982B2103E0C00770
:1044E00005D50798202112AA1154401C079012A844
:1044F000079940180590310002A800F0F2F814E086
:1045000001200790286828600168001D286012A813
:1045100001700AE0252012A9087001200790002EE2
:1045200003D012A84670022007900F980799401AEE
:104530000A99401A0899401A0B99401A0999401A89
:104540000C99401A019002A838300078400711D425
:10455000202069460870019801280BDB019E012389
:104560006A4602A9229800F00CFD002800D080E0E5
:10457000761EF4D1079F12AE002F0CD0317804982C
:10458000229A90470490002873D00D98401C0D90FB
:10459000761C7F1EF2D13020694608700A9E012EDB
:1045A00009DB01236A4602A9229800F0EAFC0028F0
:1045B0005FD1761EF5D1059E089F002F0CD0317873
:1045C0000498229A90470490002852D00D98401CDD
:1045D0000D90761C7F1EF2D13020694608700B9E2C
:1045E000012E09DB01236A4602A9229800F0C9FCCA
:1045F00000283ED1761EF5D1059808994618099FE6
:10460000002F0CD031780498229A9047049000280B
:104610002FD00D98401C0D90761C7F1EF2D13020BB
:10462000694608700C9E012E09DB01236A4602A927
:10463000229800F0A6FC00281BD1761EF5D102A816
:1046400038300078400700D44DE5202069460870D6
:104650000198012800DA46E5019E01236A4602A975
:10466000229800F08EFC002803D1761E00D13AE596
:10467000F3E70020C04323B0F0BD0A00622822D037
:10468000682819D06A2808D06C2823D0712804D053
:1046900074281FD07A2808D01CE01368DB1D07207F
:1046A0008343136003CB136070471168116008687F
:1046B000091D116000217047116811600868091D0B
:1046C000116000B20BE0116811600868091D1160EB
:1046D00040B204E0116811600868091D1160C1173B
:1046E0007047F3B583B0006900906846027C6F2A7A
:1046F00001D1082406E020211143782901D00A24A1
:1047000000E010243C25039803C806000F00642A2B
:1047100001D0692A07D1002905DA00200021801B79
:10472000B94106000F00002F12D1002E10D10398BE
:10473000006B00280CD1082C3CD10398383000784D
:10474000000737D53B25302000993B31087031E018
:104750006D1E0195300039002200E31700F0ECFCDB
:104760003032D2B23A2A03DB6846007C5138121844
:1047700000984255300039002200E31700F0DCFCBD
:1047800006000F0001D1002E05D00398C0680099E3
:1047900049198842DCD3082C0CD1039838300078B2
:1047A000000707D50098405D302803D06D1E3020EB
:1047B000009948553C20401B03998861009949198C
:1047C000039AD1600399096B884209DA081A0399A0
:1047D00008620398008F0E4901400398018715E095
:1047E000002913D503993831097814220A40102A78
:1047F0000CD10399496B039A5269891A039A126A78
:10480000891A0D1A012D01DB0398056205B0F0BD70
:10481000EFFF0000F3B591B006AD03C802AA03C2D2
:1048200012A8007820210143009161290BD0119832
:10483000006B002801D5062003E004D1672902D1CE
:10484000012011990863119841684800400DAB4A56
:10485000904225D1080310D11198006800280CD18E
:1048600003201199886112A8007861381A2842D370
:10487000234878448A3000900BE003201199886126
:1048800012A8007861381A2831D31E487844743051
:104890000090032200991198C068FCF777FFF9E1B6
:1048A000012817DA1198FFF78BF9012812DB00278E
:1048B00000260098612832D11198C068302101701B
:1048C000401C411C119AD16012A9097861291FD19D
:1048D00078211EE011994968894A0A4089491143A3
:1048E000119A51608849461A0027FF43E1E70648BC
:1048F00078441430CCE7054878441030BBE700BF5B
:10490000E88B0000DC8B0000D48B0000D88B00000B
:104910005821017011984069801C11994861002F3D
:1049200003D1002468468780AAE10098612800D05E
:10493000A1E01198046B002C01D5212400E0641C37
:1049400024B2601C0090119803C804AA03C202A8F4
:1049500003C800220023FFF78FF804A803C802D27F
:1049600080221206514002AA03C2301F6946888085
:1049700000270F7606AE761C0098012834DB02A8CB
:1049800003C800220023FFF790F82DD21C2102A8B3
:1049900000F038FB02A803C8FFF72AF805000098CA
:1049A000C01F009001280ADB2800FEF7A7FA0200CA
:1049B0000B0002A803C8FEF71EFB02AA03C2F61DE5
:1049C000072004E0761E2907090F31702D11012DF3
:1049D00001DB401EF6D5401E02D4761E3770FAE782
:1049E000F61D00980128CADA06A8401C311A06AD47
:1049F0006D1CA14200DA0C0024B2200032D488429F
:104A000005DA06A909184978082900DB0F2706A945
:104A1000091801E0641E491E401E0A78BA42F9D006
:104A20000F2F04D106A909184A78521C4A70002891
:104A300006D506AD641C019800B2001D6946888049
:104A400024B2601E0ED429180A783032D2B23A2A23
:104A500003DB12AB1B783A3BD2180A70401E491E8A
:104A60000028F1D51198006B002800D408E1601EE1
:104A70001199086304E102A803C800220023FEF78D
:104A8000FBFF06D202A803C880221206514002AAE8
:104A900003C236B280487043804900F098FB6946F3
:104AA00088800720019909B2421A00207C49012A16
:104AB00020DB049202AA30CA00260F000498C00727
:104AC00007D532003B0020002900FEF755F904000D
:104AD0000D000498401004903000390032003B0073
:104AE000FEF74AF906000F0004980028E6D102A854
:104AF00030C028E0544200266A4F18E0FF0700004B
:104B0000FFFF0F800000E03FFE030000E00707D535
:104B100004A803C832003B00FEF72EF906000F0080
:104B2000641004A803C804AA0CCAFEF725F904AA55
:104B300003C2002CEAD102A803C832003B00FFF7F1
:104B4000AFF802AA03C20098662803D1019800B208
:104B50000A3000E006201199096B08180490142807
:104B600001DB1320049030206946087606AC641CF3
:104B70000498012840DB02A803C8FEF74BFF05009C
:104B800008340594042428000A2100F023FB0F00B8
:104B900028000A2100F01EFB050030370598401E52
:104BA000077028000A2100F015FB0F0028000A21D9
:104BB00000F010FB05000598801E05903037077047
:104BC000641EE0D1059C083404980838049001283C
:104BD000CEDB02A803C8FEF71DFFFEF799F902001D
:104BE0000B0002A803C8FEF706FA00222E4BFEF7C0
:104BF000C3F802AA03C2BEE706A8401C201A06ADED
:104C00006D1C6A4605E0401E019909B2491E91805B
:104C10006D1C29783029F6D00099662903D10199B5
:104C200009B2491C04E0652901D1012100E00021FD
:104C3000119A126B541824B2A04200DA040024B274
:104C400021001DD4814204DA685C352801DB39205B
:104C500000E030206A1800E0641E521E491E1378DE
:104C60008342F9D0392802D1685C401C685400297D
:104C700006D56D1E641C019800B2401C69468880F0
:104C8000019800B2009023B22A0012A8017811986E
:104C900000F00CF813B0F0BD97750000A08601007D
:104CA000000024400000F03F84D79741F3B589B05D
:104CB00014001D0000F0FFFA0090406A0078694679
:104CC00008720998076B012D01DA0125ACA40AA826
:104CD000017820200843109E662801D1761C17E039
:104CE000672800D09EE00321C9438E4200DA9DE090
:104CF000BE4200DB9AE0761C099838300078000745
:104D000002D4BD4200DA2F0036B2BF1B00D5002707
:104D10000998C06801900998806901990918009163
:104D200036B2012E2CDA401C3021009A1170012F6E
:104D300004DA099938310978090704D56946097AEE
:104D4000019A1154401C099988617042874200DA27
:104D50007E4236B2704209994862BF19AF4200DA0A
:104D60003D002DB20998C5612A0021000198099BD8
:104D70009B69C018FCF70AFD781B09998862E0E07E
:104D8000B54220DA2A0021000098FCF7FFFC0999BF
:104D900089694919099A9161701B099A5062012F1A
:104DA00004DA099838300078000709D56846007A97
:104DB000099AD26850540998C069401C0999C86181
:104DC00009988762BDE0320021000098FCF7DEFC04
:104DD000099880698019AD1B012F04DA09993831CF
:104DE0000978090705D56946097A099AD2681154E4
:104DF000401C099988612DB2AF4200DA3D002DB206
:104E00002A00A1190998C068099B9B69C018FCF782
:104E1000BDFC09988069401909998861781B099936
:104E200048628EE0612914D1702015E0BD4205DA98
:104E3000099938310978090700D42F007F1E00D561
:104E400000270AA80078672801D1652004E04520E2
:104E500002E0412902D150200AA90870099880690E
:104E6000411C099A9161099AD26801922278019BAA
:104E70001A54641C0094012F04DA09983830007821
:104E800000071CD5481C099A90616A46127A019B5A
:104E90005A54012F13DB6D1E2DB2AF4200DA3D00D4
:104EA0002DB22A000099019B1818FCF76FFC099895
:104EB0008069401909998861781B099948620998A5
:104EC000C0680999896944180AA8007820703000E0
:104ED00003D42B206070A41C03E02D216170A41C5E
:104EE0004642002505AF08E00A2203A800F0FEF9BB
:104EF00004983870039E6D1C7F1C31B20129F3DACF
:104F0000022D08DA0AA8007820210143652902D180
:104F100030202070641C002D09D130202070641CCA
:104F200007E06D1E05A8405D30302070641C012D27
:104F3000F7DA0998C068099989694018201A09990F
:104F4000C86109983830007814210140102914D123
:104F5000099840690999896940180999496A40186E
:104F60000999C96940180999896A40180999496BD2
:104F7000884202DA081A099908620BB0F0BD0000F5
:104F80003000F1B50E0014000027002B0FD01D00DB
:104F90002178B068009A9047B060002806D0F06A87
:104FA000401CF062641C6D1E01D0F1E7FF43380025
:104FB000F2BDC9B200E0401C02788A4202D0002A49
:104FC000F9D100207047704702004800400D0C4B9B
:104FD00098420CD0002801D0002004E00803000B08
:104FE000024302D00120C0437047002070470803ED
:104FF000000B024301D0022070470120704700BF20
:10500000FF07000070B504000D0060684000400D0F
:105010003F4EB04207D16068000302D120680028EB
:1050200016D0022070BD002804D12000FEF7C8FD74
:1050300001286BDA012D0DDB311A8D420AD360682D
:10504000002802D50020334901E00020310503C4C7
:10505000012070BD4142A942616806DA2E4A0A4029
:10506000281800051043606047E0802212061140B6
:1050700062681203120B80235B0313436360401EBC
:105080002D1800202A003532352A02D361602060B5
:1050900070BD00221E23DB439D4204DA20352268C6
:1050A000636823606060684211D0521E9241D2430F
:1050B000D20F20231B1A25689D402A432568C5402E
:1050C00066689E402E4326606368C34063606068E4
:1050D000084360601148824206D280200006824266
:1050E0000ED12078C0070BD52068401C20602068B6
:1050F000002805D16068401C60600020C04370BD7E
:1051000060688842F9D120680028F6D1002070BD7F
:10511000FF0700000000F0FFFFFF0F80010000808C
:10512000C9B201E0401C521E002A03D003788B4212
:10513000F8D1704700207047124224D0994228D9F4
:1051400070B500251B4202D00C00002109E00024AC
:10515000012649186441944200D3A41A7641F8D339
:105160003100012601E0764109D2001864416D4109
:10517000A41A9D41F7D2A4185D41B619F5D33000A9
:1051800022002B0070BD1B42D8D108B500F0BEF83C
:1051900008BD01D19042D3D202000B0000210020B3
:1051A0007047F446002804D4494200F013F8404206
:1051B00060474042002905D45FD000F00BF8404220
:1051C00049426047494200F005F8494260470346BA
:1051D0000B43E6D40022030A8B420BD203098B4215
:1051E00019D243088B422ED2411A00D201465241B5
:1051F00010467047FF2209023FD012068B4205D3AA
:10520000121209028B4201D31212090203098B42C6
:1052100019D300E0090AC3098B4201D3CB01C01A9C
:10522000524183098B4201D38B01C01A5241430979
:105230008B4201D34B01C01A524103098B4201D367
:105240000B01C01A5241C3088B4201D3CB00C01AD4
:10525000524183088B4201D38B00C01A524143084C
:105260008B4201D34B00C01A5241884200D3401AEE
:105270005241CFD201461046704708B500F048F8B9
:1052800008BDFEE780B51248FFF79DFE11A1016041
:1052900041608160C1600161416181610EA2426231
:1052A0008162C162016341630CA282630DA2C26389
:1052B0000164416401BD10B50548FFF784FE040098
:1052C0002068002801D1FFF7DDFF200010BD00009D
:1052D000980E0020000000002E00000066616C7334
:1052E0006500000074727565000000007CB5040064
:1052F0000E00150030002900FFF769FF00904543BC
:10530000701B0190684603C803C476BD7047FEE772
:105310007047FEE780B504228D49F020000101F0BE
:1053200013FA04228B49A020C00001F00DFA0422D8
:1053300089498020400001F007FA01BD80B5802135
:10534000002001F07AF9002001F03AF9FFF7E2FFBE
:10535000062282499020000101F0F6F901BD80B5D6
:105360008021002001F069F9002001F029F90622CE
:105370007A499020000101F0E7F901BD10B5784BA2
:10538000784C2360784B794C2360794B794C2360BF
:105390000300002B01D0734B18600800002801D0D7
:1053A000724801601000002801D07248026010BDF0
:1053B00000B583B0062269469020000101F07AF919
:1053C00001206D490968087001206B49096848701F
:1053D0000620694909688870002067490968C87013
:1053E00065480068001D65490968090E0170634938
:1053F0000968090C417061490968090A81705F49AF
:105400000968C17000205C49096808815A48006831
:105410000A3080210170002141700020564909683E
:1054200008730020544909684873002052490968EC
:105430008873002050490968C87300204E490968E4
:10544000087400204C490968487400204A490968DA
:105450008874002048490968C874002046490968D2
:1054600008750020444909684875002042490968C8
:105470008875002040490968C87500203E490968C0
:10548000087600203C490968487600203A490968B6
:105490008876002038490968C8763048007836494F
:1054A000096808772D4840783349096848772B48C0
:1054B00080783149096888772848C0782E4909687A
:1054C000C877264800792C4909682031087023489C
:1054D00040792949096821310870062006E0002139
:1054E000254A1268C0B212181177401CC0B21028A9
:1054F000F5DB002007E000211F4A1268C0B2121835
:105500002C321170401CC0B24028F4DB002007E0B0
:105510000021194A1268C0B212186C321170401C76
:10552000C0B28028F4DB632013490968EC310870AD
:10553000822011490968ED31087053200E4909682D
:10554000EE31087063200C490968EF31087007BD1F
:10555000B4360020BC360020B83600207C3600204F
:1055600015530000DC0000203D530000E000002047
:105570005F530000E4000020CC360020C836002035
:1055800030B583B00024FFF713FF0020AF49087047
:105590000020AE4948700020AC4988700020AB491B
:1055A000C8700020AA4908700020A949487000204E
:1055B000A74988700020A649C87004243520A54951
:1055C0000968A4B20919EC310870641C0120A149D2
:1055D0000968A4B20919EC310870641C01209D49C6
:1055E0000968A4B20919EC310870641C3D2099497E
:1055F0000968A4B20919EC310870641C07209549A8
:105600000968A4B20919EC310870641C01209149A1
:105610000968A4B20919EC310870641C8E4800783E
:105620008C490968A4B20919EC310870641C8A48D5
:10563000407888490968A4B20919EC310870641CE3
:105640008548807883490968A4B20919EC3108704B
:10565000641C8148C0787F490968A4B20919EC31FB
:105660000870641C7C4800797A490968A4B2091959
:10567000EC310870641C7848407976490968A4B216
:105680000919EC310870641C0C2072490968A4B235
:105690000919EC310870641C00206E490968A4B235
:1056A0000919EC310870641C00250AE06B48ADB2A2
:1056B000405D68490968A4B20919EC310870641C9E
:1056C0006D1C6648ADB2405D0028EFD16248C078DD
:1056D000C0B2000900F068FF5E490968A4B2091968
:1056E000EC310870641C5C48C07800F05DFF5949DB
:1056F0000968A4B20919EC310870641C5648007995
:10570000C0B2000900F050FF52490968A4B209195B
:10571000EC310870641C5048007900F045FF4D4999
:105720000968A4B20919EC310870641C4A48407930
:10573000C0B2000900F038FF46490968A4B209194F
:10574000EC310870641C4448407900F02DFF414959
:105750000968A4B20919EC310870641C3D4800685E
:10576000A4B2ADB2611B4018E530AD1D0570372005
:1057700038490968A4B20919EC310870641C062084
:1057800034490968A4B20919EC310870641C01207D
:1057900030490968A4B20919EC310870641C03206F
:1057A0002C490968A4B20919EC310870641C062060
:1057B00028490968A4B20919EC310870641C0F204B
:1057C00024490968A4B20919EC310870641C3A2014
:1057D00020490968A4B20919EC310870641C3B2007
:1057E0001C490968A4B20919EC310870641CFF2037
:1057F00018490968A4B20919EC310870641C250025
:1058000007E0002013490968ADB24919EC3108706E
:105810006D1CADB29C2040008542F2DBFF20694642
:105820000871FF2001A94870FF2001A98870FF209E
:1058300001A9C8704320009001AB8922920005485D
:1058400001680748007801F095FC37BDA8360020B4
:10585000AC360020CC3600207C360020D40000205E
:105860002637002030B583B00024FFF7A1FD1B4888
:1058700000214056032804D018480021405604282F
:105880002ED10020EB49096888720020E949096897
:10589000C872E9480078E74909680873E648407823
:1058A000E44909684873E4488078E24909688873E4
:1058B000E148C078DF490968C873EC480078694658
:1058C0000871EA48407801A94870E848807801A941
:1058D0008870E648C07801A9C8700DE0273700201D
:1058E000FF2069460871FF2001A94870FF2001A927
:1058F0008870FF2001A9C87004243520CD490968AB
:10590000A4B20919EC310870641C0120C949096866
:10591000A4B20919EC310870641C0320C549096858
:10592000A4B20919EC310870641C3D20C149096812
:10593000A4B20919EC310870641C0720BD4909683C
:10594000A4B20919EC310870641C0120B949096836
:10595000A4B20919EC310870641CC5480078B54937
:105960000968A4B20919EC310870641CC048407879
:10597000B0490968A4B20919EC310870641CBC482C
:105980008078AC490968A4B20919EC310870641C2C
:10599000B748C078A7490968A4B20919EC31087062
:1059A000641CB3480079A3490968A4B20919EC3111
:1059B0000870641CAE4840799E490968A4B2091970
:1059C000EC310870641C01A8C078FF2867D1322030
:1059D00098490968A4B20919EC310870641C0420C4
:1059E00094490968A4B20919EC310870641C924802
:1059F000007890490968A4B20919EC310870641C58
:105A00008D4840788B490968A4B20919EC310870B7
:105A1000641C8948807887490968A4B20919EC3167
:105A20000870641C8448C07882490968A4B20919C6
:105A3000EC310870641C36207E490968A4B209194B
:105A4000EC310870641C04207A490968A4B2091971
:105A5000EC310870641C8548007876490968A4B266
:105A60000919EC310870641C804840787149096854
:105A7000A4B20919EC310870641C7C4880786D4927
:105A80000968A4B20919EC310870641C7748C07821
:105A900068490968A4B20919EC310870641C0C202B
:105AA00064490968A4B20919EC310870641C00202B
:105AB00060490968A4B20919EC310870641C00251A
:105AC00009E06C48405D5B490968A4B20919EC31F2
:105AD0000870641C6D1C6748405D0028F1D1644863
