:10000000A00900206987000057170000A74D0000D5
:1000100000000000000000000000000000000000E0
:10002000000000000000000000000000AB520000D3
:10003000000000000000000037530000076C0000C3
:100040005389000081820000477E0000457D00004A
:100050005F890000000000007B830000698D0000C4
:100060006B8D0000A3830000D58300006D8D000020
:100070006F8D0000718D0000738D0000758D000084
:10008000376C0000778D0000798D00007B8D0000BB
:100090007D8D00007F8D0000818D0000838D00002C
:1000A000858D0000878D000000000000000000002A
:1000B0000000000000000000000000000000000040
:1000C000E022520080180268914203D34368D2189C
:1000D000914202D380680028F5D170471948016821
:1000E00000290ED180214902816009094160002167
:1000F000C943C160016104214161134A1160134980
:1001000001600120704730B4030007240800083064
:10011000204201D1002404E0082508000830281AF4
:1001200004400819111B9861D96001220A434260FA
:1001300028224018426003480069D86130BC7047EB
:1001400000000000242A0020A82800206859883CCC
:10015000F0B587B00700072408000830204201D11D
:10016000029106E0082508000830281A20400818E7
:10017000029010000830204205D0082110000830FD
:10018000081A0440121914000298C018039005467A
:100190000298201AC01A0190032633430298436044
:1001A000A54201D301F0D2FA2079C00701D401F0B1
:1001B000CDFA0198102801D201F0C8FAB86984423A
:1001C00008D1F86801994018F860BD610121014328
:1001D00069606EE17869844209D1B8680199401874
:1001E000B8607D61012101436960285061E1606868
:1001F0000640012E00D0BBE0072188430590C008CF
:1002000020283ED2A1680091E6680490B44201D152
:1002100001F09CFA0098844201D101F097FA6068DD
:10022000072188430499C900884201D001F08EFA61
:100230000498C0003918009A08002830824208D07B
:1002400010463A69904200D28AE0C068A04200D0CD
:1002500086E00098864206D138680121049A9140D0
:10026000884338607EE028318E4205D03869864266
:1002700076D3B068A04273D10098C6600098B06091
:1002800070E0A0690090E668A6420CD0A0683969C9
:10029000884225D3C168A14222D1B168A1421FD1B1
:1002A000C660B0601EE0210014310E68002E07D138
:1002B000210010310E68002E14D001E001000E68FC
:1002C000300014300268002AF8D130001030026883
:1002D000002AF3D13869814202D30020086001E08E
:1002E00001F034FA009800283CD0E069800038180A
:1002F00098214900401801688C4209D10660002EFF
:1003000014D178680121E26991408843786029E03E
:1003100000983969884207D30069A042009801D14A
:10032000066103E0466101E001F010FA002E19D0E9
:100330003869864214D30099B1612169002906D039
:10034000814202D331618E6101E001F0FFF9606901
:10035000002807D03969884202D37061866101E0C4
:1003600001F0F4F9059824180198059940180190B6
:1003700060680121884360600198014369600198C9
:1003800028500198C008202822D20090C0003C18B4
:10039000283426000198102801D201F0D7F93868D6
:1003A00000990200CA40D10705D40121009A91406A
:1003B0000143396007E0A0683969884201D306002B
:1003C00001E001F0C3F9A560F560AE60EC6070E09B
:1003D0000198000A01D1002225E0802149028842CB
:1003E00001D31F221FE0FF21C9434118090C082235
:1003F00011408840314A8218120C04231A40904060
:100400002F4BC3181B0C022423400E24611A891A97
:10041000C91A9840C00B08184100019AC01DC2407B
:10042000D007C00F0A1890003818982149004118C9
:10043000EA610020686128617B681C00D440E40701
:1004400005D401209040184378600D601DE00968D4
:100450001F2A01D1002302E0192352089B1A019A96
:100460009A4000E019004B680724A343019CA34273
:1004700010D0D30F9B00CC18103452002368002BEF
:10048000F0D13869844212D32560A961ED600398E8
:10049000A8600EE08A683B69994208D39A4206D365
:1004A000D560039B8B60AA60E960A86101E001F060
:1004B0004DF90298083007B0F0BD000000F0FFFFD2
:1004C00000C0FFFFF2B586B0040091480068002824
:1004D00001D1FFF703FE8E488168069840182F303F
:1004E000491E88430699814200D3D9E1D8214900A9
:1004F00061188968002909D0D8225200A258101822
:10050000824200D3CCE1814200D2C9E101F024F95A
:10051000002800D1C4E10700006800900020C0431B
:10052000874200D1BCE1D8204000205800994018F3
:10053000D8214900605061184968814200D2010009
:10054000D820400020184160A069002838D12069D7
:10055000002801D0874200D22761D820400020180F
:1005600007610098D8214900611848610020D8210E
:1005700049006118C8616648006860620020C04395
:100580002062002021002831C9600A000832116071
:10059000D2609260801C10312028F5D3C24884427A
:1005A00003D1009A283A390028E0201F006807216B
:1005B00088432118083900983818421A283A1DE053
:1005C000E0204000201800E0806800281AD0016870
:1005D000426889188F42F7D1017B090712D4A169BB
:1005E000026891420ED34368D21891420AD2009910
:1005F00059184160E06800994218A1692000FFF78E
:1006000082FD3AE12069874200D22761E020400064
:1006100020180099791800E08068002810D002683E
:100620008A42F9D1017B09070AD407604168009B1F
:10063000C9184160069B39002000FFF789FD30E1B1
:10064000A0690290054629002000FFF739FD0168E6
:1006500040680818059001462F3908000830400707
:1006600001D1002005E0082208000830101A4007D8
:10067000400F091828001030814201D2019500E096
:100680000191019808300490019E183600200390D3
:100690000099283938000830400701D1002205E0D0
:1006A000082238000830101A4207520FB818891A69
:1006B000A061E16001220A434260282240184260A2
:1006C00013480069E0610498400701D001F03EF84A
:1006D0001B20019948600498E0214900611810220C
:1006E00001F064F8D8204000201807610098D82154
:1006F0004900611848610020D82149006118C8618B
:100700000498D821490061188861059803E000BF6A
:10071000242A00200E00311D07227260039A521C09
:1007200003920A1D8242F5D30398022801DA01F0F0
:100730000DF80198A84200D19FE0401B29184A6893
:1007400001239A434A60012202436A600860C1089B
:10075000202921D20091C9006618283637001028B8
:1007600001D200F0F3FF206800990200CA40D107CF
:1007700005D40121009A91400143216007E0B0684F
:100780002169884201D3070001E000F0DFFFB56076
:10079000FD60AF60EE6070E0010A01D1002226E04A
:1007A0001A04914201D31F2221E0FF22D2438A186A
:1007B000120C08231A40009291403C4A8A18120CED
:1007C00004231A4091403A4BCB181B0C02263340AD
:1007D0000E26009FF61BB21AD21A9940C90B511867
:1007E0004A00C91D0300CB40D907C90F5218910018
:1007F000611898235B00C918EA6100236B612B61C3
:1008000063681E00D640F60705D4012090401843C7
:1008100060600D601CE009681F2A01D1002302E01E
:10082000192352089B1A02009A4000E019004B68F5
:100830000726B343834210D0D30F9B00CE18103647
:1008400052003368002BF1D12069864213D3356002
:10085000A961ED600298A8600FE088682269914262
:1008600009D3904207D3C560029A8A60A860E96004
:100870000020A86101E000F069FFE068069981426C
:100880000ED2411AE160A069069A8218A261012382
:100890000B435360069903220A434260083000E08C
:1008A000002007B0F0BD0000EC26002000F0FFFFA4
:1008B00000C0FFFFF2B584B007000020009004984C
:1008C0004442000A25D080214902884201D31F20DA
:1008D0001FE0FF21C9434118090C0822114088403C
:1008E000B64A8218120C04231A4090400E4BC318CB
:1008F0001B0C02252B400E25691A891AC91A98402B
:10090000C00B08184100049AC01DC240D007C00F98
:10091000081881007918982252008A58002A29D094
:100920001F2803D1002304E000C0FFFF1921430862
:10093000CB1A04999940002300E049005568072626
:10094000B543049EAD1BA54202D200922C000CD0F0
:100950005569CE0FB60092191269002D02D095424A
:1009600000D02B00002AE8D11A00002A3FD10099BC
:1009700000293ED10121012282405000434203431D
:100980007A681A4000D17FE150421040401E020BAD
:1009900010231A40D040430908252B400293D84029
:1009A000830804252B40D840450802263540019590
:1009B000E84045082940029D5219D218019BD218DF
:1009C0005218C84010188000381898214900425821
:1009D0000DE002005068072188430499401AA042A4
:1009E00001D20400009210690028F2D15269002A55
:1009F000F0D10098002800D146E1B8680499401A67
:100A0000844200D340E1009E3869864200D239E139
:100A100070180390054604982018029000984068CA
:100A2000072188430299884201D000F08FFEAE4230
:100A300000D327E10098806901900098C66886423B
:100A40000ED0009880683969884226D3C168009A20
:100A5000914222D1B16891421FD1C660B0601EE0C0
:100A6000009914310E68002E07D1009910310E68DC
:100A7000002E14D001E001000E683000143002682E
:100A8000002AF8D1300010300268002AF3D138690A
:100A9000814202D30020086001E000F057FE019877
:100AA000002843D00098C069800038189821490078
:100AB00040180099026891420AD10660002E16D1B2
:100AC00078680121009AD2699140884378602DE0CE
:100AD00001983969884208D30069009988420198D1
:100AE00001D1066103E0466101E000F02FFE002E17
:100AF0001CD03869864217D30198B061009800690C
:100B0000002807D03969884202D33061866101E04C
:100B100000F01CFE00984069002807D0396988421F
:100B200002D37061866101E000F010FE0320012114
:100B3000102C0AD2029A1043009A50600098029A30
:100B4000801842681143416099E0049A1043009A6A
:100B500050600120204368602C51E008202819D201
:100B6000C200BC18283426003A681300C3400B406A
:100B700003D181401143396007E0A0683969884298
:100B800001D3060001E000F0E1FDA560F560AE6074
:100B9000EC6074E0200A01D100222BE00A049042AC
:100BA00001D31F2226E0FF22D2438218120C082311
:100BB0001A4001929040014A02E000BF00F0FFFF9E
:100BC0008218120C04231A409040314BC3181B0C9E
:100BD0000226334002930E23019E9B1B9A1A029B0E
:100BE000D21A9840C00B10184200C01D2300C34009
:100BF0000B40D2189000381898235B00C018EA61A7
:100C000000236B612B617B681E00D6400E4004D12F
:100C100091401943796005601CE000681F2A01D1EA
:100C2000002202E0192152088A1A2100914000E0B6
:100C30001000426807239A43A24210D0CA0F9200C4
:100C40008318103349001A68002AF1D139698B42A0
:100C500013D31D60A861ED600398A8600FE0816860
:100C60003A69904209D3914207D3CD60039A8260DA
:100C7000A960E8600020A86101E000F067FD00982D
:100C8000083002E000F062FD002005B0F0BD000079
:100C900000C0FFFFF2B586B004006168484208401A
:100CA000401E010B10221140C840420908231A407F
:100CB000D040830804252B40D84045080226354003
:100CC000E8408607F60F8918C91849198919F040B4
:100CD00008188000201898214900405805004168F4
:100CE00007229143069A8F1A09E0080041680722FB
:100CF0009143069A891AB94201D20F000500016991
:100D00000029F2D140690028F0D12069854200D243
:100D1000D2E0A81803900698381801906868072157
:100D200088430199884201D000F010FD0398854264
:100D300000D3C1E0A8690090EE68AE420CD0A8686C
:100D40002169884225D3C168A94222D1B168A9424C
:100D50001FD1C660B0601EE0290014310E68002E5D
:100D600007D1290010310E68002E14D001E00100D7
:100D70000E68300014300268002AF8D130001030BC
:100D80000268002AF3D12069814202D30020086062
:100D900001E000F0DBFC009800283DD0E86980000D
:100DA000201898214900401801688D4209D1066039
:100DB000002E14D160680121EA6991408843606087
:100DC0002AE000982169884207D30069A842009868
:100DD00001D1066103E0466101E000F0B7FC002E9E
:100DE0001AD02069864215D30098B061286900287E
:100DF00007D02169884202D33061866101E000F0AA
:100E0000A5FC6869002807D02169884202D3706177
:100E1000866101E000F09AFC0320102F09D20199AD
:100E20000843686001982818416801220A4342601B
:100E30003FE0069908436860012038430399486001
:100E40000398C751A0680090C608202E01D300F077
:100E50007DFC0098002829D0606902900196F0007E
:100E60002618283604960098102801D200F06EFC4F
:100E7000206801990200CA40D10705D40121019AD6
:100E800091400143216007E0B0682169884201D3A5
:100E9000049001E000F05AFC0298B06002980499B6
:100EA000C8600498029988600298C660A760039899
:100EB00060610835280002E000F048FC002007B01F
:100EC000F0BDF0B587B00400C046C046BB4DF52C60
:100ED00000D328E10B2C01D2102402E00B340720B0
:100EE0008443E008019028680199C84003273842EC
:100EF00050D001260122824388180190C0002C188E
:100F00002834A06800900198C000039000984068C1
:100F1000072188430399884201D000F017FC00980C
:100F2000806802900098A04201D100F00FFC009868
:100F30000299884201D100F009FC0098406807211D
:100F400088430399884201D000F000FC0298844253
:100F500006D12968019A01209040814329600DE063
:100F60002969884208D3C0680099884204D1029850
:100F7000A0600298C46001E000F0E8FB039807431A
:100F80000098476000980399401841680E434660F6
:100F9000009E06E1A968A14200D3D7E0002800D155
:100FA000B7E00126019901228A405100019A904040
:100FB0004A420A43024051421140491E080B102286
:100FC0001040C1404A0908231A400092D1408A08C3
:100FD00004231A400192D1404A0802231A40029287
:100FE000D1404A083240009BC018019BC018029BA8
:100FF000C0188018D14040180390C000281828302D
:101000000090806804900398C000029004984068A3
:10101000072188430299884201D000F097FB049889
:101020008068019004980099884201D100F08EFBFD
:1010300004980199884201D100F088FB0498406827
:10104000072188430299884201D000F07FFB009875
:101050000199884206D12968039A01209040814372
:10106000296010E00846296988420AD3C0680499BB
:10107000884206D101980099886000980199C8605B
:1010800001E000F063FB0298001B039027430498E3
:10109000476004980019059003983043059948600B
:1010A000039805990850A8680190C408202C01D322
:1010B00000F04CFB0198002825D06869029000944C
:1010C000E0002C18283427000198102801D200F0E5
:1010D0003DFB286800990200CA40324003D18E408F
:1010E00006432E6007E0A0682969884201D3070003
:1010F00001E000F02BFB0298A0600298F8600298D3
:1011000087600298C4600398A86005986861049E8F
:1011100047E06868002836D021002800FFF7BAFDB4
:10112000060013D044E03F20C043844202D3002491
:10113000E4430BE00B34072084436868002805D0A3
:1011400021002800FFF7B6FB060031D1A968A142B3
:1011500019D30A1B686901260327102A08D301192D
:101160006961AA6016434E608A502743476008E0D1
:101170000022AA606A610F43476041184A6816431B
:101180004E6006000DE0E86884420CD2001BE86067
:10119000AE693119A961012202434A60032020434C
:1011A0007060083604E021002800FFF78BF9060084
:1011B000C046C046300007B0F0BD0000EC2600205D
:1011C000002800D17047F0B585B008380500C0464A
:1011D000C046474C21698D4200D2ADE268680322C7
:1011E00003230340012B00D1A6E2C308DB000293D6
:1011F000EB1800930126304240D12B68104000D1FB
:101200009CE20298C0180290ED1A8D4200D293E23F
:101210006069854200D1F0E0D808202800D37CE046
:10122000A9680191EF680390BD4201D100F08EFAE8
:101230000198854201D100F089FA68680721884346
:101240000399C900884201D000F080FA0398C000D9
:101250002118019A08002830824206D010462269DF
:10126000904257D3C068A84254D10198874243D1D5
:101270002168039A012090408143216000988542B3
:1012800000D359E24068304200D155E2810700D5D1
:10129000A6E10099A269914200D0C0E0E0680299FD
:1012A0004118E160A5610E436E606069854202D11C
:1012B00000206061A060E069884200D33EE20D48F2
:1012C0000068002801D1FEF709FFA169002900D1BB
:1012D00034E2E068292802D32000FEF7F1FEE0693D
:1012E000E168884200D329E20020C043E06125E2A2
:1012F000EC260020242A002028318F4205D02069C6
:10130000874207D3B868A84204D10198C760019802
:10131000B860B3E700F01AFAB0E7A8690190EF6887
:10132000AF420BD0A868884224D3C168A94221D11A
:10133000B968A9421ED1C760B8601DE02A00143206
:101340001768002F07D12A0010321768002F13D01A
:1013500001E002001768380014300368002BF8D150
:10136000380010300368002BF3D18A4202D30020EA
:10137000106001E000F0EAF90198002800D17DE753
:10138000E8698000201898214900401801688D42C2
:1013900009D10760002F14D16168EA6901209040EB
:1013A000814361606AE701982169884207D3006937
:1013B000A842019801D1076103E0476101E000F014
:1013C000C5F9002F00D159E720698742A2D30199BE
:1013D000B9612969002906D0814202D339618F6140
:1013E00001E000F0B3F96869002800D146E72169FF
:1013F00088428FD37861876140E700984068024057
:10140000032A00D03AE70298A06000984068B043F1
:1014100000994860029806436E60029809E062698C
:10142000914208D1A06802994018A0606561064306
:101430006E60285082E107218843029909180291C1
:10144000C008202846D20099896803910099CF6886
:1014500001900098B84201D100F078F90098039902
:10146000884201D100F072F9009840680721884352
:101470000199C900884201D000F068F90198C000C4
:101480002118039A08002830824209D010462269A8
:10149000904200D297E0C068009A904200D092E05B
:1014A0000398874206D12168019A01209040814328
:1014B00021608AE028318F4207D02069874200D21C
:1014C00081E0B868009988427DD10398C76003988D
:1014D000B8607AE00098806901900098C7688742F8
:1014E0000ED0009880682169884226D3C168009A8E
:1014F000914222D1B96891421FD1C760B8601EE005
:10150000009914310F68002F07D1009910310F682E
:10151000002F14D001E001000F6838001430026879
:10152000002AF8D1380010300268002AF3D120696F
:10153000814202D30020086001E000F007F9019821
:10154000002842D00098C0698000201898214900E6
:1015500040180099026891420AD10760002F16D105
:1015600061680098C26901209040814361602CE06D
:1015700001982169884208D300690099884201983E
:1015800001D1076103E0476101E000F0DFF8002FBF
:101590001BD02069874216D30199B9610099096966
:1015A000002906D0814202D339618F6101E000F049
:1015B000CDF800984069002807D02169884202D3FD
:1015C0007861876101E000F0C1F8029830436860FB
:1015D00002982850606985420AD10298A060ADE067
:1015E000B0430099486002983043686002982850E0
:1015F0000298C008202822D20090C000271828375F
:1016000001970298102801D200F0A0F820680099F4
:101610000200CA40324003D18E400643266007E0F4
:10162000B8682169884201D3019001E000F08EF88A
:10163000BD600198C5600198A860EF607EE00298E7
:10164000000A01D1002225E03104884201D31F2283
:1016500020E0FF21C9434118090C082211400091E4
:10166000884038494118090C042211408840364A04
:101670008218120C02231A400E23009FDB1B591AFA
:10168000891A9040C00B08184100029AC01DC24040
:1016900032408A1890002018982149004118EA61C8
:1016A00000206861286163681F00D740374004D17B
:1016B00096401E4366600D601DE009681F2A01D137
:1016C000002302E0192352089B1A029A9A4000E074
:1016D00019004B680726B343029EB3420FD0D30FC5
:1016E0009B00CE18103652003368002BF0D12069D1
:1016F000864210D33560A961ED60AD600DE08A6867
:101700002369994207D39A4205D3D5608D60AA60B8
:10171000E960A86101E000F019F8206A401E20622B
:101720000CD1E4204000205800E080680028FCD163
:101730000020C043206201E000F008F8C046C04627
:1017400005B0F0BD00F0FFFF00C0FFFF80B5012035
:1017500000F046F801BDFEE707490868002801D0FF
:1017600000207047054807229043086004499143D0
:10177000091A0160704700BFC42A0020A709002091
:10178000A0110020124207D08B0706D00B78491C0D
:101790000370401C521EF7D87047830706D00B78A1
:1017A000491C0370401C521EF9D1704770B4103AA6
:1017B00003D378C9103A78C0FBD2530701D318C9B4
:1017C00018C001D508C908C0D20704D30B8803800C
:1017D000891C801C002A01D50B78037070BC7047EF
:1017E00080B5C046C046024A11001820ABBEFBE7D8
:1017F0002600020080B504228D49F020000101F08E
:1018000013FA04228B49A020C00001F00DFA042233
:1018100089498020400001F007FA01BD80B5802190
:10182000002001F07AF9002001F03AF9FFF7E2FF19
:10183000062282499020000101F0F6F901BD80B531
:101840008021002001F069F9002001F029F9062229
:101850007A499020000101F0E7F901BD10B5784BFD
:10186000784C2360784B794C2360794B794C23601A
:101870000300002B01D0734B18600800002801D032
:10188000724801601000002801D07248026010BD4B
:1018900000B583B0062269469020000101F07AF974
:1018A00001206D490968087001206B49096848707A
:1018B0000620694909688870002067490968C8706E
:1018C00065480068001D65490968090E0170634993
:1018D0000968090C417061490968090A81705F490A
:1018E0000968C17000205C49096808815A4800688D
:1018F0000A3080210170002141700020564909689A
:101900000873002054490968487300205249096847
:101910008873002050490968C87300204E4909683F
:10192000087400204C490968487400204A49096835
:101930008874002048490968C8740020464909682D
:101940000875002044490968487500204249096823
:101950008875002040490968C87500203E4909681B
:10196000087600203C490968487600203A49096811
:101970008876002038490968C876304800783649AA
:10198000096808772D4840783349096848772B481B
:1019900080783149096888772848C0782E490968D5
:1019A000C877264800792C490968203108702348F7
:1019B00040792949096821310870062006E0002194
:1019C000254A1268C0B212181177401CC0B2102804
:1019D000F5DB002007E000211F4A1268C0B2121890
:1019E0002C321170401CC0B24028F4DB002007E00C
:1019F0000021194A1268C0B212186C321170401CD2
:101A0000C0B28028F4DB632013490968EC31087008
:101A1000822011490968ED31087053200E49096888
:101A2000EE31087063200C490968EF31087007BD7A
:101A3000882A0020902A00208C2A00205C2A00207E
:101A4000F5170000100000201D18000014000020F1
:101A50003F18000018000020A02A00209C2A002027
:101A600030B583B00024FFF713FF0020AF490870A2
:101A70000020AE4948700020AC4988700020AB4976
:101A8000C8700020AA4908700020A94948700020A9
:101A9000A74988700020A649C87004243520A549AC
:101AA0000968A4B20919EC310870641C0120A1492D
:101AB0000968A4B20919EC310870641C01209D4921
:101AC0000968A4B20919EC310870641C3D209949D9
:101AD0000968A4B20919EC310870641C0720954903
:101AE0000968A4B20919EC310870641C01209149FD
:101AF0000968A4B20919EC310870641C8E4800789A
:101B00008C490968A4B20919EC310870641C8A4830
:101B1000407888490968A4B20919EC310870641C3E
:101B20008548807883490968A4B20919EC310870A6
:101B3000641C8148C0787F490968A4B20919EC3156
:101B40000870641C7C4800797A490968A4B20919B4
:101B5000EC310870641C7848407976490968A4B271
:101B60000919EC310870641C0C2072490968A4B290
:101B70000919EC310870641C00206E490968A4B290
:101B80000919EC310870641C00250AE06B48ADB2FD
:101B9000405D68490968A4B20919EC310870641CF9
:101BA0006D1C6648ADB2405D0028EFD16248C07838
:101BB000C0B2000900F068FF5E490968A4B20919C3
:101BC000EC310870641C5C48C07800F05DFF594936
:101BD0000968A4B20919EC310870641C56480079F0
:101BE000C0B2000900F050FF52490968A4B20919B7
:101BF000EC310870641C5048007900F045FF4D49F5
:101C00000968A4B20919EC310870641C4A4840798B
:101C1000C0B2000900F038FF46490968A4B20919AA
:101C2000EC310870641C4448407900F02DFF4149B4
:101C30000968A4B20919EC310870641C3D480068B9
:101C4000A4B2ADB2611B4018E530AD1D0570372060
:101C500038490968A4B20919EC310870641C0620DF
:101C600034490968A4B20919EC310870641C0120D8
:101C700030490968A4B20919EC310870641C0320CA
:101C80002C490968A4B20919EC310870641C0620BB
:101C900028490968A4B20919EC310870641C0F20A6
:101CA00024490968A4B20919EC310870641C3A206F
:101CB00020490968A4B20919EC310870641C3B2062
:101CC0001C490968A4B20919EC310870641CFF2092
:101CD00018490968A4B20919EC310870641C250080
:101CE00007E0002013490968ADB24919EC310870CA
:101CF0006D1CADB29C2040008542F2DBFF2069469E
:101D00000871FF2001A94870FF2001A98870FF20F9
:101D100001A9C8704320009001AB892292000548B8
:101D200001680748007801F095FC37BD7C2A002047
:101D3000802A0020A02A00205C2A00200800002021
:101D4000DE2A002030B583B00024FFF7A1FD1B4838
:101D500000214056032804D018480021405604288A
:101D60002ED10020EB49096888720020E9490968F2
:101D7000C872E9480078E74909680873E64840787E
:101D8000E44909684873E4488078E249096888733F
:101D9000E148C078DF490968C873EC4800786946B3
:101DA0000871EA48407801A94870E848807801A99C
:101DB0008870E648C07801A9C8700DE0DF2A0020CD
:101DC000FF2069460871FF2001A94870FF2001A982
:101DD0008870FF2001A9C87004243520CD49096806
:101DE000A4B20919EC310870641C0120C9490968C2
:101DF000A4B20919EC310870641C0320C5490968B4
:101E0000A4B20919EC310870641C3D20C14909686D
:101E1000A4B20919EC310870641C0720BD49096897
:101E2000A4B20919EC310870641C0120B949096891
:101E3000A4B20919EC310870641CC5480078B54992
:101E40000968A4B20919EC310870641CC0484078D4
:101E5000B0490968A4B20919EC310870641CBC4887
:101E60008078AC490968A4B20919EC310870641C87
:101E7000B748C078A7490968A4B20919EC310870BD
:101E8000641CB3480079A3490968A4B20919EC316C
:101E90000870641CAE4840799E490968A4B20919CB
:101EA000EC310870641C01A8C078FF2867D132208B
:101EB00098490968A4B20919EC310870641C04201F
:101EC00094490968A4B20919EC310870641C92485D
:101ED000007890490968A4B20919EC310870641CB3
:101EE0008D4840788B490968A4B20919EC31087013
:101EF000641C8948807887490968A4B20919EC31C3
:101F00000870641C8448C07882490968A4B2091921
:101F1000EC310870641C36207E490968A4B20919A6
:101F2000EC310870641C04207A490968A4B20919CC
:101F3000EC310870641C8548007876490968A4B2C1
:101F40000919EC310870641C8048407871490968AF
:101F5000A4B20919EC310870641C7C4880786D4982
:101F60000968A4B20919EC310870641C7748C0787C
:101F700068490968A4B20919EC310870641C0C2086
:101F800064490968A4B20919EC310870641C002086
:101F900060490968A4B20919EC310870641C002575
:101FA00009E06C48405D5B490968A4B20919EC314D
:101FB0000870641C6D1C6748405D0028F1D16448BE
:101FC000C078C0B2000900F05FFD52490968A4B2B0
:101FD0000919EC310870641C5D48C07800F054FDAC
:101FE0004C490968A4B20919EC310870641C5848BE
:101FF0000079C0B2000900F047FD46490968A4B263
:102000000919EC310870641C5148007900F03CFD5E
:1020100040490968A4B20919EC310870641C4C48A5
:102020004079C0B2000900F02FFD3A490968A4B216
:102030000919EC310870641C4548407900F024FD12
:1020400034490968A4B20919EC310870641C31489C
:102050000068A4B2611B4018E530AD1D0570372043
:102060002C490968A4B20919EC310870641C0820D5
:1020700028490968A4B20919EC310870641C0120D0
:1020800024490968A4B20919EC310870641C0320C2
:1020900020490968A4B20919EC310870641C0620B3
:1020A0001C490968A4B20919EC310870641C0F209E
:1020B00018490968A4B20919EC310870641C3A2067
:1020C00014490968A4B20919EC310870641C3B205A
:1020D00010490968A4B20919EC310870641C1F206A
:1020E0000C490968A4B20919EC310870641C21205C
:1020F00008490968A4B20919EC310870641CFF2072
:1021000004490968A4B20919EC310870641C25005F
:10211000ADB20AE0A02A0020882A002000209349BE
:1021200009684919EC3108706D1C9C2040008542FB
:10213000F4DB4320009001AB892292008B480168B8
:102140008B48007801F086FA37BD00007C2A002019
:102150005C2A00200800002000B583B00020FFF7B3
:1021600097FB04200021814A1268917200217F4A66
:102170001268D17235217D4A126880B21218EC3291
:102180001170401C0121794A126880B21218EC3299
:102190001170401C0421754A126880B21218EC328A
:1021A0001170401C3D21714A126880B21218EC3245
:1021B0001170401C07216D4A126880B21218EC326F
:1021C0001170401C0121694A126880B21218EC3269
:1021D0001170401C67490978644A126880B212186D
:1021E000EC321170401C63494978604A126880B231
:1021F0001218EC321170401C5E4989785B4A1268F3
:1022000080B21218EC321170401C5A49C978574AF2
:10221000126880B21218EC321170401C55490979CD
:10222000524A126880B21218EC321170401C5149A7
:1022300049794E4A126880B21218EC321170401C73
:1022400032214A4A126880B21218EC321170401CD6
:102250000421464A126880B21218EC321170401CF8
:1022600045490978414A126880B21218EC3211705F
:10227000401C414949783D4A126880B21218EC323C
:102280001170401C3C498978384A126880B2121893
:10229000EC321170401C3849C978344A126880B257
:1022A0001218EC321170401C3621304A126880B28C
:1022B0001218EC321170401C04212C4A126880B2B2
:1022C0001218EC321170401C2C490978274A126808
:1022D00080B21218EC321170401C28494978234A08
:1022E000126880B21218EC321170401C23498978B0
:1022F0001E4A126880B21218EC321170401C1F493D
:10230000C9781A4A126880B21218EC321170401C57
:10231000FF21164A126880B21218EC321170401C6C
:1023200080B206E00021114A12681218EC321170D6
:10233000401C9C2149008842F4DBFF20694608715B
:10234000FF2001A94870FF2001A98870FF2001A982
:10235000C8704320009001AB8922920003480168B5
:10236000A748007801F076F907BD0000A02A0020F8
:10237000DE2A00205C2A0020882A00207C2A0020F7
:1023800030B585B000249E48007800F0CCFC0100F8
:1023900089B200293DD003A9009101AB020092B29D
:1023A000984801689648007801F056FA694689898C
:1023B000432900D020E193490968097F924A1278A5
:1023C000914224D18F490968497F8F4A52789142BE
:1023D0001DD18C490968897F8B4A9278914216D128
:1023E00088490968C97F884AD27891420FD18549C6
:1023F000096820310978844A1279914207D18149CC
:10240000096821310978804A5279914203D000202D
:10241000F4E00020F2E07D49097800290BD17B49E6
:102420004978002907D179498978002903D177496A
:10243000C978002931D069460979744A12789142E5
:1024400011D101A94978714A527891420BD101A961
:1024500089786E4A9278914205D101A9C9786B4A70
:10246000D278914219D069460979694A1278914225
:1024700011D101A94978664A527891420BD101A93C
:102480008978634A9278914205D101A9C978604A56
:10249000D278914201D00020B0E05A490968F03169
:1024A00080B20818F03800E00100814200D3A3E0B8
:1024B0000A78002A0ED0012A13D0032A24D0062A33
:1024C00039D0332A4ED0352A06D0362A6AD0FF2A90
:1024D000EAD08BE0491CE8E7491C491C0C78491CF0
:1024E000E3E7491C491C0A784A4B1A70491C0A78D0
:1024F000484B5A70491C0A78464B9A70491C0A7816
:10250000444BDA70491CD0E7491C0A78491C0B7807
:10251000B64D2B70491C0B78B44D6B70491C0B7871
:10252000B24DAB70491C0B78B04DEB70491CD2B268
:102530008918091FB9E7491C0A78491C0B78B14D65
:102540002B70491C0B78AF4D6B70491C0B78AD4D4F
:10255000AB70491C0B78AB4DEB70491CD2B289189B
:10256000091FA2E7491C0A78491C0A78A64B1A6081
:10257000491CA54A126812020B78D218A24B1A60A5
:10258000491CA14A126812020B78D2189E4B1A609D
:10259000491C9D4A126812020B78D2189A4B1A6095
:1025A000491C82E7491C0A78491C0A78174B1A70A3
:1025B000491C0A78154B5A70491C0A78134B9A70BB
:1025C000491C0A78114BDA70491C6A461279104B83
:1025D0001A7001AA52780E4B5A7001AA92780C4BCD
:1025E0009A7001AAD2780A4BDA705EE7491C0A7821
:1025F000491CD2B2891858E7200040B205B030BD5E
:10260000DE2A0020A02A00205C2A00207C2A00204C
:10261000802A0020902A002010B5B648002140569C
:10262000062801D10520DFE0B348007804214843A3
:10263000C000C2218900401800F032FA222806D0DA
:10264000002344220221AC48007800F065FC0124FC
:10265000FFF796FEA74900228956002907D00229D4
:1026600038D016D3042900D186E059D3BAE000202F
:10267000A24908700020A149487000209F49887035
:1026800000209E49C870FFF7EBF9012099490870B6
:10269000A8E0C0B2022819D199480068007C974987
:1026A000087097480068407C9449487094480068D6
:1026B000807C9249887092480068C07C8F49C870BD
:1026C000FFF740FB02208B49087002E000F09EF803
:1026D000040087E0C0B2052815D100F0DFF800281B
:1026E00008D088480068804700F060F903208149DD
:1026F000087014E000F05AF9AB48006880470020E9
:102700007C4908700BE0C0B2062805D100F04EF9F4
:1027100001207849087002E000F078F8040061E0D8
:102720000424394800680021C943884223D0364830
:1027300000684008C449096888421CD200206F48DC
:102740000078A94908706D484078A74948706B48DF
:102750008078A54988706948C078A349C870AA489C
:102760000068401CA8490860FFF7ECFA00F01EF969
:1027700004206049087035E00424C0B2052824D143
:102780000020B2490870984800785C49097888426E
:1027900011D1954840785949497888420BD19248DF
:1027A000807856498978884205D18F48C078534946
:1027B000C978884203D00324A5480068804700F008
:1027C000F5F803204B4908700BE0C0B2062805D18C
:1027D00000F0ECF801204749087002E000F016F81C
:1027E0000400FFE72000C0B210BD00008C2A0020CA
:1027F00080B54148007800F055FC06203D4908703E
:1028000001BD0000942A00200000002010B5012422
:102810008E4800214056022826DA8E4800688A49F0
:102820000968884237D2334800214056012804D035
:10283000022805D0042806D008E0FFF711F905E0CA
:10284000FFF780FA02E0FFF77DFAFFE700207E49FC
:1028500008607D4800680A307E4908607B4800783F
:10286000401C7A49087016E0224800214056012891
:1028700004D0022807D0042805D00AE000201D4912
:102880000870002405E0FFF7EBF8012019490870F3
:10289000FFE700F08BF82000C0B210BD38B5D8209B
:1028A000400100F0FDF804000321D820400100F0B1
:1028B00034F969480090114B112268490E4800789C
:1028C00000F0C8FE05002100C9B2D820400100F088
:1028D00024F90C20C043854201D1012009E0FFF713
:1028E0003BFC5948056858480068401B0228FAD349
:1028F000002032BDDF2A0020DE2A0020882A0020A6
:10290000A02A00201000002038B505000C00684601
:1029100000210160062252499020000100F03AF99E
:102920004F4800784E49497801434D488078084324
:102930004B49C97801434A480079084348494979D5
:102940000143002917D10020454908700820444957
:102950004870DC204249887000204149C87000203E
:102960003F49087100203E49487106223C499020A9
:10297000000100F059F93B4805703B4804603B48B2
:102980002149086004226946F020000100F04CF95A
:10299000042269468020400000F046F900F006F865
:1029A00000203349087031BD18000020002026495E
:1029B00008600A20274908600020244908707047F1
:1029C00021480068401C204908607047294909785F
:1029D00001702849497841702649897881702549D4
:1029E000C978C17070470000842A00202249097804
:1029F00001702149497841701F49897881701E49C9
:102A0000C978C170704700009C2A00201B490978D2
:102A100001701A49497841701849897881701749BD
:102A2000C978C1707047164909780170144949780E
:102A300041701349897881701149C978C170704714
:102A40001048006870470000982A0020E02A002003
:102A5000140000200400002088130000988A000061
:102A60005C2A0020DE2A0020A02A0020785634129A
:102A7000DF2A0020882A00208C2A0020902A0020AB
:102A8000942A00200000002000B50007000FC0B20B
:102A90000A2802DA3030C0B201E03730C0B200BDDF
:102AA00010B582B00400DB48C0688047D94840694F
:102AB0008047D848406A002803D0D648806A00285A
:102AC00010D12000000CC0B2D249096A8847200A00
:102AD000C0B2D049096A88472000C0B2CD49096A0E
:102AE00088470DE02000000C69460870200A6946FE
:102AF00048706846847003216846C64A926A9047C7
:102B0000C448C06980470400C24880698047C14802
:102B1000006980472000C0B216BD38B505000C0022
:102B2000BC48C0688047BB484069804728000425EE
:102B30000543B848806A002815D12800000CC0B2AF
:102B4000B449096A8847280AC0B2B249096A884765
:102B50002800C0B2AF49096A88472000C0B2AD4919
:102B6000096A88470FE02800000C69460870280AA7
:102B700069464870684685706846C4700421684696
:102B8000A44A926A9047A34880698047A148006997
:102B9000804731BD70B582B004000D0016009D481D
:102BA000C06880479B48406980479A48406A00282F
:102BB00003D09848806A00281BD12000000CC0B2C6
:102BC0009449096A8847200AC0B29249096A88472D
:102BD0002000C0B28F49096A88470024A4B2B6B267
:102BE000B4421AD28B48C0698047A4B22855641CED
:102BF000F4E72000000C69460870200A6946487016
:102C00006846847003216846824A926A9047310080
:102C100089B228007F4A526A90477E48806980477F
:102C20007C480069804773BD70B582B004000D0018
:102C300016007848C0688047764840698047200081
:102C4000042404437348806A00281BD12000000C30
:102C5000C0B27049096A8847200AC0B26D49096A42
:102C600088472000C0B26B49096A88470024A4B293
:102C7000B6B2B4421AD2A4B2285D6649096A88473E
:102C8000641CF4E72000000C69460870200A6946BD
:102C9000487068468470032168465E4A926A90478D
:102CA000310089B228005B4A926A9047594880698E
:102CB000804758480069804773BD70B504000025FF
:102CC0000026E4B204206043C0008B494018FFF79F
:102CD000E7FE0600B6B23602E4B204206043C0004C
:102CE00086494018FFF7DCFE3618B6B2002E13D026
:102CF000E4B204206043C0007F494018FFF7D0FED3
:102D00000500ADB22D02E4B204206043C0007B494F
:102D10004018FFF7C5FE2D18ADB2B6B2B542D0D1FE
:102D2000280080B270BD70B5040000250026E4B212
:102D300004206043C00072494018FFF7B1FE06004E
:102D4000B6B23602E4B204206043C0006D494018B8
:102D5000FFF7A6FE3618B6B2002E13D0E4B2042058
:102D60006043C00066494018FFF79AFE0500ADB207
:102D70002D02E4B204206043C00062494018FFF70E
:102D80008FFE2D18ADB2B6B2B542D0D1280080B2B8
:102D900070BDF8B505000F00160000240020B6B283
:102DA000002E36D0EDB204206843C00056494018CA
:102DB000FFF776FEC0B20402EDB204206843C00003
:102DC00052494018FFF76CFE2418A4B22002EDB25D
:102DD00004216943891CC9004018320092B23900AD
:102DE000FFF722FFA419210089B2090AC9B2EDB286
:102DF00004206843C000444A8018FFF78EFE21007B
:102E0000C9B2EDB204204543E800404A8018FFF7FC
:102E100084FEF1BDE0000020F8B505000F001600AB
:102E200000240020B6B2002E36D0EDB20420684354
:102E3000C00037494018FFF733FEC0B20402EDB2BC
:102E400004206843C00033494018FFF729FE2418C6
:102E5000A4B22002EDB204216943C91CC900401884
:102E6000320092B23900FFF795FEA419210089B211
:102E7000090AC9B2EDB204206843C000244A801890
:102E8000FFF74BFE2100C9B2EDB204204543E80034
:102E9000204A8018FFF741FEF1BD70B504000E0016
:102EA0000025E4B204206043C00019494018FFF730
:102EB000F7FDC0B20502E4B204206043C00015492A
:102EC0004018FFF7EDFD2D18AD19290089B2090A48
:102ED000C9B2E4B204206043C0000D4A8018FFF775
:102EE0001CFE2900C9B2E4B204204443E000094AB0
:102EF0008018FFF712FE70BD0820000008210000B6
:102F0000082600000827000008240000082500000B
:102F10000828000008290000F8B504000F0016007A
:102F20001D00E4B2092C02DB0020C043B9E0FFB26F
:102F30003800401E03D0401E02280CD91DE0042298
:102F40006946F0200001FFF725FE0098002802D115
:102F50000220C043A5E0680712D4EDB2002D22D0B4
:102F6000FFB23800012802D002280DD01BE021203A
:102F7000054208D10520C04393E00420C04390E0FF
:102F80000520C0438DE00EE0A80604D5280602D433
:102F90000520C04385E0E80604D5280602D40520B4
:102FA000C0437EE0FFE72000C0B200F07BF8F021D4
:102FB00029403943C9B2E4B204206043401CC00038
:102FC000FFF7ABFDB6B2002E0FD15C4806885B4818
:102FD0000088401C59490880584800885849884250
:102FE00003D1C020000255490880310089B2090A86
:102FF000C9B2E4B204206043C0008122D20080182C
:10300000FFF78BFD3100C9B2E4B204206043C00079
:10301000A122D2008018FFF780FD0121E4B2042034
:103020006043C000842252008018FFF776FDE4B2AE
:1030300004206043C000842149004018FFF730FDA0
:103040000028F4D19B4800880121A1408843994978
:10305000088098480088EDB22900C907C90FA1402F
:10306000014394480180944800880121A14088438D
:103070009149088000209149E4B2022262438852BB
:1030800000208F49E4B20855E4B204206043C00038
:10309000C22189004018FFF703FD0028F4D020006A
:1030A00040B2F2BD10B50400E4B2092C02DB0020EE
:1030B000C04342E01021E4B204206043C0008422F7
:1030C00052008018FFF729FDE4B204206043C000DD
:1030D000842149004018FFF7E3FC0028F4D11F21A8
:1030E000E4B204206043C000822292008018FFF7FF
:1030F00014FD704800880121A14088436D49088073
:103100006D4800880121A14088436B490880002058
:103110006A49E4B202226243885200206849E4B25C
:103120000855E4B204206043C000C2218900401861
:10313000FFF7B6FC0028F4D1012010BD9C0100204F
:10314000F0FF000070B504000E00150000208E494D
:103150000880E4B2092C02DB0020C043A8E0E4B2FE
:1031600004206043401CC000FFF79AFC0007000FDA
:10317000012802D00420C0439AE0E4B20420604356
:10318000C000C22189004018FFF78AFC132802D032
:103190000220C0438CE030780002717840180002B1
:1031A000B17840180002F17840180021C9438842E4
:1031B00001D0002802D10B20C04379E0ADB2002D30
:1031C00002D10A20C04373E004223100E4B204209B
:1031D0006043C0006D4BC018FFF726FD290089B27F
:1031E000090AC9B2E4B204206043C000684A8018EA
:1031F000FFF793FC2900C9B2E4B204206043C00089
:10320000644A8018FFF789FC0421E4B2042060437B
:10321000C000842252008018FFF77FFCE4B2042033
:103220006043C000842149004018FFF739FC0028A2
:10323000F4D1204800880121A140084201D000209B
:1032400036E0E4B204206043C000C2218900401887
:10325000FFF726FC17282AD0E4B204206043C00000
:10326000822189004018FFF71BFC000704D4464860
:103270000088A94988420CDB0821E4B204204443B9
:10328000E000822292008018FFF747FC0C20C04328
:103290000EE0E4B204206043C000C221890040185F
:1032A000FFF7FEFB0028CCD10320C04300E0012043
:1032B00070BD0000DA2A0020DC2A00203C2A002011
:1032C000742A002010B5040000202F490880E4B2C1
:1032D000092C02DB0020C04355E0E4B20420604327
:1032E000401CC000FFF7DCFB0007000F012802D0E4
:1032F0000420C04347E00821E4B204206043C0003A
:10330000842252008018FFF708FCE4B204206043D6
:10331000C000842149004018FFF7C2FB0028F4D107
:103320007E4800880121A14088437C4908807C4870
:1033300000880121A140084201D0002023E0E4B22E
:1033400004206043C000C22189004018FFF7A8FB99
:10335000002817D0E4B204206043C0008221890015
:103360004018FFF79DFB000705D407480088FF21A0
:10337000F6318842E3DB2000C0B2FFF793FE0C2059
:10338000C04300E0012010BDD82A0020080C000036
:103390000810000008110000F8B504000F00150027
:1033A00000200026E4B2092C02DB0020C043B2E07A
:1033B000E4B204206043401CC000FFF771FB00072B
:1033C000000F012802D00420C043A4E0ADB2002DBC
:1033D00002D10D20C0439EE0E4B204206043C0004F
:1033E000C22189004018FFF75BFBC0B2172805D047
:1033F000C0B21C2802D00620C0438CE04748008899
:103400000121A14008421DD0E4B204206043C00065
:10341000822189004018FFF743FBC006C00EC10699
:1034200039D51021E4B204206043C000822292000A
:103430008018FFF772FB394800880121A1408843BA
:1034400036490880E4B204206043C0008049401837
:10345000FFF726FB8602B6B2ADB2AE4200D235000F
:103460002000C0B2FFF729FC0600E4B2042060434C
:10347000C000C22189004018FFF712FBC0B2172814
:1034800014D0C0B21C2811D02000C0B2FFF70AFE31
:103490000620C0433FE0000706D52000C0B2FFF77A
:1034A00001FE0C20C04336E0002034E01C480088B8
:1034B0000121A140084205D0B6B2ADB2AE4201D260
:1034C000002028E0B6B2ADB2AE42C9D32A0092B213
:1034D00039002000C0B2FFF75CFC2021E4B20420D8
:1034E0006043C000842252008018FFF716FBE4B24C
:1034F00004206043C000842149004018FFF7D0FA3F
:103500000028F4D1054800880121A1400143034867
:103510000180ADB22800F2BDD1070000DC2A0020F6
:10352000DA2A0020F2B50400150000200026E4B2DB
:10353000092C02DB0020C04389E0E4B20420604390
:10354000401CC000FFF7ACFA0007000F012802D0B2
:103550000420C0437BE0ADB2002D02D10D20C0435A
:1035600075E0E4B204206043C000B5494018FFF79D
:1035700097FA8602B6B2ADB2AE4200D23500200054
:10358000C0B2FFF7D0FB0600E4B204206043C000E5
:10359000C22189004018FFF783FAC0B2172825D04E
:1035A000C0B21C281BD1B6B2002E2DD12000C0B253
:1035B000FFF783FB80B20700E4B204206043C00041
:1035C00023494018FFF76CFA8102380088420DD178
:1035D0002000C0B2FFF766FD0620C04337E02000A0
:1035E000C0B2FFF75FFD0620C04330E09548008879
:1035F0000121A140084204D0B6B2002E01D1002022
:1036000025E0B6B2002EBAD0B6B2ADB2AE4200D20C
:1036100035002A0092B200992000C0B2FFF7FCFBEF
:103620004021E4B204206043C0008422520080188C
:10363000FFF773FAE4B204206043C000842149001C
:103640004018FFF72DFA0028F4D1ADB22800F2BDE2
:10365000081F0000F2B5040015001F00002000261E
:10366000E4B2092C02DB0020C043E7E0E4B204200E
:103670006043401CC000FFF713FA0007000FC0B200
:10368000801E022805D8ADB2002D05D10D20C04303
:10369000D4E00420C043D1E03878000279784018A3
:1036A0000002B97840180002F978401800280BD1C0
:1036B000E4B204206043401CC000FFF7F1F940076A
:1036C00002D40B20C043B9E0069EB6B2002E0BD147
:1036D000E4B204206043401CC000FFF7E1F940075A
:1036E00002D40A20C043A9E0E4B204206043C00031
:1036F000C22189004018FFF7D3F9C0B2422808D090
:10370000C0B2222805D0C0B2322802D00620C04361
:1037100094E004223900E4B204206043C0004A4B24
:10372000C018FFF781FA310089B2090AC9B2E4B2C0
:1037300004206043C000454A8018FFF7EEF93100CD
:10374000C9B2E4B204206043C000414A8018FFF7C8
:10375000E4F9E4B204206043C0003E494018FFF79A
:103760009FF98602B6B2ADB2AE4200D2350020005B
:10377000C0B2FFF7A2FA0600E4B204206043C00022
:10378000C22189004018FFF78BF9002802D10320DD
:10379000C04353E02B4800880121A140084205D0D6
:1037A000B6B2ADB2AE4201D2002047E0B6B2ADB281
:1037B000AE42DCD32A0092B200992000C0B2FFF7DB
:1037C000E8FA2021E4B204206043C00084225200C1
:1037D0008018FFF7A2F9E4B204206043C0008421FE
:1037E00049004018FFF75CF90028F4D1E4B2042046
:1037F0006043C000822189004018FFF751F9C006DC
:10380000C00EC1060CD51021E4B204204443E000F0
:10381000822292008018FFF780F9ADB228000DE0F7
:103820000007E3D50821E4B204204443E0008222EB
:1038300092008018FFF771F90C20C043F2BD000020
:10384000081E0000DA2A0020080C00000810000002
:1038500008110000081F0000F2B584B00400160033
:103860001F000025E4B2092C02DB0020C043B7E1B1
:10387000E4B204206043401CC000FFF711F9694620
:103880000872C0B20007000FC0B2801E022805D81F
:10389000B6B2002E05D10D20C043A1E10420C043E3
:1038A0009EE1D048E4B202216143405A002820D171
:1038B0002000C0B2FFF737FA0500E4B204206043ED
:1038C000C000C22189004018FFF7EAF8002802D1A1
:1038D0000320C04384E1C44800880121A14008427C
:1038E00004D0ADB2002D01D1002079E1ADB2002DA0
:1038F000DED06846007A4007400FC0B2022806D0EA
:1039000000D22CE104286BD000D2CAE027E1B548F0
:10391000E4B202216143405A002849D10822694695
:103920002000C0B2FFF778FA4021E4B204206043DF
:10393000C000842252008018FFF7EFF8E4B20420A0
:103940006043C000842149004018FFF7A9F800280F
:10395000F4D16846007838706846407878706846D8
:103960008078B8706846C078F8700A986946097916
:103970000180018809026A465279891801806846E7
:1039800080799849E4B20222624388529548E4B2B1
:1039900002216143405A00026946C97940189149A1
:1039A000E4B202226243885280209049E4B2085572
:1039B0008C48E4B202216143405AB6B2864201D239
:1039C000350004E08748E4B202216143455A2E00E5
:1039D0002A0092B204992000C0B2FFF71DFAC9E094
:1039E0008048E4B202216143405A002842D10222B9
:1039F00069462000C0B2FFF70FFA4021E4B204206C
:103A00006043C000842252008018FFF786F8E4B2B9
:103A100004206043C000842149004018FFF740F8AB
:103A20000028F4D1684600786E49E4B2022262436D
:103A300088526C48E4B202216143405A0002694650
:103A400049784018801E6749E4B2022262438852D6
:103A50006448E4B202216143405A6549884205DB6B
:103A60002000C0B2FFF71EFB6248B9E080205F492A
:103A7000E4B208555B48E4B202216143405AB6B251
:103A8000864201D2350004E05648E4B20221614387
:103A9000455A2A0092B204992000C0B2FFF7BCF93F
:103AA00068E05048E4B202216143405A00283FD107
:103AB000062269462000C0B2FFF7AEF94021E4B209
:103AC00004206043C000842252008018FFF725F8CC
:103AD000E4B204206043C000842149004018FEF78E
:103AE000DFFF0028F4D168460078387068464078D7
:103AF000787068468078B8706846C078F870684614
:103B000000793849E4B20222624388523548E4B26F
:103B100002216143405A00026946497940183149FF
:103B2000E4B202226243885280203049E4B2085550
:103B30002C48E4B202216143405AB6B2864201D217
:103B4000350004E02748E4B202216143455A2A00C7
:103B500092B204992000C0B2FFF75EF90AE0290092
:103B600089B22000C0B2FFF798F91E48E4B20221E2
:103B7000614345524021E4B204206043C0008422E6
:103B800052008018FEF7C9FFE4B204206043C00071
:103B9000842149004018FEF783FF0028F4D1114822
:103BA000E4B202216143405A401B0E49E4B20222B2
:103BB000624388520B48E4B202216143405A002814
:103BC00008D00A48E4B2005D012101430748E4B28D
:103BD000015503E000200549E4B20855ADB22800C4
:103BE00005B0F0BD3C2A0020DA2A0020742A00200B
:103BF000EB05000017FCFFFFF1B5A2B014001D009B
:103C0000049100200D900AE00498229A90470490B5
:103C1000002800D1C9E20D98401C0D90641C217849
:103C2000002901D10D98C2E22529EDD1002007908D
:103C3000089009900A900B900C9002E0010001207E
:103C40000843641C21782029F8D023290ED02B2981
:103C500004D02D2907D030290BD00DE0010002201F
:103C6000084380B2EDE701000420F9E701000820D5
:103C7000F6E701001020F3E72A290FD1296829600F
:103C80000A68091D29600F92002A05D551420F913B
:103C900001000420084380B2641C12E000210F914F
:103CA0000AE00F9A754B9A4205D093009A18520079
:103CB000511830390F91641C21780A00303A0A2AD1
:103CC000EFD321782E2903D00021C9430E911EE0A5
:103CD000641C21782A2907D1296829600A68091DEE
:103CE00029600E92641C12E000210E910AE00E9AE7
:103CF000624B9A4205D093009A18520051183039FD
:103D00000E91641C21780A00303A0A2AEFD302A9E6
:103D100008872678310058487844FF305D3000F03D
:103D2000E4FE002801D0641C00E0002602A83A301E
:103D3000067002A83A300078682804D121786829F2
:103D400001D1622005E06C2807D120786C2804D1CD
:103D5000712002A93A310870641C12A806902678D6
:103D6000641C300025382AD01C3800D1CFE0001F59
:103D7000022800D8CBE0133800D1EEE0093800D19A
:103D8000C5E0801E00D157E1401E00D12FE1401E4A
:103D9000022800D8BBE0001F00D128E1401F00D15D
:103DA00086E0401E00D1D8E0401E26D0C01E0BD0B9
:103DB000801E00D1D1E0C01E00D1CEE046E125201A
:103DC00012A9087001204BE1286828600668001DD0
:103DD000286005960E9F002F03D5300000F08FFE5F
:103DE00009E03A000021300000F091FE002801D0E7
:103DF000801B00E03800089033E1286828600268E2
:103E0000001D28600020C0430021104002AA03C208
:103E100012A80590069B3C2602A803C8002904D1DD
:103E2000002802D10E9A002A14D0761E01960207AD
:103E3000120F3032D2B23A2A00DB27329A550009EB
:103E40000A071043090901D1002803D0059A9F19D8
:103E5000BA42EAD33C20801B0890991905910E992B
:103E600088420FDA081A0A9002A8008F044901401C
:103E700002A80187F5E000BF084C0000FFFFFF7FAC
:103E8000EFFF0000002900D4EBE002A938310978E7
:103E900014220A40102A00D0E3E00F99079A891AE9
:103EA0000A9A891A0E1A012E00DADAE00A96D8E088
:103EB00002A83A300078622819D0682806D06A280B
:103EC0000CD06C281BD0712808D018E02868286016
:103ED0000168001D28600D980880C2E028682860ED
:103EE0000268001D28600D98C11703C2B9E0286858
:103EF00028600168001D28600D980870B1E02868EE
:103F000028600168001D28600D980860A9E02A68F3
:103F1000D21D072082432A6003CA2A6002AA03C274
:103F2000002902D507982D210AE002A8008F8107F9
:103F300002D507982B2103E0C00705D5079820215B
:103F400012AA1154401C079012A807994018059016
:103F5000310002A800F0FAF983E002A83A300078B4
:103F60006C280BD0712801D06A2807D12A68D21D8D
:103F7000072082432A6003CA2A6005E02968296075
:103F80000868091D2960002102AA03C202A83A306C
:103F90000078682803D102A803C880B20BE0622829
:103FA00003D102A803C8C0B205E0742801D07A2862
:103FB00004D102A803C8002102AA03C202A8383013
:103FC000007800072FD502A803C8002901D10028D6
:103FD00029D020203043782825D10798302112AAF3
:103FE0001154401C411C079112A90E541BE02900DA
:103FF00002A83A30007800F0DCF802AA03C202A856
:10400000002902DA07982D2109E0008F810702D5E7
:1040100007982B2103E0C00705D50798202112AA95
:104020001154401C079012A80799401805903100C0
:1040300002A800F0F2F814E0012007902868286038
:104040000168001D286012A801700AE0252012A94D
:10405000087001200790002E03D012A8467002209D
:1040600007900F980799401A0A99401A0899401A20
:104070000B99401A0999401A0C99401A019002A80C
:1040800038300078400711D4202069460870019824
:1040900001280BDB019E01236A4602A9229800F049
:1040A0000CFD002800D080E0761EF4D1079F12AEF0
:1040B000002F0CD031780498229A90470490002861
:1040C00073D00D98401C0D90761C7F1EF2D13020CD
:1040D000694608700A9E012E09DB01236A4602A97F
:1040E000229800F0EAFC00285FD1761EF5D1059EEB
:1040F000089F002F0CD031780498229A90470490A2
:10410000002852D00D98401C0D90761C7F1EF2D1D5
:104110003020694608700B9E012E09DB01236A4698
:1041200002A9229800F0C9FC00283ED1761EF5D1E4
:10413000059808994618099F002F0CD031780498EB
:10414000229A9047049000282FD00D98401C0D9083
:10415000761C7F1EF2D13020694608700C9E012E1D
:1041600009DB01236A4602A9229800F0A6FC002878
:104170001BD1761EF5D102A838300078400700D454
:104180004DE52020694608700198012800DA46E5CF
:10419000019E01236A4602A9229800F08EFC0028A5
:1041A00003D1761E00D13AE5F3E70020C04323B0E7
:1041B000F0BD0A00622822D0682819D06A2808D0E9
:1041C0006C2823D0712804D074281FD07A2808D0F6
:1041D0001CE01368DB1D07208343136003CB1360CF
:1041E0007047116811600868091D1160002170474F
:1041F000116811600868091D116000B20BE01168B8
:1042000011600868091D116040B204E01168116076
:104210000868091D1160C1177047F3B583B00069C4
:1042200000906846027C6F2A01D1082406E0202114
:104230001143782901D00A2400E010243C2503987A
:1042400003C806000F00642A01D0692A07D100299B
:1042500005DA00200021801BB94106000F00002F65
:1042600012D1002E10D10398006B00280CD1082C1D
:104270003CD1039838300078000737D53B253020F3
:1042800000993B31087031E06D1E01953000390016
:104290002200E31700F047FC3032D2B23A2A03DBA7
:1042A0006846007C51381218009842553000390099
:1042B0002200E31700F037FC06000F0001D1002EAA
:1042C00005D00398C068009949198842DCD3082CAE
:1042D0000CD1039838300078000707D50098405D6E
:1042E000302803D06D1E3020009948553C20401BDB
:1042F0000399886100994919039AD1600399096B60
:10430000884209DA081A039908620398008F0E4957
:1043100001400398018715E0002913D5039938312E
:10432000097814220A40102A0CD10399496B039A88
:104330005269891A039A126A891A0D1A012D01DB32
:104340000398056205B0F0BDEFFF0000F3B591B032
:1043500006AD03C802AA03C212A8007820210143B7
:10436000009161290BD01198006B002801D506201F
:1043700003E004D1672902D1012011990863119843
:1043800041684800400DAB4A904225D1080310D146
:104390001198006800280CD103201199886112A897
:1043A000007861381A2842D3234878448A30009034
:1043B0000BE003201199886112A8007861381A284F
:1043C00031D31E487844743000900322009911982C
:1043D000C068FDF7D7F9F9E1012817DA119800F064
:1043E000D7FB012812DB002700260098612832D174
:1043F0001198C06830210170401C411C119AD16095
:1044000012A9097861291FD178211EE01199496804
:10441000894A0A4089491143119A51608849461ACC
:104420000027FF43E1E7064878441430CCE705480D
:1044300078441030BBE700BF5C46000050460000E7
:10444000484600004C460000582101701198406910
:10445000801C11994861002F03D100246846878091
:10446000AAE10098612800D0A1E01198046B002C0B
:1044700001D5212400E0641C24B2601C0090119836
:1044800003C804AA03C202A803C80022002300F044
:10449000A1FB04A803C802D280221206514002AA3E
:1044A00003C2301F6946888000270F7606AE761C4F
:1044B0000098012834DB02A803C80022002300F082
:1044C000A2FB2DD21C2102A800F0B6FB02A803C853
:1044D00000F040FC05000098C01F009001280ADB96
:1044E000280000F061FC02000B0002A803C800F0E5
:1044F000D2FC02AA03C2F61D072004E0761E29079B
:10450000090F31702D11012D01DB401EF6D5401E23
:1045100002D4761E3770FAE7F61D00980128CADA31
:1045200006A8401C311A06AD6D1CA14200DA0C0031
:1045300024B2200032D4884205DA06A90918497845
:10454000082900DB0F2706A9091801E0641E491E8F
:10455000401E0A78BA42F9D00F2F04D106A90918D3
:104560004A78521C4A70002806D506AD641C019892
:1045700000B2001D6946888024B2601E0ED429183E
:104580000A783032D2B23A2A03DB12AB1B783A3BBC
:10459000D2180A70401E491E0028F1D51198006BF0
:1045A000002800D408E1601E1199086304E102A804
:1045B00003C80022002300F00DFB06D202A803C8A6
:1045C00080221206514002AA03C236B280487043CC
:1045D000804900F0EDFC694688800720019909B206
:1045E000421A00207C49012A20DB049202AA30CA28
:1045F00000260F000498C00707D532003B002000BA
:10460000290000F02FFD04000D00049840100490D4
:104610003000390032003B0000F024FD06000F009E
:1046200004980028E6D102A830C028E054420026B1
:104630006A4F18E0FF070000FFFF0F800000E03F17
:10464000FE030000E00707D504A803C832003B00C2
:1046500000F008FD06000F00641004A803C804AAB7
:104660000CCA00F0FFFC04AA03C2002CEAD102A885
:1046700003C832003B0000F0B7FD02AA03C2009855
:10468000662803D1019800B20A3000E00620119993
:10469000096B08180490142801DB132004903020C3
:1046A0006946087606AC641C0498012840DB02A821
:1046B00003C800F061FB05000834059404242800B9
:1046C0000A2100F078FC0F0028000A2100F073FC9A
:1046D000050030370598401E077028000A2100F0B9
:1046E0006AFC0F0028000A2100F065FC050005980F
:1046F000801E059030370770641EE0D1059C083499
:104700000498083804900128CEDB02A803C800F002
:1047100033FB00F053FB02000B0002A803C800F0BB
:10472000BAFB00222E4B00F09DFC02AA03C2BEE79A
:1047300006A8401C201A06AD6D1C6A4605E0401E06
:10474000019909B2491E91806D1C29783029F6D053
:104750000099662903D1019909B2491C04E0652931
:1047600001D1012100E00021119A126B541824B2EA
:10477000A04200DA040024B221001DD4814204DAF0
:10478000685C352801DB392000E030206A1800E041
:10479000641E521E491E13788342F9D0392802D173
:1047A000685C401C6854002906D56D1E641C019885
:1047B00000B2401C69468880019800B2009023B284
:1047C0002A0012A80178119800F00CF813B0F0BD7F
:1047D00097750000A0860100000024400000F03F13
:1047E00084D79741F3B589B014001D0000F077FD20
:1047F0000090406A0078694608720998076B012D9D
:1048000001DA0125ACA40AA8017820200843109EF3
:10481000662801D1761C17E0672800D09EE00321AE
:10482000C9438E4200DA9DE0BE4200DB9AE0761C6E
:10483000099838300078000702D4BD4200DA2F0012
:1048400036B2BF1B00D500270998C06801900998AF
:10485000806901990918009136B2012E2CDA401CAA
:104860003021009A1170012F04DA09993831097842
:10487000090704D56946097A019A1154401C09991F
:1048800088617042874200DA7E4236B270420999EE
:104890004862BF19AF4200DA3D002DB20998C561E8
:1048A0002A0021000198099B9B69C018FCF76AFF48
:1048B000781B09998862E0E0B54220DA2A002100DD
:1048C0000098FCF75FFF099989694919099A916174
:1048D000701B099A5062012F04DA09983830007869
:1048E000000709D56846007A099AD2685054099899
:1048F000C069401C0999C86109988762BDE032000F
:1049000021000098FCF73EFF099880698019AD1BD3
:10491000012F04DA099938310978090705D5694664
:10492000097A099AD2681154401C099988612DB2FC
:10493000AF4200DA3D002DB22A00A1190998C068E3
:10494000099B9B69C018FCF71DFF099880694019F5
:1049500009998861781B099948628EE0612914D110
:10496000702015E0BD4205DA099938310978090748
:1049700000D42F007F1E00D500270AA800786728E2
:1049800001D1652004E0452002E0412902D15020F8
:104990000AA9087009988069411C099A9161099ACD
:1049A000D26801922278019B1A54641C0094012F52
:1049B00004DA09983830007800071CD5481C099A99
:1049C00090616A46127A019B5A54012F13DB6D1EC7
:1049D0002DB2AF4200DA3D002DB22A000099019BB2
:1049E0001818FCF7CFFE0998806940190999886169
:1049F000781B099948620998C0680999896944181F
:104A00000AA800782070300003D42B206070A41C0A
:104A100003E02D216170A41C4642002505AF08E08B
:104A20000A2203A800F076FC04983870039E6D1CDF
:104A30007F1C31B20129F3DA022D08DA0AA80078C6
:104A400020210143652902D130202070641C002DF3
:104A500009D130202070641C07E06D1E05A8405D60
:104A600030302070641C012DF7DA0998C06809996C
:104A700089694018201A0999C86109983830007866
:104A800014210140102914D10998406909998969B4
:104A900040180999496A40180999C9694018099943
:104AA000896A40180999496B884202DA081A0999FB
:104AB00008620BB0F0BD00003000F1B50E0014002C
:104AC0000027002B0FD01D002178B068009A904776
:104AD000B060002806D0F06A401CF062641C6D1EB5
:104AE00001D0F1E7FF433800F2BDC9B200E0401C3D
:104AF00002788A4202D0002AF9D1002070470100D2
:104B000000E0491C0A78002AFBD1081A7047C9B294
:104B100001E0401C521E002A03D003788B42F8D1DA
:104B2000704700207047124224D0994228D970B5AE
:104B300000251B4202D00C00002109E000240126C0
:104B400049186441944200D3A41A7641F8D3310045
:104B5000012601E0764109D2001864416D41A41A92
:104B60009D41F7D2A4185D41B619F5D3300022005B
:104B70002B0070BD1B42D8D108B500F0DBFB08BD8F
:104B800001D19042D3D202000B00002100207047D7
:104B900030B401004B68802212061A4001201B032A
:104BA0001B0B4B600BD10B68002B08D10DE00B6881
:104BB0006400DD0F25434D605B000B60401E4C68B8
:104BC000E302F4D523031B0B4B604B681A434A6086
:104BD00030BC704730B4012464054D00EC420BD862
:104BE0005D00EC4208D80C001C43640004431443ED
:104BF00004D2994200D1904230BC7047FCD08B4225
:104C0000FAD18242F8E730B4012464054D00EC4249
:104C10000BD85D00EC4208D80C001C436400044330
:104C2000144304D28B4200D1824230BC7047FCD086
:104C30009942FAD19042F8E770B504000D0060681F
:104C40004000400D3F4EB04207D16068000302D1E2
:104C50002068002816D0022070BD002804D1200052
:104C6000FFF796FF01286BDA012D0DDB311A8D421B
:104C70000AD36068002802D50020334901E00020F3
:104C8000310503C4012070BD4142A942616806DAC2
:104C90002E4A0A40281800051043606047E0802231
:104CA0001206114062681203120B80235B03134348
:104CB0006360401E2D1800202A003532352A02D3A9
:104CC0006160206070BD00221E23DB439D4204DA38
:104CD00020352268636823606060684211D0521EEC
:104CE0009241D243D20F20231B1A25689D402A43AC
:104CF0002568C54066689E402E4326606368C340B1
:104D000063606068084360601148824206D2802078
:104D1000000682420ED12078C0070BD52068401CC7
:104D200020602068002805D16068401C6060002079
:104D3000C04370BD60688842F9D120680028F6D170
:104D4000002070BDFF0700000000F0FFFFFF0F8094
:104D500001000080F4464A1805D200F00FF801D592
:104D600080174008604700F009F80121C907884210
:104D700000D90800404260474A1812D2400DC902CB
:104D800008430121C9070843520D40210901521A65
:104D9000521C06D452421F3201D4D0407047C01773
:104DA000704700207047FEE7010009D5F4464042F5
:104DB00000F006F80122D20711436047010000BF4E
:104DC00042221201D21E004207D002D4521E001805
:104DD000FCD5C10A40051205891870478B4200D1E5
:104DE000824205D98446100062468C46190063460B
:104DF000DF184C18640D7F0D3AD0661C760537D04D
:104E0000E61B352E34DCDB022B43DB0A0C0DC9021A
:104E10002943C912202E0DDB1700203E06D01F00AB
:104E2000F741F3405F400026012A7741C0187141E5
:104E30000DD217E01700F741F2405740F3415A40B6
:104E4000B340F3405A400026801859410AD3A21CAF
:104E500052050FD0C207012F724117004008CB073F
:104E600018434908641C24054208AF417041614160
:104E7000F0BC7047641C21050020F9E76B4010E08E
:104E80006B40ABE7F742F3D1E943F1E72442EFD1BE
:104E900000200021ECE7F0B40125ED070F005F4092
:104EA000EED40C00871A9C4105D2C01BA141D21937
:104EB000634169406B40AE0ADF184C18F442E1D2FE
:104EC000640D7F0DE2D0E61B362ED1DCDB022B43D6
:104ED000DB0AA4460C0DC9022943C90A012E28DCAD
:104EE00004D1D6075208DF073A435B08EF0A76423F
:104EF0009041994114D039423BD1B61940414941C2
:104F0000761C394204D1761C001849413942FAD046
:104F1000B9436746B74208D9A41B24052143A7E734
:104F20000042EAD13642E8D1A2E7E40AE1070020D4
:104F30009EE7202E0BDD203E1F00F340F7415F402F
:104F4000012A002257417E42984191410BE017000F
:104F5000F741F2405740F3415A40B340F3405A40C2
:104F60007E42904199410A0303D2641EB619404122
:104F700049410027641E24054208AE417841614141
:104F8000F0BC7047F446002804D4494200F013F8FE
:104F9000404260474042002905D45FD000F00BF842
:104FA000404249426047494200F005F849426047A3
:104FB00003460B43E6D40022030A8B420BD20309BB
:104FC0008B4219D243088B422ED2411A00D201469D
:104FD000524110467047FF2209023FD012068B4211
:104FE00005D3121209028B4201D3121209020309DE
:104FF0008B4219D300E0090AC3098B4201D3CB01CC
:10500000C01A524183098B4201D38B01C01A52410D
:1050100043098B4201D34B01C01A524103098B4211
:1050200001D30B01C01A5241C3088B4201D3CB00FC
:10503000C01A524183088B4201D38B00C01A5241DF
:1050400043088B4201D34B00C01A5241884200D31F
:10505000401A5241CFD201461046704708B500F0C1
:105060006BF908BDF0B50E005E400125ED072E403E
:10507000B446AE0ADF184C18F44208D2F7420ED2FA
:10508000640D01D07F0D12D100206146F0BD05D125
:10509000F74201D87F0D05D10020C143F0BDFBD1FF
:1050A000640DF9D00020C143490549088FE0E41997
:1050B000C902DB0229432B43DB0A460DC002314300
:1050C0008E4630B487B295B27D432E0CADB2140C2F
:1050D0007C43A419260C240425439CB27C43A419C8
:1050E000190C7943270CC919A4B20F043C43090CCD
:1050F000000C97B247432E0CBE193543ADB2170CC6
:105100004743360CBF19A6B2BF193E043543240CE1
:105110003E0C36199FB24743BF19BCB23E0C8919E9
:105120001F0C47437F183E043443390C704680B24D
:1051300097B247432E0CBE193543ADB2170C474307
:10514000360CBF19A6B2BF193E043543240C3E0CE1
:1051500036199FB24743BF19BCB23E0C89191F0CC8
:1051600047437F183E043443390C77463F0C90B2D6
:1051700078432E0C80190604ADB22E43050CA0B264
:105180002D18120C7A435019020C80B2240CA4186A
:105190009AB27A43121914042043120C89181B0C7A
:1051A0007B43C91830BCEF0A394203D1B6194041DC
:1051B0004941641E6F12BF0DE41B0BDBFF19BC429B
:1051C00011DA240500274208AE4178416141664664
:1051D0003143F0BD641C05D1401C6141CF0201D3B5
:1051E0004908F4E750E75DE7F0B40E005E400125A2
:1051F000ED072E40B446AE0ADF184C18F4423BD2FD
:10520000F74241D2640D43D07F0D38D0E41BC90270
:10521000DB0229432B43CF0ADB0A0600B61A9F4163
:1052200004D2641EB6197F41B6185F416812800D22
:1052300024180018844222DAE80C0021B6197F41B4
:10524000B61A9F4102D2B6185F413F1C4041494106
:10525000F4D3241C21DD2405B6197F41B61A9F41E1
:1052600005D33743C60737430026012F70416141FC
:1052700066463143F0BC7047FCD1F74205D20020AE
:10528000C14349054908F3E704D00020C143F1E7D1
:105290007F0DFAD000206146ECE72442FAD1401C91
:1052A00061410F03F6D30020E2E7FEE780B5124824
:1052B00000F043F811A1016041608160C1600161AB
:1052C000416181610EA242628162C16201634163F8
:1052D0000CA282630DA2C2630164416401BD10B5DA
:1052E000054800F02AF804002068002801D1FFF7E3
:1052F000DDFF200010BD00000C01002000000000B8
:105300002E00000066616C736500000074727565A4
:10531000000000007CB504000E00150030002900DC
:10532000FFF746FE00904543701B0190684603C896
:1053300003C476BD7047FEE77047704700B5BFF302
:105340004F8F6648BD490860BFF34F8FFEE70121CC
:105350008140D4480160704701218140D2480160FA
:1053600070475F48007ED14908705D48407ECF4954
:1053700048705B48807ECD4988705948C07ECB49D3
:10538000C8705748007FC94908715548407FC749D0
:10539000487153480078C549887151484078C349DD
:1053A000C8714F488078C14908724D48C078BF49DC
:1053B00048724B48007CBD4988724948407CBB49D3
:1053C000C8724748807CB94908734548C07CB749D2
:1053D00048734348007DB54988734148407DB349CF
:1053E000C8733F48807DB14908743D48C07DAF49CE
:1053F00048743B48807FAD4988743948C07FAB49C9
:10540000C8748F480078A94908758E480078A74964
:1054100048753348007A8C4908703148407A8A4987
:1054200048702F48807A884988702D48C07A86490C
:10543000C87001209D498875704780B58021C900DA
:10544000484300F017FE01BD0EB400B52C2201A99F
:105450008023DB00584300F041FE009804B0004771
:1054600030B589B00C008021C90048432C220100CE
:105470002000FCF787F920689F4988422CD02C2215
:105480008B4925002D1D2800FCF77CF98948006810
:10549000000EA07787480068000CE0778548006818
:1054A000000A2021605483480068212160549248FA
:1054B00020603F20282160542020292160547F2033
:1054C000FFF7BBFF210083B068462C22FCF76EF982
:1054D0000EBC7F20FFF7B8FF09B030BD0400FA050D
:1054E000E8290020012080F310887047002080F315
:1054F0001088704780B51820FFF72EFF01BD80B5DA
:105500001820FFF724FF01BD80B51A20FFF724FF04
:10551000FA20400000F0A4FE1A20FFF718FFFA203E
:10552000C00000F09DFE01BD10B58CB001A873490C
:105530001022FCF73BF972480478FFF7E5FF05A954
:10554000012001F0E5F86F496F4800F0F6FF6F4960
:105550006F4801F005F86F496F4801F014F8FFF744
:1055600000FF01A9012001F025F80021C94388426C
:1055700004D16A4800F087FEFFF7E0FE68486949F9
:10558000088069460F2001F015F80021C9438842C0
:1055900004D1654800F077FEFFF7D0FE684600783A
:1055A000002806D1964800F06EFEFA20C00000F0F8
:1055B00057FE01F04EFB68460078002804D15048A1
:1055C0000078E4B2A042DCD068460078012808D117
:1055D00001204B4908708B48524908808A488B4902
:1055E00008800622314990200001FDF71DFB884903
:1055F0000320FDF789F9874A87498748FCF72EF988
:1056000000208649087000208549087000208549DF
:1056100008600020C04384490860012000F002F8BF
:105620000CB010BD80B50121C0B204225043C000AF
:105630007E4A8018FDF771FA01BD00000CED00E014
:10564000082A0020092A0020B42A002010B582B0C0
:105650000400774800F017FE7649052001F008FDA8
:10566000754A2100754801F00BFD0400E4B22100E9
:10567000734800F008FEE4B2012C11D17148C07AE1
:1056800000907048837A6F48427A6E48017A6E487B
:1056900000F0F9FD0120614908700520FDF702FDC9
:1056A00013BD0000080500500C0500503C00002010
:1056B000E08700006000001080B56448FDF786F9BF
:1056C0006348FDF793F96348FDF7A0F96248FDF7D9
:1056D000AAF902206149887500F028F8FDF7B0F9B1
:1056E0000100C94800F0CFFD01BD80B5C74800F0FA
:1056F000CAFDFFF723FE01BD78563412688B000007
:10570000E72A0020ED540000E5540000FF5400009B
:10571000F55400005D6400007F64000024880000F0
:1057200010270000960100206089000000B58BB0B2
:1057300009A80021002206C008384849002000F0CE
:10574000E7FF03A9012000F0E3FF09A9082000F00A
:1057500031FF03A8807D022804D109A9404800F048
:1057600092FD03E009A93F4800F08DFDB34800F029
:105770008AFD03A84079029003A80079019003A84C
:10578000C078009003A8837803A842786846017B1C
:105790009F4800F078FD03A8407A009003A8037AA0
:1057A00003A8C27903A881799A4800F06CFD03A888
:1057B000407C009003A8037C03A8C27B03A8817BE4
:1057C0009F4800F060FD03A8407B009003A8037B86
:1057D00003A8C27A03A8817A9A4800F054FD03A86E
:1057E000407D009003A8037D03A8C27C03A8817CB0
:1057F000954800F048FD914800F045FD0BB000BD14
:10580000788B0000FFFF0000307500009801002039
:10581000A0110020EB560000B9560000E32A00203A
:10582000E42A0020AC2A0020B02A0020082F000023
:10583000888B0000A0190020F029002054000020CF
:10584000C08A0000E829002084880000420000206F
:105850004A000020460000204E0000203C000020AE
:1058600044880000BC87000080B578480078012893
:105870002DD177480088401C75490880AB480078D6
:10588000022824D173480078002811D101207149E1
:1058900008700120704908700020704908800020BD
:1058A000A34908706E486F49088000F057F90EE070
:1058B00067480088FA218900884208DB0120FDF74B
:1058C00001FD00206149087000206149088062489C
:1058D0000078012815D197480088401C9549088018
:1058E00094480088C82803DA1320FFF735FD08E044
:1058F0000020904908800020574908701320FFF7C6
:1059000026FD8D4800888D49884212D08A4800883B
:1059100000280ED088480088401E874908808648A5
:105920000088002805D1864800F0ADFC04207F499E
:105930000870844800888149884212D081480088D4
:1059400000280ED07F480088401E7E4908807D4890
:105950000088002805D17C4800F095FC052073499B
:105960000870404800887549884212D03D48008838
:1059700000280ED03B480088401E3A49088039482C
:105980000088002805D1714800F07DFC032067499C
:10599000087066480078032835D16D480088401C9F
:1059A0006B4908806A480088FF21F63188420CDA8A
:1059B000FF20F63066490880664800F064FCFCF77A
:1059C00017FF0120FDF76EFB1DE06148008862496A
:1059D000884218DB56480078401C554908705448E6
:1059E0000078062806DB00205149087006204F4940
:1059F000087002E000204D490870002054490880DA
:105A0000A94800F040FC01BDD48A0000788900005C
:105A10003C8700009089000080B510480088401C39
:105A20000E4908800D480088FF216A31884204DB56
:105A30009E4800F028FCFFF781FC01BD648800004F
:105A4000A8890000C0890000A0880000EA2A002080
:105A5000CE2A0020E92A0020EB2A0020D22A0020AA
:105A6000102700009A01002080B5304800780428F3
:105A70005ADB8F480088401C8D49088069460F20FA
:105A800000F098FD0021C943884204D1894800F004
:105A9000FAFBFFF753FC68460078002813D18648CC
:105AA000007869460978884205D00020804908803E
:105AB0000020814908707E480088062834DB0020D9
:105AC0007E49087030E06846007801282CD17A4879
:105AD00000786946097888420CD000207449088013
